Component: ARM Compiler 5.06 update 6 (build 750) Tool: armlink [4d35ed]

==============================================================================

Section Cross References

    main.o(i.main) refers to system_stm32f10x.o(i.SystemInit) for SystemInit
    main.o(i.main) refers to systick.o(i.SystickInit) for SystickInit
    main.o(i.main) refers to led.o(i.RGB_LedInit) for RGB_LedInit
    main.o(i.main) refers to usart2.o(i.Usart2Init) for Usart2Init
    main.o(i.main) refers to pwm.o(i.PwmInit) for PwmInit
    main.o(i.main) refers to systick.o(i.delay_ms) for delay_ms
    main.o(i.main) refers to iic.o(i.IIC_Init) for IIC_Init
    main.o(i.main) refers to led.o(i.RGB_LedBlink) for RGB_LedBlink
    main.o(i.main) refers to mpu6050.o(i.MPU6050_Init) for MPU6050_Init
    main.o(i.main) refers to inv_mpu.o(i.mpu_dmp_init) for mpu_dmp_init
    main.o(i.main) refers to spi.o(i.SpiInit) for SpiInit
    main.o(i.main) refers to nrf24l01.o(i.NRF24L01Init) for NRF24L01Init
    main.o(i.main) refers to nrf24l01.o(i.NRF24L01_Check) for NRF24L01_Check
    main.o(i.main) refers to nrf24l01.o(i.NRF24L01ReceiveMode) for NRF24L01ReceiveMode
    main.o(i.main) refers to adc.o(i.AdcInit) for AdcInit
    main.o(i.main) refers to pid.o(i.AllPidInit) for AllPidInit
    main.o(i.main) refers to timer.o(i.TimerInit) for TimerInit
    main.o(i.main) refers to nvic.o(i.NVIC_config) for NVIC_config
==============================================================================

Removing Unused input sections from the image.

    Removing core_cm3.o(.emb_text), (32 bytes).
    Removing system_stm32f10x.o(i.SystemCoreClockUpdate), (164 bytes).
    Removing imath.o(i.FastSqrt), (76 bytes).
    Removing imath.o(i.MyAbs), (24 bytes).
    Removing mpu6050.o(i.MPU6050_Get_Accelerometer), (80 bytes).
    Removing mpu6050.o(i.MPU6050_Get_Temperature), (104 bytes).
    Removing flash.o(i.STM32_FLASH_ReadHalfWord), (6 bytes).
    Removing flash.o(i.flash_read_bytes), (32 bytes).
    Removing flash.o(i.flash_read_cal), (440 bytes).
    Removing flash.o(i.flash_write_cal), (264 bytes).
    Removing flash.o(i.flash_write_harfword), (64 bytes).
    Removing flash.o(i.flash_write_word), (64 bytes).
    Removing nrf24l01.o(i.NRF24L01_TX_Mode), (108 bytes).
    Removing nrf24l01.o(i.NRF24L01_TxPacket), (100 bytes).
    Removing nrf24l01.o(.constdata), (10 bytes).
    Removing fc_status.o(i.get_chip_id), (36 bytes).
    Removing fc_status.o(.bss), (12 bytes).
    Removing nav.o(i.integral_vel), (88 bytes).
==============================================================================

Image Symbol Table

    Local Symbols

    Symbol Name                              Value     Ov Type        Size  Object(Section)

    ../clib/angel/boardlib.s                 0x00000000   Number         0  boardinit1.o ABSOLUTE
    ../clib/angel/boardlib.s                 0x00000000   Number         0  boardshut.o ABSOLUTE
    ../clib/angel/boardlib.s                 0x00000000   Number         0  boardinit2.o ABSOLUTE
    ../clib/angel/boardlib.s                 0x00000000   Number         0  boardinit3.o ABSOLUTE
    ../clib/angel/handlers.s                 0x00000000   Number         0  __scatter_copy.o ABSOLUTE
    ../clib/angel/handlers.s                 0x00000000   Number         0  __scatter_zi.o ABSOLUTE
    ../clib/angel/kernel.s                   0x00000000   Number         0  rtexit2.o ABSOLUTE
    ../clib/angel/kernel.s                   0x00000000   Number         0  rtexit.o ABSOLUTE
    ../clib/angel/kernel.s                   0x00000000   Number         0  __rtentry2.o ABSOLUTE
    ../clib/angel/kernel.s                   0x00000000   Number         0  __rtentry4.o ABSOLUTE
    ../clib/angel/kernel.s                   0x00000000   Number         0  __rtentry.o ABSOLUTE
    ../clib/angel/rt.s                       0x00000000   Number         0  rt_heap_descriptor_intlibspace.o ABSOLUTE
    ../clib/angel/rt.s                       0x00000000   Number         0  rt_errno_addr_intlibspace.o ABSOLUTE
    ../clib/angel/rt.s                       0x00000000   Number         0  rt_raise.o ABSOLUTE
    ../clib/angel/rt.s                       0x00000000   Number         0  rt_errno_addr.o ABSOLUTE
    ../clib/angel/rt.s                       0x00000000   Number         0  aeabi_ldiv0_sigfpe.o ABSOLUTE
    ../clib/angel/rt.s                       0x00000000   Number         0  rt_heap_descriptor.o ABSOLUTE
    ../clib/angel/rt.s                       0x00000000   Number         0  aeabi_ldiv0.o ABSOLUTE
    ../clib/angel/rt.s                       0x00000000   Number         0  rt_div0.o ABSOLUTE
    ../clib/angel/scatter.s                  0x00000000   Number         0  __scatter.o ABSOLUTE
    ../clib/angel/startup.s                  0x00000000   Number         0  __main.o ABSOLUTE
    ../clib/angel/sys.s                      0x00000000   Number         0  indicate_semi.o ABSOLUTE
    ../clib/angel/sys.s                      0x00000000   Number         0  libspace.o ABSOLUTE
    ../clib/angel/sys.s                      0x00000000   Number         0  mutex_dummy.o ABSOLUTE
    ../clib/angel/sys.s                      0x00000000   Number         0  sys_stackheap_outer.o ABSOLUTE
    ../clib/angel/sys.s                      0x00000000   Number         0  use_no_semi.o ABSOLUTE
    ../clib/angel/sysapp.c                   0x00000000   Number         0  sys_wrch.o ABSOLUTE
    ../clib/angel/sysapp.c                   0x00000000   Number         0  sys_command.o ABSOLUTE
    ../clib/angel/sysapp.c                   0x00000000   Number         0  sys_io.o ABSOLUTE
    ../clib/angel/sysapp.c                   0x00000000   Number         0  sys_exit.o ABSOLUTE
    ../clib/armsys.c                         0x00000000   Number         0  _get_argv_nomalloc.o ABSOLUTE
    ../clib/armsys.c                         0x00000000   Number         0  argv_veneer.o ABSOLUTE
    ../clib/armsys.c                         0x00000000   Number         0  argv_veneer.o ABSOLUTE
    ../clib/armsys.c                         0x00000000   Number         0  _get_argv.o ABSOLUTE
    ../clib/armsys.c                         0x00000000   Number         0  no_argv.o ABSOLUTE
    ../clib/assert.c                         0x00000000   Number         0  assert_stdio.o ABSOLUTE
    ../clib/fenv.c                           0x00000000   Number         0  _rserrno.o ABSOLUTE
    ../clib/heap1.c                          0x00000000   Number         0  h1_extend.o ABSOLUTE
    ../clib/heap1.c                          0x00000000   Number         0  h1_final_mt.o ABSOLUTE
    ../clib/heap1.c                          0x00000000   Number         0  h1_final.o ABSOLUTE
    ../clib/heap1.c                          0x00000000   Number         0  h1_alloc_mt.o ABSOLUTE
    ../clib/heap1.c                          0x00000000   Number         0  h1_alloc.o ABSOLUTE
    ../clib/heap1.c                          0x00000000   Number         0  h1_extend_mt.o ABSOLUTE
    ../clib/heap1.c                          0x00000000   Number         0  h1_init_mt.o ABSOLUTE
    ../clib/heap1.c                          0x00000000   Number         0  h1_init.o ABSOLUTE
    ../clib/heap1.c                          0x00000000   Number         0  h1_free.o ABSOLUTE
    ../clib/heap1.c                          0x00000000   Number         0  h1_free_mt.o ABSOLUTE
    ../clib/heap2.c                          0x00000000   Number         0  fdtree.o ABSOLUTE
    ../clib/heap2.c                          0x00000000   Number         0  heap2mt.o ABSOLUTE
    ../clib/heap2.c                          0x00000000   Number         0  heap2.o ABSOLUTE
    ../clib/heapalloc.c                      0x00000000   Number         0  heapstubs.o ABSOLUTE
    ../clib/heapalloc.c                      0x00000000   Number         0  hrguard.o ABSOLUTE
    ../clib/heapalloc.c                      0x00000000   Number         0  term_alloc.o ABSOLUTE
    ../clib/heapalloc.c                      0x00000000   Number         0  maybetermalloc2.o ABSOLUTE
    ../clib/heapalloc.c                      0x00000000   Number         0  maybetermalloc2.o ABSOLUTE
    ../clib/heapalloc.c                      0x00000000   Number         0  hguard.o ABSOLUTE
    ../clib/heapalloc.c                      0x00000000   Number         0  maybetermalloc1.o ABSOLUTE
    ../clib/heapalloc.c                      0x00000000   Number         0  maybetermalloc1.o ABSOLUTE
    ../clib/heapalloc.c                      0x00000000   Number         0  init_alloc.o ABSOLUTE
    ../clib/heapalloc.c                      0x00000000   Number         0  free.o ABSOLUTE
    ../clib/heapalloc.c                      0x00000000   Number         0  malloc.o ABSOLUTE
    ../clib/heapaux.c                        0x00000000   Number         0  heapauxa.o ABSOLUTE
    ../clib/heapaux.c                        0x00000000   Number         0  heapauxi.o ABSOLUTE
    ../clib/libinit.s                        0x00000000   Number         0  libinit.o ABSOLUTE
    ../clib/libinit.s                        0x00000000   Number         0  libshutdown2.o ABSOLUTE
    ../clib/libinit.s                        0x00000000   Number         0  libshutdown.o ABSOLUTE
    ../clib/libinit.s                        0x00000000   Number         0  libinit2.o ABSOLUTE
    ../clib/longlong.s                       0x00000000   Number         0  lludivv7m.o ABSOLUTE
    ../clib/longlong.s                       0x00000000   Number         0  llsdiv.o ABSOLUTE
    ../clib/memcpset.s                       0x00000000   Number         0  rt_memcpy_v6.o ABSOLUTE
    ../clib/memcpset.s                       0x00000000   Number         0  rt_memcpy_w.o ABSOLUTE
    ../clib/memcpset.s                       0x00000000   Number         0  aeabi_memset.o ABSOLUTE
    ../clib/memcpset.s                       0x00000000   Number         0  rt_memclr.o ABSOLUTE
    ../clib/memcpset.s                       0x00000000   Number         0  rt_memclr_w.o ABSOLUTE
    ../clib/misc.s                           0x00000000   Number         0  printf_stubs.o ABSOLUTE
    ../clib/printf.c                         0x00000000   Number         0  _printf_hex_ll_ptr.o ABSOLUTE
    ../clib/printf.c                         0x00000000   Number         0  _printf_hex_int_ptr.o ABSOLUTE
    ../clib/printf.c                         0x00000000   Number         0  _printf_hex_ptr.o ABSOLUTE
    ../clib/printf.c                         0x00000000   Number         0  _printf_hex_int_ll.o ABSOLUTE
    ../clib/printf.c                         0x00000000   Number         0  _printf_hex_int.o ABSOLUTE
    ../clib/printf.c                         0x00000000   Number         0  _printf_hex_ll.o ABSOLUTE
    ../clib/printf.c                         0x00000000   Number         0  _printf_pad.o ABSOLUTE
    ../clib/printf.c                         0x00000000   Number         0  __printf.o ABSOLUTE
    ../clib/printf.c                         0x00000000   Number         0  noretval__2printf.o ABSOLUTE
    ../clib/printf.c                         0x00000000   Number         0  __2printf.o ABSOLUTE
    ../clib/printf.c                         0x00000000   Number         0  __printf_ss.o ABSOLUTE
    ../clib/printf.c                         0x00000000   Number         0  _printf_intcommon.o ABSOLUTE
    ../clib/printf.c                         0x00000000   Number         0  _printf_char_file.o ABSOLUTE
    ../clib/printf.c                         0x00000000   Number         0  _printf_char_common.o ABSOLUTE
    ../clib/printf.c                         0x00000000   Number         0  __printf_flags_ss_wp.o ABSOLUTE
    ../clib/printf.c                         0x00000000   Number         0  __printf_ss_wp.o ABSOLUTE
    ../clib/printf.c                         0x00000000   Number         0  _printf_char_file_locked.o ABSOLUTE
    ../clib/printf.c                         0x00000000   Number         0  __printf_flags_wp.o ABSOLUTE
    ../clib/printf.c                         0x00000000   Number         0  __printf_wp.o ABSOLUTE
    ../clib/printf.c                         0x00000000   Number         0  __printf_flags_ss.o ABSOLUTE
    ../clib/printf.c                         0x00000000   Number         0  __printf_nopercent.o ABSOLUTE
    ../clib/printf.c                         0x00000000   Number         0  __printf_flags.o ABSOLUTE
    ../clib/printf.c                         0x00000000   Number         0  _printf_hex_int_ll_ptr.o ABSOLUTE
    ../clib/printf_percent.s                 0x00000000   Number         0  _printf_percent.o ABSOLUTE
    ../clib/printf_percent.s                 0x00000000   Number         0  _printf_percent_end.o ABSOLUTE
    ../clib/printf_percent.s                 0x00000000   Number         0  _printf_x.o ABSOLUTE
    ../clib/signal.c                         0x00000000   Number         0  defsig_abrt_inner.o ABSOLUTE
    ../clib/signal.c                         0x00000000   Number         0  defsig_other.o ABSOLUTE
    ../clib/signal.c                         0x00000000   Number         0  defsig_segv_inner.o ABSOLUTE
    ../clib/signal.c                         0x00000000   Number         0  defsig_cppl_inner.o ABSOLUTE
    ../clib/signal.c                         0x00000000   Number         0  defsig_rtred_inner.o ABSOLUTE
    ../clib/signal.c                         0x00000000   Number         0  defsig_fpe_formal.o ABSOLUTE
    ../clib/signal.c                         0x00000000   Number         0  defsig_rtmem_inner.o ABSOLUTE
    ../clib/signal.c                         0x00000000   Number         0  defsig_fpe_outer.o ABSOLUTE
    ../clib/signal.c                         0x00000000   Number         0  defsig_exit.o ABSOLUTE
    ../clib/signal.c                         0x00000000   Number         0  defsig_rtmem_formal.o ABSOLUTE
    ../clib/signal.c                         0x00000000   Number         0  defsig_rtmem_outer.o ABSOLUTE
    ../clib/signal.c                         0x00000000   Number         0  defsig_pvfn_inner.o ABSOLUTE
    ../clib/signal.c                         0x00000000   Number         0  defsig_fpe_inner.o ABSOLUTE
    ../clib/signal.c                         0x00000000   Number         0  defsig_general.o ABSOLUTE
    ../clib/signal.c                         0x00000000   Number         0  __raise.o ABSOLUTE
    ../clib/signal.c                         0x00000000   Number         0  defsig_stak_inner.o ABSOLUTE
    ../clib/signal.c                         0x00000000   Number         0  defsig_rtred_formal.o ABSOLUTE
    ../clib/signal.c                         0x00000000   Number         0  defsig_rtred_outer.o ABSOLUTE
    ../clib/signal.s                         0x00000000   Number         0  defsig.o ABSOLUTE
    ../clib/stdio.c                          0x00000000   Number         0  fopen.o ABSOLUTE
    ../clib/stdio.c                          0x00000000   Number         0  streamlock.o ABSOLUTE
    ../clib/stdio.c                          0x00000000   Number         0  setvbuf.o ABSOLUTE
    ../clib/stdio.c                          0x00000000   Number         0  fwritefast_locked.o ABSOLUTE
    ../clib/stdio.c                          0x00000000   Number         0  fwritefast.o ABSOLUTE
    ../clib/stdio.c                          0x00000000   Number         0  stdio.o ABSOLUTE
    ../clib/stdio.c                          0x00000000   Number         0  fseek.o ABSOLUTE
    ../clib/stdio.c                          0x00000000   Number         0  initio_locked.o ABSOLUTE
    ../clib/stdio.c                          0x00000000   Number         0  ferror_locked.o ABSOLUTE
    ../clib/stdio.c                          0x00000000   Number         0  fputc_locked.o ABSOLUTE
    ../clib/stdio.c                          0x00000000   Number         0  initio.o ABSOLUTE
    ../clib/stdio.c                          0x00000000   Number         0  fputc.o ABSOLUTE
    ../clib/stdio.c                          0x00000000   Number         0  ferror.o ABSOLUTE
    ../clib/stdio.c                          0x00000000   Number         0  flsbuf.o ABSOLUTE
    ../clib/stdio.c                          0x00000000   Number         0  fflush_locked.o ABSOLUTE
    ../clib/stdio.c                          0x00000000   Number         0  ftell.o ABSOLUTE
    ../clib/stdio.c                          0x00000000   Number         0  fflush.o ABSOLUTE
    ../clib/stdio.c                          0x00000000   Number         0  fputs_locked.o ABSOLUTE
    ../clib/stdio.c                          0x00000000   Number         0  fopen_locked.o ABSOLUTE
    ../clib/stdio.c                          0x00000000   Number         0  setvbuf_locked.o ABSOLUTE
    ../clib/stdio.c                          0x00000000   Number         0  stdio_streams.o ABSOLUTE
    ../clib/stdio.c                          0x00000000   Number         0  fputs.o ABSOLUTE
    ../clib/stdio.c                          0x00000000   Number         0  fclose.o ABSOLUTE
    ../clib/stdlib.c                         0x00000000   Number         0  exit.o ABSOLUTE
    ../clib/string.c                         0x00000000   Number         0  memcmp.o ABSOLUTE
    ../clib/string.c                         0x00000000   Number         0  strlen.o ABSOLUTE
    ../clib/wchar.c                          0x00000000   Number         0  flsbuf_fwide.o ABSOLUTE
    ../fplib/d2f.s                           0x00000000   Number         0  d2f.o ABSOLUTE
    ../fplib/daddsub.s                       0x00000000   Number         0  daddsub_clz.o ABSOLUTE
    ../fplib/dcheck1.s                       0x00000000   Number         0  dcheck1.o ABSOLUTE
    ../fplib/dcmpi.s                         0x00000000   Number         0  dcmpi.o ABSOLUTE
    ../fplib/ddiv.s                          0x00000000   Number         0  ddiv.o ABSOLUTE
    ../fplib/dflt.s                          0x00000000   Number         0  dflt_clz.o ABSOLUTE
    ../fplib/dleqf.s                         0x00000000   Number         0  dleqf.o ABSOLUTE
    ../fplib/dmul.s                          0x00000000   Number         0  dmul.o ABSOLUTE
    ../fplib/dnaninf.s                       0x00000000   Number         0  dnaninf.o ABSOLUTE
    ../fplib/dretinf.s                       0x00000000   Number         0  dretinf.o ABSOLUTE
    ../fplib/dsqrt.s                         0x00000000   Number         0  dsqrt_noumaal.o ABSOLUTE
    ../fplib/f2d.s                           0x00000000   Number         0  f2d.o ABSOLUTE
    ../fplib/faddsub.s                       0x00000000   Number         0  faddsub_clz.o ABSOLUTE
    ../fplib/fcmpi.s                         0x00000000   Number         0  fcmpi.o ABSOLUTE
    ../fplib/fdiv.s                          0x00000000   Number         0  fdiv.o ABSOLUTE
    ../fplib/feqf.s                          0x00000000   Number         0  feqf.o ABSOLUTE
    ../fplib/ffix.s                          0x00000000   Number         0  ffix.o ABSOLUTE
    ../fplib/ffixu.s                         0x00000000   Number         0  ffixu.o ABSOLUTE
    ../fplib/fflt.s                          0x00000000   Number         0  fflt_clz.o ABSOLUTE
    ../fplib/fleqf.s                         0x00000000   Number         0  fleqf.o ABSOLUTE
    ../fplib/fmul.s                          0x00000000   Number         0  fmul.o ABSOLUTE
    ../fplib/fnaninf.s                       0x00000000   Number         0  fnaninf.o ABSOLUTE
    ../fplib/fpinit.s                        0x00000000   Number         0  fpinit.o ABSOLUTE
    ../fplib/fretinf.s                       0x00000000   Number         0  fretinf.o ABSOLUTE
    ../fplib/frleqf.s                        0x00000000   Number         0  frleqf.o ABSOLUTE
    ../fplib/retnan.s                        0x00000000   Number         0  retnan.o ABSOLUTE
    ../fplib/scalbn.s                        0x00000000   Number         0  scalbn.o ABSOLUTE
    ../fplib/trapv.s                         0x00000000   Number         0  trapv.o ABSOLUTE
    ../fplib/usenofp.s                       0x00000000   Number         0  usenofp.o ABSOLUTE
    ../mathlib/asin.c                        0x00000000   Number         0  asin.o ABSOLUTE
    ../mathlib/asin.c                        0x00000000   Number         0  asin_x.o ABSOLUTE
    ../mathlib/atan.c                        0x00000000   Number         0  atan_x.o ABSOLUTE
    ../mathlib/atan.c                        0x00000000   Number         0  atan.o ABSOLUTE
    ../mathlib/atan2.c                       0x00000000   Number         0  atan2_x.o ABSOLUTE
    ../mathlib/atan2.c                       0x00000000   Number         0  atan2.o ABSOLUTE
    ../mathlib/dunder.c                      0x00000000   Number         0  dunder.o ABSOLUTE
    ../mathlib/fpclassify.c                  0x00000000   Number         0  fpclassify.o ABSOLUTE
    ../mathlib/poly.c                        0x00000000   Number         0  poly.o ABSOLUTE
    ../mathlib/qnan.c                        0x00000000   Number         0  qnan.o ABSOLUTE
    ../mathlib/sqrt.c                        0x00000000   Number         0  sqrt.o ABSOLUTE
    ../mathlib/sqrt.c                        0x00000000   Number         0  sqrt_x.o ABSOLUTE
    ..\CMSIS\inc\startup_stm32f10x_md.s      0x00000000   Number         0  startup_stm32f10x_md.o ABSOLUTE
    ..\CMSIS\src\core_cm3.c                  0x00000000   Number         0  core_cm3.o ABSOLUTE
    ..\CMSIS\src\stm32f10x_it.c              0x00000000   Number         0  stm32f10x_it.o ABSOLUTE
    ..\CMSIS\src\system_stm32f10x.c          0x00000000   Number         0  system_stm32f10x.o ABSOLUTE
    ..\LIB\src\misc.c                        0x00000000   Number         0  misc.o ABSOLUTE
    ..\LIB\src\stm32f10x_adc.c               0x00000000   Number         0  stm32f10x_adc.o ABSOLUTE
    ..\LIB\src\stm32f10x_bkp.c               0x00000000   Number         0  stm32f10x_bkp.o ABSOLUTE
    ..\LIB\src\stm32f10x_can.c               0x00000000   Number         0  stm32f10x_can.o ABSOLUTE
    ..\LIB\src\stm32f10x_cec.c               0x00000000   Number         0  stm32f10x_cec.o ABSOLUTE
    ..\LIB\src\stm32f10x_crc.c               0x00000000   Number         0  stm32f10x_crc.o ABSOLUTE
    ..\LIB\src\stm32f10x_dac.c               0x00000000   Number         0  stm32f10x_dac.o ABSOLUTE
    ..\LIB\src\stm32f10x_dbgmcu.c            0x00000000   Number         0  stm32f10x_dbgmcu.o ABSOLUTE
    ..\LIB\src\stm32f10x_dma.c               0x00000000   Number         0  stm32f10x_dma.o ABSOLUTE
    ..\LIB\src\stm32f10x_exti.c              0x00000000   Number         0  stm32f10x_exti.o ABSOLUTE
    ..\LIB\src\stm32f10x_flash.c             0x00000000   Number         0  stm32f10x_flash.o ABSOLUTE
    ..\LIB\src\stm32f10x_fsmc.c              0x00000000   Number         0  stm32f10x_fsmc.o ABSOLUTE
    ..\LIB\src\stm32f10x_gpio.c              0x00000000   Number         0  stm32f10x_gpio.o ABSOLUTE
    ..\LIB\src\stm32f10x_i2c.c               0x00000000   Number         0  stm32f10x_i2c.o ABSOLUTE
    ..\LIB\src\stm32f10x_iwdg.c              0x00000000   Number         0  stm32f10x_iwdg.o ABSOLUTE
    ..\LIB\src\stm32f10x_pwr.c               0x00000000   Number         0  stm32f10x_pwr.o ABSOLUTE
    ..\LIB\src\stm32f10x_rcc.c               0x00000000   Number         0  stm32f10x_rcc.o ABSOLUTE
    ..\LIB\src\stm32f10x_rtc.c               0x00000000   Number         0  stm32f10x_rtc.o ABSOLUTE
    ..\LIB\src\stm32f10x_sdio.c              0x00000000   Number         0  stm32f10x_sdio.o ABSOLUTE
    ..\LIB\src\stm32f10x_spi.c               0x00000000   Number         0  stm32f10x_spi.o ABSOLUTE
    ..\LIB\src\stm32f10x_tim.c               0x00000000   Number         0  stm32f10x_tim.o ABSOLUTE
    ..\LIB\src\stm32f10x_usart.c             0x00000000   Number         0  stm32f10x_usart.o ABSOLUTE
    ..\LIB\src\stm32f10x_wwdg.c              0x00000000   Number         0  stm32f10x_wwdg.o ABSOLUTE
    ..\OBJ\acc_cal.c                         0x00000000   Number         0  acc_cal.o ABSOLUTE
    ..\OBJ\adc.c                             0x00000000   Number         0  adc.o ABSOLUTE
    ..\OBJ\controller.c                      0x00000000   Number         0  controller.o ABSOLUTE
    ..\OBJ\fc_status.c                       0x00000000   Number         0  fc_status.o ABSOLUTE
    ..\OBJ\flash.c                           0x00000000   Number         0  flash.o ABSOLUTE
    ..\OBJ\gyro_cal.c                        0x00000000   Number         0  gyro_cal.o ABSOLUTE
    ..\OBJ\iic.c                             0x00000000   Number         0  iic.o ABSOLUTE
    ..\OBJ\imath.c                           0x00000000   Number         0  imath.o ABSOLUTE
    ..\OBJ\imu.c                             0x00000000   Number         0  imu.o ABSOLUTE
    ..\OBJ\inv_mpu.c                         0x00000000   Number         0  inv_mpu.o ABSOLUTE
    ..\OBJ\inv_mpu_dmp_motion_driver.c       0x00000000   Number         0  inv_mpu_dmp_motion_driver.o ABSOLUTE
    ..\OBJ\led.c                             0x00000000   Number         0  led.o ABSOLUTE
    ..\OBJ\mpu6050.c                         0x00000000   Number         0  mpu6050.o ABSOLUTE
    ..\OBJ\nav.c                             0x00000000   Number         0  nav.o ABSOLUTE
    ..\OBJ\nrf24l01.c                        0x00000000   Number         0  nrf24l01.o ABSOLUTE
    ..\OBJ\nvic.c                            0x00000000   Number         0  nvic.o ABSOLUTE
    ..\OBJ\pair_freq.c                       0x00000000   Number         0  pair_freq.o ABSOLUTE
    ..\OBJ\parse_packet.c                    0x00000000   Number         0  parse_packet.o ABSOLUTE
    ..\OBJ\pid.c                             0x00000000   Number         0  pid.o ABSOLUTE
    ..\OBJ\pwm.c                             0x00000000   Number         0  pwm.o ABSOLUTE
    ..\OBJ\spi.c                             0x00000000   Number         0  spi.o ABSOLUTE
    ..\OBJ\system.c                          0x00000000   Number         0  system.o ABSOLUTE
    ..\OBJ\systick.c                         0x00000000   Number         0  systick.o ABSOLUTE
    ..\OBJ\timer.c                           0x00000000   Number         0  timer.o ABSOLUTE
    ..\OBJ\usart2.c                          0x00000000   Number         0  usart2.o ABSOLUTE
    ..\\CMSIS\\src\\core_cm3.c               0x00000000   Number         0  core_cm3.o ABSOLUTE
    dc.s                                     0x00000000   Number         0  dc.o ABSOLUTE
    main.c                                   0x00000000   Number         0  main.o ABSOLUTE
    RESET                                    0x08000000   Section      236  startup_stm32f10x_md.o(RESET)
    !!!main                                  0x080000ec   Section        8  __main.o(!!!main)
    !!!scatter                               0x080000f4   Section       52  __scatter.o(!!!scatter)
    !!handler_copy                           0x08000128   Section       26  __scatter_copy.o(!!handler_copy)
    !!handler_zi                             0x08000144   Section       28  __scatter_zi.o(!!handler_zi)
    .ARM.Collect$$libinit$$00000000          0x08000160   Section        2  libinit.o(.ARM.Collect$$libinit$$00000000)
    .ARM.Collect$$libinit$$00000002          0x08000162   Section        0  libinit2.o(.ARM.Collect$$libinit$$00000002)
    .ARM.Collect$$libinit$$00000004          0x08000162   Section        0  libinit2.o(.ARM.Collect$$libinit$$00000004)
    .ARM.Collect$$libinit$$0000000A          0x08000162   Section        0  libinit2.o(.ARM.Collect$$libinit$$0000000A)
    .ARM.Collect$$libinit$$0000000C          0x08000162   Section        0  libinit2.o(.ARM.Collect$$libinit$$0000000C)
    .ARM.Collect$$libinit$$0000000E          0x08000162   Section        0  libinit2.o(.ARM.Collect$$libinit$$0000000E)
    .ARM.Collect$$libinit$$00000011          0x08000162   Section        0  libinit2.o(.ARM.Collect$$libinit$$00000011)
    .ARM.Collect$$libinit$$00000013          0x08000162   Section        0  libinit2.o(.ARM.Collect$$libinit$$00000013)
    .ARM.Collect$$libinit$$00000015          0x08000162   Section        0  libinit2.o(.ARM.Collect$$libinit$$00000015)
    .ARM.Collect$$libinit$$00000017          0x08000162   Section        0  libinit2.o(.ARM.Collect$$libinit$$00000017)
    .ARM.Collect$$libinit$$00000019          0x08000162   Section        0  libinit2.o(.ARM.Collect$$libinit$$00000019)
    .ARM.Collect$$libinit$$0000001B          0x08000162   Section        0  libinit2.o(.ARM.Collect$$libinit$$0000001B)
    .ARM.Collect$$libinit$$0000001D          0x08000162   Section        0  libinit2.o(.ARM.Collect$$libinit$$0000001D)
    .ARM.Collect$$libinit$$0000001F          0x08000162   Section        0  libinit2.o(.ARM.Collect$$libinit$$0000001F)
    .ARM.Collect$$libinit$$00000021          0x08000162   Section        0  libinit2.o(.ARM.Collect$$libinit$$00000021)
    .ARM.Collect$$libinit$$00000023          0x08000162   Section        0  libinit2.o(.ARM.Collect$$libinit$$00000023)
    .ARM.Collect$$libinit$$00000025          0x08000162   Section        0  libinit2.o(.ARM.Collect$$libinit$$00000025)
    .ARM.Collect$$libinit$$0000002C          0x08000162   Section        0  libinit2.o(.ARM.Collect$$libinit$$0000002C)
    .ARM.Collect$$libinit$$0000002E          0x08000162   Section        0  libinit2.o(.ARM.Collect$$libinit$$0000002E)
    .ARM.Collect$$libinit$$00000030          0x08000162   Section        0  libinit2.o(.ARM.Collect$$libinit$$00000030)
    .ARM.Collect$$libinit$$00000032          0x08000162   Section        0  libinit2.o(.ARM.Collect$$libinit$$00000032)
    .ARM.Collect$$libinit$$00000033          0x08000162   Section        2  libinit2.o(.ARM.Collect$$libinit$$00000033)
    .ARM.Collect$$libshutdown$$00000000      0x08000164   Section        2  libshutdown.o(.ARM.Collect$$libshutdown$$00000000)
    .ARM.Collect$$libshutdown$$00000002      0x08000166   Section        0  libshutdown2.o(.ARM.Collect$$libshutdown$$00000002)
    .ARM.Collect$$libshutdown$$00000004      0x08000166   Section        0  libshutdown2.o(.ARM.Collect$$libshutdown$$00000004)
    .ARM.Collect$$libshutdown$$00000007      0x08000166   Section        0  libshutdown2.o(.ARM.Collect$$libshutdown$$00000007)
    .ARM.Collect$$libshutdown$$0000000A      0x08000166   Section        0  libshutdown2.o(.ARM.Collect$$libshutdown$$0000000A)
    .ARM.Collect$$libshutdown$$0000000C      0x08000166   Section        0  libshutdown2.o(.ARM.Collect$$libshutdown$$0000000C)
    .ARM.Collect$$libshutdown$$0000000F      0x08000166   Section        0  libshutdown2.o(.ARM.Collect$$libshutdown$$0000000F)
    .ARM.Collect$$libshutdown$$00000010      0x08000166   Section        2  libshutdown2.o(.ARM.Collect$$libshutdown$$00000010)
    .ARM.Collect$$rtentry$$00000000          0x08000168   Section        0  __rtentry.o(.ARM.Collect$$rtentry$$00000000)
    .ARM.Collect$$rtentry$$00000002          0x08000168   Section        0  __rtentry2.o(.ARM.Collect$$rtentry$$00000002)
    .ARM.Collect$$rtentry$$00000004          0x08000168   Section        6  __rtentry4.o(.ARM.Collect$$rtentry$$00000004)
    .ARM.Collect$$rtentry$$00000009          0x0800016e   Section        0  __rtentry2.o(.ARM.Collect$$rtentry$$00000009)
    .ARM.Collect$$rtentry$$0000000A          0x0800016e   Section        4  __rtentry2.o(.ARM.Collect$$rtentry$$0000000A)
    .ARM.Collect$$rtentry$$0000000C          0x08000172   Section        0  __rtentry2.o(.ARM.Collect$$rtentry$$0000000C)
    .ARM.Collect$$rtentry$$0000000D          0x08000172   Section        8  __rtentry2.o(.ARM.Collect$$rtentry$$0000000D)
    .ARM.Collect$$rtexit$$00000000           0x0800017a   Section        2  rtexit.o(.ARM.Collect$$rtexit$$00000000)
    .ARM.Collect$$rtexit$$00000002           0x0800017c   Section        0  rtexit2.o(.ARM.Collect$$rtexit$$00000002)
    .ARM.Collect$$rtexit$$00000003           0x0800017c   Section        4  rtexit2.o(.ARM.Collect$$rtexit$$00000003)
    .ARM.Collect$$rtexit$$00000004           0x08000180   Section        6  rtexit2.o(.ARM.Collect$$rtexit$$00000004)
    .text                                    0x08000188   Section       64  startup_stm32f10x_md.o(.text)
    .text                                    0x080001c8   Section       72  llsdiv.o(.text)
    .text                                    0x08000210   Section        0  memcmp.o(.text)
    .text                                    0x08000268   Section      100  rt_memcpy_w.o(.text)
    .text                                    0x080002cc   Section       16  aeabi_memset.o(.text)
    .text                                    0x080002dc   Section       78  rt_memclr_w.o(.text)
    .text                                    0x0800032a   Section        0  heapauxi.o(.text)
    .text                                    0x08000330   Section      238  lludivv7m.o(.text)
    .text                                    0x0800041e   Section        0  _rserrno.o(.text)
    .text                                    0x08000434   Section       68  rt_memclr.o(.text)
    .text                                    0x08000478   Section        8  rt_errno_addr_intlibspace.o(.text)
    .text                                    0x08000480   Section        8  libspace.o(.text)
    .text                                    0x08000488   Section       74  sys_stackheap_outer.o(.text)
    .text                                    0x080004d2   Section        0  exit.o(.text)
    .text                                    0x080004e4   Section        2  use_no_semi.o(.text)
    .text                                    0x080004e6   Section        0  indicate_semi.o(.text)
    .text                                    0x080004e8   Section        0  sys_exit.o(.text)
    i.ADC_Cmd                                0x080004f4   Section        0  stm32f10x_adc.o(i.ADC_Cmd)
    i.ADC_DMACmd                             0x0800050a   Section        0  stm32f10x_adc.o(i.ADC_DMACmd)
    i.ADC_GetCalibrationStatus               0x08000520   Section        0  stm32f10x_adc.o(i.ADC_GetCalibrationStatus)
    i.ADC_Init                               0x08000534   Section        0  stm32f10x_adc.o(i.ADC_Init)
    i.ADC_RegularChannelConfig               0x08000584   Section        0  stm32f10x_adc.o(i.ADC_RegularChannelConfig)
    i.ADC_ResetCalibration                   0x0800063c   Section        0  stm32f10x_adc.o(i.ADC_ResetCalibration)
    i.ADC_SoftwareStartConvCmd               0x08000646   Section        0  stm32f10x_adc.o(i.ADC_SoftwareStartConvCmd)
    i.ADC_StartCalibration                   0x0800065c   Section        0  stm32f10x_adc.o(i.ADC_StartCalibration)
    i.ANODTDataReceivePrepare                0x08000668   Section        0  usart2.o(i.ANODTDataReceivePrepare)
    ANODTDataReceivePrepare                  0x08000669   Thumb Code   216  usart2.o(i.ANODTDataReceivePrepare)
    i.ANODataReceiveAnalysis                 0x08000750   Section        0  usart2.o(i.ANODataReceiveAnalysis)
    ANODataReceiveAnalysis                   0x08000751   Thumb Code   880  usart2.o(i.ANODataReceiveAnalysis)
    i.ANOSendStatus                          0x08000ae4   Section        0  usart2.o(i.ANOSendStatus)
    i.ANO_DT_Send_Check                      0x08000c34   Section        0  usart2.o(i.ANO_DT_Send_Check)
    ANO_DT_Send_Check                        0x08000c35   Thumb Code    72  usart2.o(i.ANO_DT_Send_Check)
    i.AdcInit                                0x08000c7c   Section        0  adc.o(i.AdcInit)
    i.AllPidInit                             0x08000c94   Section        0  pid.o(i.AllPidInit)
    i.AngleController                        0x08000d5c   Section        0  controller.o(i.AngleController)
    i.BusFault_Handler                       0x08000df4   Section        0  stm32f10x_it.o(i.BusFault_Handler)
    i.ClearIntegral                          0x08000df8   Section        0  pid.o(i.ClearIntegral)
    i.ControModel                            0x08000e00   Section        0  controller.o(i.ControModel)
    i.ControllerOutput                       0x08000e38   Section        0  controller.o(i.ControllerOutput)
    i.DMA_Cmd                                0x0800100c   Section        0  stm32f10x_dma.o(i.DMA_Cmd)
    i.DMA_DeInit                             0x08001024   Section        0  stm32f10x_dma.o(i.DMA_DeInit)
    i.DMA_Init                               0x08001170   Section        0  stm32f10x_dma.o(i.DMA_Init)
    i.DMA_SetCurrDataCounter                 0x080011ac   Section        0  stm32f10x_dma.o(i.DMA_SetCurrDataCounter)
    i.DateTransfer                           0x080011b0   Section        0  usart2.o(i.DateTransfer)
    DateTransfer                             0x080011b1   Thumb Code   540  usart2.o(i.DateTransfer)
    i.DebugMon_Handler                       0x080013dc   Section        0  stm32f10x_it.o(i.DebugMon_Handler)
    i.DmaConfig                              0x080013e0   Section        0  adc.o(i.DmaConfig)
    i.FLASH_ClearFlag                        0x08001438   Section        0  stm32f10x_flash.o(i.FLASH_ClearFlag)
    i.FLASH_ErasePage                        0x08001444   Section        0  stm32f10x_flash.o(i.FLASH_ErasePage)
    i.FLASH_GetBank1Status                   0x08001490   Section        0  stm32f10x_flash.o(i.FLASH_GetBank1Status)
    i.FLASH_LockBank1                        0x080014c4   Section        0  stm32f10x_flash.o(i.FLASH_LockBank1)
    i.FLASH_ProgramWord                      0x080014d8   Section        0  stm32f10x_flash.o(i.FLASH_ProgramWord)
    i.FLASH_UnlockBank1                      0x08001544   Section        0  stm32f10x_flash.o(i.FLASH_UnlockBank1)
    i.FLASH_WaitForLastOperation             0x0800155c   Section        0  stm32f10x_flash.o(i.FLASH_WaitForLastOperation)
    i.GPIO_Init                              0x08001582   Section        0  stm32f10x_gpio.o(i.GPIO_Init)
    i.GPIO_ResetBits                         0x08001698   Section        0  stm32f10x_gpio.o(i.GPIO_ResetBits)
    i.GPIO_SetBits                           0x0800169c   Section        0  stm32f10x_gpio.o(i.GPIO_SetBits)
    i.GyroController                         0x080016a0   Section        0  controller.o(i.GyroController)
    i.GyroDataTransformDeg                   0x080016ec   Section        0  imu.o(i.GyroDataTransformDeg)
    i.HardFault_Handler                      0x0800173c   Section        0  stm32f10x_it.o(i.HardFault_Handler)
    i.IIC_Ack                                0x08001740   Section        0  iic.o(i.IIC_Ack)
    i.IIC_Init                               0x08001774   Section        0  iic.o(i.IIC_Init)
    i.IIC_NAck                               0x080017c0   Section        0  iic.o(i.IIC_NAck)
    i.IIC_Read_Byte                          0x080017f4   Section        0  iic.o(i.IIC_Read_Byte)
    i.IIC_Send_Byte                          0x08001848   Section        0  iic.o(i.IIC_Send_Byte)
    i.IIC_Start                              0x080018a4   Section        0  iic.o(i.IIC_Start)
    i.IIC_Stop                               0x080018d8   Section        0  iic.o(i.IIC_Stop)
    i.IIC_Wait_Ack                           0x0800190c   Section        0  iic.o(i.IIC_Wait_Ack)
    i.IIC_delay                              0x08001958   Section        0  iic.o(i.IIC_delay)
    IIC_delay                                0x08001959   Thumb Code     2  iic.o(i.IIC_delay)
    i.IMU                                    0x0800195c   Section        0  imu.o(i.IMU)
    i.MPU6050_Get_Gyroscope                  0x0800197c   Section        0  mpu6050.o(i.MPU6050_Get_Gyroscope)
    i.MPU6050_Init                           0x080019cc   Section        0  mpu6050.o(i.MPU6050_Init)
    i.MPU6050_Read_Byte                      0x08001a42   Section        0  mpu6050.o(i.MPU6050_Read_Byte)
    i.MPU6050_Read_Len                       0x08001a7c   Section        0  mpu6050.o(i.MPU6050_Read_Len)
    i.MPU6050_Set_Accel_Fsr                  0x08001af0   Section        0  mpu6050.o(i.MPU6050_Set_Accel_Fsr)
    i.MPU6050_Set_Gyro_Fsr                   0x08001b00   Section        0  mpu6050.o(i.MPU6050_Set_Gyro_Fsr)
    i.MPU6050_Set_LPF                        0x08001b10   Section        0  mpu6050.o(i.MPU6050_Set_LPF)
    i.MPU6050_Set_Rate                       0x08001b4a   Section        0  mpu6050.o(i.MPU6050_Set_Rate)
    i.MPU6050_Write_Byte                     0x08001b84   Section        0  mpu6050.o(i.MPU6050_Write_Byte)
    i.MPU6050_Write_Len                      0x08001bc8   Section        0  mpu6050.o(i.MPU6050_Write_Len)
    i.MemManage_Handler                      0x08001c28   Section        0  stm32f10x_it.o(i.MemManage_Handler)
    i.NMI_Handler                            0x08001c2c   Section        0  stm32f10x_it.o(i.NMI_Handler)
    i.NRF24L01Init                           0x08001c30   Section        0  nrf24l01.o(i.NRF24L01Init)
    i.NRF24L01ReceiveMode                    0x08001c7c   Section        0  nrf24l01.o(i.NRF24L01ReceiveMode)
    i.NRF24L01_Check                         0x08001cec   Section        0  nrf24l01.o(i.NRF24L01_Check)
    i.NRF24L01_RxPacket                      0x08001d38   Section        0  nrf24l01.o(i.NRF24L01_RxPacket)
    i.NVIC_Init                              0x08001d6c   Section        0  misc.o(i.NVIC_Init)
    i.NVIC_PriorityGroupConfig               0x08001ddc   Section        0  misc.o(i.NVIC_PriorityGroupConfig)
    i.NVIC_config                            0x08001df0   Section        0  nvic.o(i.NVIC_config)
    i.NrfACKPacket                           0x08001e34   Section        0  parse_packet.o(i.NrfACKPacket)
    i.PendSV_Handler                         0x08001e88   Section        0  stm32f10x_it.o(i.PendSV_Handler)
    i.PidController                          0x08001e8a   Section        0  pid.o(i.PidController)
    i.PidDataReadFromFlash                   0x08001f2e   Section        0  flash.o(i.PidDataReadFromFlash)
    i.PidDataSend                            0x0800202e   Section        0  usart2.o(i.PidDataSend)
    PidDataSend                              0x0800202f   Thumb Code   154  usart2.o(i.PidDataSend)
    i.PidDataWriteToFlash                    0x080020c8   Section        0  flash.o(i.PidDataWriteToFlash)
    i.PidInit                                0x08002224   Section        0  pid.o(i.PidInit)
    i.PlaneLockStatus                        0x08002268   Section        0  fc_status.o(i.PlaneLockStatus)
    i.PwmInit                                0x08002348   Section        0  pwm.o(i.PwmInit)
    i.PwmOut                                 0x08002428   Section        0  pwm.o(i.PwmOut)
    i.RCC_ADCCLKConfig                       0x08002484   Section        0  stm32f10x_rcc.o(i.RCC_ADCCLKConfig)
    i.RCC_AHBPeriphClockCmd                  0x0800249c   Section        0  stm32f10x_rcc.o(i.RCC_AHBPeriphClockCmd)
    i.RCC_APB1PeriphClockCmd                 0x080024bc   Section        0  stm32f10x_rcc.o(i.RCC_APB1PeriphClockCmd)
    i.RCC_APB2PeriphClockCmd                 0x080024dc   Section        0  stm32f10x_rcc.o(i.RCC_APB2PeriphClockCmd)
    i.RCC_GetClocksFreq                      0x080024fc   Section        0  stm32f10x_rcc.o(i.RCC_GetClocksFreq)
    i.RGB_LED_Blue                           0x080025d0   Section        0  led.o(i.RGB_LED_Blue)
    i.RGB_LED_Green                          0x080025ea   Section        0  led.o(i.RGB_LED_Green)
    i.RGB_LED_Red                            0x08002604   Section        0  led.o(i.RGB_LED_Red)
    i.RGB_LED_Reset                          0x08002620   Section        0  led.o(i.RGB_LED_Reset)
    i.RGB_LED_Write0                         0x08002638   Section        0  led.o(i.RGB_LED_Write0)
    i.RGB_LED_Write1                         0x080026ec   Section        0  led.o(i.RGB_LED_Write1)
    i.RGB_LED_Write_24Bits                   0x08002798   Section        0  led.o(i.RGB_LED_Write_24Bits)
    i.RGB_LED_Write_Byte                     0x080027b4   Section        0  led.o(i.RGB_LED_Write_Byte)
    i.RGB_LedBlink                           0x080027dc   Section        0  led.o(i.RGB_LedBlink)
    i.RGB_LedInit                            0x08002844   Section        0  led.o(i.RGB_LedInit)
    i.RGB_LedStatus                          0x08002880   Section        0  led.o(i.RGB_LedStatus)
    i.SDA_IN                                 0x080028e4   Section        0  iic.o(i.SDA_IN)
    i.SDA_OUT                                0x08002900   Section        0  iic.o(i.SDA_OUT)
    i.SPI_Cmd                                0x08002924   Section        0  stm32f10x_spi.o(i.SPI_Cmd)
    i.SPI_I2S_GetFlagStatus                  0x0800293c   Section        0  stm32f10x_spi.o(i.SPI_I2S_GetFlagStatus)
    i.SPI_I2S_ReceiveData                    0x0800294e   Section        0  stm32f10x_spi.o(i.SPI_I2S_ReceiveData)
    i.SPI_I2S_SendData                       0x08002954   Section        0  stm32f10x_spi.o(i.SPI_I2S_SendData)
    i.SPI_Init                               0x08002958   Section        0  stm32f10x_spi.o(i.SPI_Init)
    i.SPI_Read_Buf                           0x08002994   Section        0  nrf24l01.o(i.SPI_Read_Buf)
    i.SPI_Read_Reg                           0x080029d4   Section        0  nrf24l01.o(i.SPI_Read_Reg)
    i.SPI_Write_Buf                          0x08002a00   Section        0  nrf24l01.o(i.SPI_Write_Buf)
    i.SPI_Write_Reg                          0x08002a40   Section        0  nrf24l01.o(i.SPI_Write_Reg)
    i.STM32_FLASH_Read                       0x08002a6c   Section        0  flash.o(i.STM32_FLASH_Read)
    i.SVC_Handler                            0x08002a86   Section        0  stm32f10x_it.o(i.SVC_Handler)
    i.SetSysClock                            0x08002a88   Section        0  system_stm32f10x.o(i.SetSysClock)
    SetSysClock                              0x08002a89   Thumb Code     8  system_stm32f10x.o(i.SetSysClock)
    i.SetSysClockTo72                        0x08002a90   Section        0  system_stm32f10x.o(i.SetSysClockTo72)
    SetSysClockTo72                          0x08002a91   Thumb Code   214  system_stm32f10x.o(i.SetSysClockTo72)
    i.SpiInit                                0x08002b70   Section        0  spi.o(i.SpiInit)
    i.Spi_RW_Byte                            0x08002c18   Section        0  spi.o(i.Spi_RW_Byte)
    i.SysTick_Handler                        0x08002c50   Section        0  systick.o(i.SysTick_Handler)
    i.SystemInit                             0x08002c68   Section        0  system_stm32f10x.o(i.SystemInit)
    i.SystickInit                            0x08002cc8   Section        0  systick.o(i.SystickInit)
    i.TIM3_IRQHandler                        0x08002cf8   Section        0  timer.o(i.TIM3_IRQHandler)
    i.TIM_ARRPreloadConfig                   0x08002d94   Section        0  stm32f10x_tim.o(i.TIM_ARRPreloadConfig)
    i.TIM_ClearFlag                          0x08002dac   Section        0  stm32f10x_tim.o(i.TIM_ClearFlag)
    i.TIM_Cmd                                0x08002db2   Section        0  stm32f10x_tim.o(i.TIM_Cmd)
    i.TIM_CtrlPWMOutputs                     0x08002dca   Section        0  stm32f10x_tim.o(i.TIM_CtrlPWMOutputs)
    i.TIM_ITConfig                           0x08002de8   Section        0  stm32f10x_tim.o(i.TIM_ITConfig)
    i.TIM_OC1Init                            0x08002dfc   Section        0  stm32f10x_tim.o(i.TIM_OC1Init)
    i.TIM_OC1PreloadConfig                   0x08002e94   Section        0  stm32f10x_tim.o(i.TIM_OC1PreloadConfig)
    i.TIM_OC2Init                            0x08002ea8   Section        0  stm32f10x_tim.o(i.TIM_OC2Init)
    i.TIM_OC2PreloadConfig                   0x08002f4c   Section        0  stm32f10x_tim.o(i.TIM_OC2PreloadConfig)
    i.TIM_OC3Init                            0x08002f68   Section        0  stm32f10x_tim.o(i.TIM_OC3Init)
    i.TIM_OC3PreloadConfig                   0x08003008   Section        0  stm32f10x_tim.o(i.TIM_OC3PreloadConfig)
    i.TIM_OC4Init                            0x0800301c   Section        0  stm32f10x_tim.o(i.TIM_OC4Init)
    i.TIM_OC4PreloadConfig                   0x08003098   Section        0  stm32f10x_tim.o(i.TIM_OC4PreloadConfig)
    i.TIM_TimeBaseInit                       0x080030b4   Section        0  stm32f10x_tim.o(i.TIM_TimeBaseInit)
    i.ThrottleLimit                          0x08003158   Section        0  imath.o(i.ThrottleLimit)
    i.TimerInit                              0x08003168   Section        0  timer.o(i.TimerInit)
    i.TopLedColorSet                         0x080031b4   Section        0  led.o(i.TopLedColorSet)
    i.USART2_IRQHandler                      0x0800321c   Section        0  usart2.o(i.USART2_IRQHandler)
    i.USART_ClearFlag                        0x08003240   Section        0  stm32f10x_usart.o(i.USART_ClearFlag)
    i.USART_Cmd                              0x08003252   Section        0  stm32f10x_usart.o(i.USART_Cmd)
    i.USART_DMACmd                           0x0800326a   Section        0  stm32f10x_usart.o(i.USART_DMACmd)
    i.USART_GetFlagStatus                    0x0800327c   Section        0  stm32f10x_usart.o(i.USART_GetFlagStatus)
    i.USART_GetITStatus                      0x08003296   Section        0  stm32f10x_usart.o(i.USART_GetITStatus)
    i.USART_ITConfig                         0x080032ea   Section        0  stm32f10x_usart.o(i.USART_ITConfig)
    i.USART_Init                             0x08003334   Section        0  stm32f10x_usart.o(i.USART_Init)
    i.USART_ReceiveData                      0x0800340c   Section        0  stm32f10x_usart.o(i.USART_ReceiveData)
    i.UnusualProtect                         0x08003418   Section        0  controller.o(i.UnusualProtect)
    i.UsageFault_Handler                     0x08003464   Section        0  stm32f10x_it.o(i.UsageFault_Handler)
    i.Usart2DmaConfig                        0x08003468   Section        0  usart2.o(i.Usart2DmaConfig)
    Usart2DmaConfig                          0x08003469   Thumb Code    74  usart2.o(i.Usart2DmaConfig)
    i.Usart2Init                             0x080034b4   Section        0  usart2.o(i.Usart2Init)
    i.Usart2Send                             0x08003540   Section        0  usart2.o(i.Usart2Send)
    Usart2Send                               0x08003541   Thumb Code    50  usart2.o(i.Usart2Send)
    i.UsartDMASendData                       0x08003578   Section        0  usart2.o(i.UsartDMASendData)
    UsartDMASendData                         0x08003579   Thumb Code    56  usart2.o(i.UsartDMASendData)
    i.VoltageDetect                          0x080035b8   Section        0  adc.o(i.VoltageDetect)
    i.__ARM_fpclassify                       0x08003654   Section        0  fpclassify.o(i.__ARM_fpclassify)
    i.__kernel_poly                          0x0800367c   Section        0  poly.o(i.__kernel_poly)
    i.__mathlib_dbl_infnan                   0x08003726   Section        0  dunder.o(i.__mathlib_dbl_infnan)
    i.__mathlib_dbl_infnan2                  0x0800372c   Section        0  dunder.o(i.__mathlib_dbl_infnan2)
    i.__mathlib_dbl_invalid                  0x08003730   Section        0  dunder.o(i.__mathlib_dbl_invalid)
    i.__mathlib_dbl_underflow                0x0800373c   Section        0  dunder.o(i.__mathlib_dbl_underflow)
    i._controller_perform                    0x0800374c   Section        0  controller.o(i._controller_perform)
    i.accel_self_test                        0x08003770   Section        0  inv_mpu.o(i.accel_self_test)
    accel_self_test                          0x08003771   Thumb Code   168  inv_mpu.o(i.accel_self_test)
    i.adc_config                             0x0800381c   Section        0  adc.o(i.adc_config)
    i.adc_gpio_init                          0x080038a8   Section        0  adc.o(i.adc_gpio_init)
    i.asin                                   0x080038cc   Section        0  asin.o(i.asin)
    i.atan                                   0x08003b3c   Section        0  atan.o(i.atan)
    i.atan2                                  0x08003d5c   Section        0  atan2.o(i.atan2)
    i.decode_gesture                         0x08003edc   Section        0  inv_mpu_dmp_motion_driver.o(i.decode_gesture)
    decode_gesture                           0x08003edd   Thumb Code    94  inv_mpu_dmp_motion_driver.o(i.decode_gesture)
    i.delay_ms                               0x08003f40   Section        0  systick.o(i.delay_ms)
    i.delay_us                               0x08003f84   Section        0  systick.o(i.delay_us)
    i.direction_to_zero                      0x08003fc0   Section        0  imath.o(i.direction_to_zero)
    i.dmp_enable_6x_lp_quat                  0x08003fe2   Section        0  inv_mpu_dmp_motion_driver.o(i.dmp_enable_6x_lp_quat)
    i.dmp_enable_feature                     0x08004020   Section        0  inv_mpu_dmp_motion_driver.o(i.dmp_enable_feature)
    i.dmp_enable_gyro_cal                    0x0800423c   Section        0  inv_mpu_dmp_motion_driver.o(i.dmp_enable_gyro_cal)
    i.dmp_enable_lp_quat                     0x08004294   Section        0  inv_mpu_dmp_motion_driver.o(i.dmp_enable_lp_quat)
    i.dmp_load_motion_driver_firmware        0x080042d0   Section        0  inv_mpu_dmp_motion_driver.o(i.dmp_load_motion_driver_firmware)
    i.dmp_read_fifo                          0x080042e8   Section        0  inv_mpu_dmp_motion_driver.o(i.dmp_read_fifo)
    i.dmp_set_accel_bias                     0x080044b4   Section        0  inv_mpu_dmp_motion_driver.o(i.dmp_set_accel_bias)
    i.dmp_set_fifo_rate                      0x080045e4   Section        0  inv_mpu_dmp_motion_driver.o(i.dmp_set_fifo_rate)
    i.dmp_set_gyro_bias                      0x08004654   Section        0  inv_mpu_dmp_motion_driver.o(i.dmp_set_gyro_bias)
    i.dmp_set_orientation                    0x08004784   Section        0  inv_mpu_dmp_motion_driver.o(i.dmp_set_orientation)
    i.dmp_set_shake_reject_thresh            0x080048bc   Section        0  inv_mpu_dmp_motion_driver.o(i.dmp_set_shake_reject_thresh)
    i.dmp_set_shake_reject_time              0x080048f4   Section        0  inv_mpu_dmp_motion_driver.o(i.dmp_set_shake_reject_time)
    i.dmp_set_shake_reject_timeout           0x0800491a   Section        0  inv_mpu_dmp_motion_driver.o(i.dmp_set_shake_reject_timeout)
    i.dmp_set_tap_axes                       0x08004940   Section        0  inv_mpu_dmp_motion_driver.o(i.dmp_set_tap_axes)
    i.dmp_set_tap_count                      0x08004986   Section        0  inv_mpu_dmp_motion_driver.o(i.dmp_set_tap_count)
    i.dmp_set_tap_thresh                     0x080049ac   Section        0  inv_mpu_dmp_motion_driver.o(i.dmp_set_tap_thresh)
    i.dmp_set_tap_time                       0x08004b4c   Section        0  inv_mpu_dmp_motion_driver.o(i.dmp_set_tap_time)
    i.dmp_set_tap_time_multi                 0x08004b72   Section        0  inv_mpu_dmp_motion_driver.o(i.dmp_set_tap_time_multi)
    i.get_accel_prod_shift                   0x08004b98   Section        0  inv_mpu.o(i.get_accel_prod_shift)
    get_accel_prod_shift                     0x08004b99   Thumb Code   168  inv_mpu.o(i.get_accel_prod_shift)
    i.get_st_biases                          0x08004c4c   Section        0  inv_mpu.o(i.get_st_biases)
    get_st_biases                            0x08004c4d   Thumb Code  1132  inv_mpu.o(i.get_st_biases)
    i.gyro_self_test                         0x080050bc   Section        0  inv_mpu.o(i.gyro_self_test)
    gyro_self_test                           0x080050bd   Thumb Code   262  inv_mpu.o(i.gyro_self_test)
    i.inv_orientation_matrix_to_scalar       0x080051d4   Section        0  inv_mpu.o(i.inv_orientation_matrix_to_scalar)
    i.inv_row_2_scale                        0x080051fc   Section        0  inv_mpu.o(i.inv_row_2_scale)
    i.main                                   0x0800524a   Section        0  main.o(i.main)
    i.mget_ms                                0x080052e0   Section        0  inv_mpu.o(i.mget_ms)
    i.mpu_configure_fifo                     0x080052e4   Section        0  inv_mpu.o(i.mpu_configure_fifo)
    i.mpu_dmp_get_data                       0x08005354   Section        0  inv_mpu.o(i.mpu_dmp_get_data)
    i.mpu_dmp_init                           0x08005578   Section        0  inv_mpu.o(i.mpu_dmp_init)
    i.mpu_get_accel_fsr                      0x08005614   Section        0  inv_mpu.o(i.mpu_get_accel_fsr)
    i.mpu_get_accel_sens                     0x08005660   Section        0  inv_mpu.o(i.mpu_get_accel_sens)
    i.mpu_get_fifo_config                    0x080056b4   Section        0  inv_mpu.o(i.mpu_get_fifo_config)
    i.mpu_get_gyro_fsr                       0x080056c4   Section        0  inv_mpu.o(i.mpu_get_gyro_fsr)
    i.mpu_get_gyro_sens                      0x08005708   Section        0  inv_mpu.o(i.mpu_get_gyro_sens)
    i.mpu_get_lpf                            0x08005758   Section        0  inv_mpu.o(i.mpu_get_lpf)
    i.mpu_get_sample_rate                    0x080057a8   Section        0  inv_mpu.o(i.mpu_get_sample_rate)
    i.mpu_init                               0x080057c8   Section        0  inv_mpu.o(i.mpu_init)
    i.mpu_load_firmware                      0x08005958   Section        0  inv_mpu.o(i.mpu_load_firmware)
    i.mpu_lp_accel_mode                      0x08005a10   Section        0  inv_mpu.o(i.mpu_lp_accel_mode)
    i.mpu_read_fifo_stream                   0x08005af0   Section        0  inv_mpu.o(i.mpu_read_fifo_stream)
    i.mpu_read_mem                           0x08005bb0   Section        0  inv_mpu.o(i.mpu_read_mem)
    i.mpu_reset_fifo                         0x08005c30   Section        0  inv_mpu.o(i.mpu_reset_fifo)
    i.mpu_run_self_test                      0x08005df8   Section        0  inv_mpu.o(i.mpu_run_self_test)
    i.mpu_set_accel_fsr                      0x08005f14   Section        0  inv_mpu.o(i.mpu_set_accel_fsr)
    i.mpu_set_bypass                         0x08005f98   Section        0  inv_mpu.o(i.mpu_set_bypass)
    i.mpu_set_dmp_state                      0x080060e4   Section        0  inv_mpu.o(i.mpu_set_dmp_state)
    i.mpu_set_gyro_fsr                       0x08006174   Section        0  inv_mpu.o(i.mpu_set_gyro_fsr)
    i.mpu_set_int_latched                    0x080061fc   Section        0  inv_mpu.o(i.mpu_set_int_latched)
    i.mpu_set_lpf                            0x08006268   Section        0  inv_mpu.o(i.mpu_set_lpf)
    i.mpu_set_sample_rate                    0x080062ec   Section        0  inv_mpu.o(i.mpu_set_sample_rate)
    i.mpu_set_sensors                        0x08006388   Section        0  inv_mpu.o(i.mpu_set_sensors)
    i.mpu_write_mem                          0x08006458   Section        0  inv_mpu.o(i.mpu_write_mem)
    i.nrf_parse_packet                       0x080064d8   Section        0  parse_packet.o(i.nrf_parse_packet)
    i.run_self_test                          0x080065ec   Section        0  inv_mpu.o(i.run_self_test)
    i.set_int_enable                         0x08006680   Section        0  inv_mpu.o(i.set_int_enable)
    set_int_enable                           0x08006681   Thumb Code   138  inv_mpu.o(i.set_int_enable)
    i.sqrt                                   0x08006710   Section        0  sqrt.o(i.sqrt)
    i.time_check                             0x0800675c   Section        0  timer.o(i.time_check)
    i.wait_pairing                           0x080067a0   Section        0  pair_freq.o(i.wait_pairing)
    x$fpl$d2f                                0x08006844   Section       98  d2f.o(x$fpl$d2f)
    x$fpl$dadd                               0x080068a8   Section      336  daddsub_clz.o(x$fpl$dadd)
    _dadd1                                   0x080068b9   Thumb Code     0  daddsub_clz.o(x$fpl$dadd)
    x$fpl$dcheck1                            0x080069f8   Section       16  dcheck1.o(x$fpl$dcheck1)
    x$fpl$ddiv                               0x08006a08   Section      688  ddiv.o(x$fpl$ddiv)
    ddiv_entry                               0x08006a0f   Thumb Code     0  ddiv.o(x$fpl$ddiv)
    x$fpl$dflt                               0x08006cb8   Section       46  dflt_clz.o(x$fpl$dflt)
    x$fpl$dmul                               0x08006ce8   Section      340  dmul.o(x$fpl$dmul)
    x$fpl$dnaninf                            0x08006e3c   Section      156  dnaninf.o(x$fpl$dnaninf)
    x$fpl$dretinf                            0x08006ed8   Section       12  dretinf.o(x$fpl$dretinf)
    x$fpl$drsb                               0x08006ee4   Section       22  daddsub_clz.o(x$fpl$drsb)
    x$fpl$dsqrt                              0x08006efc   Section      460  dsqrt_noumaal.o(x$fpl$dsqrt)
    x$fpl$dsub                               0x080070c8   Section      468  daddsub_clz.o(x$fpl$dsub)
    _dsub1                                   0x080070d9   Thumb Code     0  daddsub_clz.o(x$fpl$dsub)
    x$fpl$f2d                                0x0800729c   Section       86  f2d.o(x$fpl$f2d)
    x$fpl$fadd                               0x080072f4   Section      196  faddsub_clz.o(x$fpl$fadd)
    _fadd1                                   0x08007303   Thumb Code     0  faddsub_clz.o(x$fpl$fadd)
    x$fpl$fcmpinf                            0x080073b8   Section       24  fcmpi.o(x$fpl$fcmpinf)
    x$fpl$fdiv                               0x080073d0   Section      388  fdiv.o(x$fpl$fdiv)
    _fdiv1                                   0x080073d1   Thumb Code     0  fdiv.o(x$fpl$fdiv)
    x$fpl$feqf                               0x08007554   Section      104  feqf.o(x$fpl$feqf)
    x$fpl$ffix                               0x080075bc   Section       54  ffix.o(x$fpl$ffix)
    x$fpl$ffixu                              0x080075f4   Section       62  ffixu.o(x$fpl$ffixu)
    x$fpl$fflt                               0x08007634   Section       48  fflt_clz.o(x$fpl$fflt)
    x$fpl$ffltu                              0x08007664   Section       38  fflt_clz.o(x$fpl$ffltu)
    x$fpl$fleqf                              0x0800768c   Section      104  fleqf.o(x$fpl$fleqf)
    x$fpl$fmul                               0x080076f4   Section      258  fmul.o(x$fpl$fmul)
    x$fpl$fnaninf                            0x080077f6   Section      140  fnaninf.o(x$fpl$fnaninf)
    x$fpl$fretinf                            0x08007882   Section       10  fretinf.o(x$fpl$fretinf)
    x$fpl$frleqf                             0x0800788c   Section       98  frleqf.o(x$fpl$frleqf)
    x$fpl$fsub                               0x080078f0   Section      234  faddsub_clz.o(x$fpl$fsub)
    _fsub1                                   0x080078ff   Thumb Code     0  faddsub_clz.o(x$fpl$fsub)
    x$fpl$retnan                             0x080079da   Section      100  retnan.o(x$fpl$retnan)
    x$fpl$scalbn                             0x08007a3e   Section       92  scalbn.o(x$fpl$scalbn)
    x$fpl$trapveneer                         0x08007a9a   Section       48  trapv.o(x$fpl$trapveneer)
    x$fpl$usenofp                            0x08007aca   Section        0  usenofp.o(x$fpl$usenofp)
    .constdata                               0x08007acc   Section      300  pid.o(.constdata)
    .constdata                               0x08007bf8   Section       80  inv_mpu.o(.constdata)
    .constdata                               0x08007c48   Section     3062  inv_mpu_dmp_motion_driver.o(.constdata)
    dmp_memory                               0x08007c48   Data        3062  inv_mpu_dmp_motion_driver.o(.constdata)
    .constdata                               0x08008840   Section       80  asin.o(.constdata)
    pS                                       0x08008840   Data          48  asin.o(.constdata)
    qS                                       0x08008870   Data          32  asin.o(.constdata)
    .constdata                               0x08008890   Section      152  atan.o(.constdata)
    atanhi                                   0x08008890   Data          32  atan.o(.constdata)
    atanlo                                   0x080088b0   Data          32  atan.o(.constdata)
    aTodd                                    0x080088d0   Data          40  atan.o(.constdata)
    aTeven                                   0x080088f8   Data          48  atan.o(.constdata)
    .constdata                               0x08008928   Section        8  qnan.o(.constdata)
    .data                                    0x20000000   Section       20  system_stm32f10x.o(.data)
    .data                                    0x20000014   Section        4  systick.o(.data)
    .data                                    0x20000018   Section        4  led.o(.data)
    .data                                    0x2000001c   Section        4  pwm.o(.data)
    .data                                    0x20000020   Section        3  flash.o(.data)
    .data                                    0x20000023   Section        6  pair_freq.o(.data)
    .data                                    0x2000002c   Section       12  adc.o(.data)
    temp                                     0x20000034   Data           4  adc.o(.data)
    .data                                    0x20000038   Section        4  pid.o(.data)
    .data                                    0x2000003c   Section        4  timer.o(.data)
    .data                                    0x20000040   Section       22  controller.o(.data)
    yaw_init_cnt                             0x20000054   Data           2  controller.o(.data)
    .data                                    0x20000056   Section        3  usart2.o(.data)
    dataLen                                  0x20000056   Data           1  usart2.o(.data)
    cnt                                      0x20000057   Data           1  usart2.o(.data)
    state                                    0x20000058   Data           1  usart2.o(.data)
    .data                                    0x2000005c   Section       53  inv_mpu.o(.data)
    st                                       0x2000005c   Data          44  inv_mpu.o(.data)
    gyro_orientation                         0x20000088   Data           9  inv_mpu.o(.data)
    .data                                    0x20000091   Section       20  stm32f10x_rcc.o(.data)
    APBAHBPrescTable                         0x20000091   Data          16  stm32f10x_rcc.o(.data)
    ADCPrescTable                            0x200000a1   Data           4  stm32f10x_rcc.o(.data)
    .bss                                     0x200000a8   Section       36  mpu6050.o(.bss)
    .bss                                     0x200000cc   Section       60  parse_packet.o(.bss)
    .bss                                     0x20000108   Section      660  pid.o(.bss)
    .bss                                     0x2000039c   Section       32  timer.o(.bss)
    .bss                                     0x200003bc   Section       28  imu.o(.bss)
    .bss                                     0x200003d8   Section       50  usart2.o(.bss)
    receiveBuffer                            0x200003d8   Data          50  usart2.o(.bss)
    .bss                                     0x2000040c   Section       16  inv_mpu_dmp_motion_driver.o(.bss)
    dmp                                      0x2000040c   Data          16  inv_mpu_dmp_motion_driver.o(.bss)
    .bss                                     0x2000041c   Section       96  libspace.o(.bss)
    HEAP                                     0x20000480   Section      512  startup_stm32f10x_md.o(HEAP)
    Heap_Mem                                 0x20000480   Data         512  startup_stm32f10x_md.o(HEAP)
    STACK                                    0x20000680   Section     1024  startup_stm32f10x_md.o(STACK)
    Stack_Mem                                0x20000680   Data        1024  startup_stm32f10x_md.o(STACK)
    __initial_sp                             0x20000a80   Data           0  startup_stm32f10x_md.o(STACK)

    Global Symbols

    Symbol Name                              Value     Ov Type        Size  Object(Section)

    BuildAttributes$$THM_ISAv4$P$D$K$B$S$PE$A:L22UL41UL21$X:L11$S22US41US21$IEEE1$IW$USESV6$~STKCKD$USESV7$~SHL$OTIME$ROPI$IEEEX$EBA8$UX$STANDARDLIB$REQ8$PRES8$EABIv2 0x00000000   Number         0  anon$$obj.o ABSOLUTE
    __ARM_use_no_argv                        0x00000000   Number         0  main.o ABSOLUTE
    _printf_flags                            0x00000000   Number         0  printf_stubs.o ABSOLUTE
    _printf_return_value                     0x00000000   Number         0  printf_stubs.o ABSOLUTE
    _printf_sizespec                         0x00000000   Number         0  printf_stubs.o ABSOLUTE
    _printf_widthprec                        0x00000000   Number         0  printf_stubs.o ABSOLUTE
    __ARM_exceptions_init                     - Undefined Weak Reference
    __alloca_initialize                       - Undefined Weak Reference
    __arm_preinit_                            - Undefined Weak Reference
    __cpp_initialize__aeabi_                  - Undefined Weak Reference
    __cxa_finalize                            - Undefined Weak Reference
    __rt_locale                               - Undefined Weak Reference
    __sigvec_lookup                           - Undefined Weak Reference
    __user_heap_extent                        - Undefined Weak Reference
    _atexit_init                              - Undefined Weak Reference
    _call_atexit_fns                          - Undefined Weak Reference
    _clock_init                               - Undefined Weak Reference
    _fp_trap_init                             - Undefined Weak Reference
    _fp_trap_shutdown                         - Undefined Weak Reference
    _get_lc_collate                           - Undefined Weak Reference
    _get_lc_ctype                             - Undefined Weak Reference
    _get_lc_monetary                          - Undefined Weak Reference
    _get_lc_numeric                           - Undefined Weak Reference
    _get_lc_time                              - Undefined Weak Reference
    _getenv_init                              - Undefined Weak Reference
    _handle_redirection                       - Undefined Weak Reference
    _mutex_acquire                            - Undefined Weak Reference
    _mutex_free                               - Undefined Weak Reference
    _mutex_release                            - Undefined Weak Reference
    _printf_truncate_unsigned                 - Undefined Weak Reference
    _rand_init                                - Undefined Weak Reference
    _signal_finish                            - Undefined Weak Reference
    _signal_init                              - Undefined Weak Reference
    __Vectors_Size                           0x000000ec   Number         0  startup_stm32f10x_md.o ABSOLUTE
    __Vectors                                0x08000000   Data           4  startup_stm32f10x_md.o(RESET)
    __Vectors_End                            0x080000ec   Data           0  startup_stm32f10x_md.o(RESET)
    __main                                   0x080000ed   Thumb Code     8  __main.o(!!!main)
    __scatterload                            0x080000f5   Thumb Code     0  __scatter.o(!!!scatter)
    __scatterload_rt2                        0x080000f5   Thumb Code    44  __scatter.o(!!!scatter)
    __scatterload_rt2_thumb_only             0x080000f5   Thumb Code     0  __scatter.o(!!!scatter)
    __scatterload_null                       0x08000103   Thumb Code     0  __scatter.o(!!!scatter)
    __scatterload_copy                       0x08000129   Thumb Code    26  __scatter_copy.o(!!handler_copy)
    __scatterload_zeroinit                   0x08000145   Thumb Code    28  __scatter_zi.o(!!handler_zi)
    __rt_lib_init                            0x08000161   Thumb Code     0  libinit.o(.ARM.Collect$$libinit$$00000000)
    __rt_lib_init_alloca_1                   0x08000163   Thumb Code     0  libinit2.o(.ARM.Collect$$libinit$$0000002E)
    __rt_lib_init_argv_1                     0x08000163   Thumb Code     0  libinit2.o(.ARM.Collect$$libinit$$0000002C)
    __rt_lib_init_atexit_1                   0x08000163   Thumb Code     0  libinit2.o(.ARM.Collect$$libinit$$0000001B)
    __rt_lib_init_clock_1                    0x08000163   Thumb Code     0  libinit2.o(.ARM.Collect$$libinit$$00000021)
    __rt_lib_init_cpp_1                      0x08000163   Thumb Code     0  libinit2.o(.ARM.Collect$$libinit$$00000032)
    __rt_lib_init_exceptions_1               0x08000163   Thumb Code     0  libinit2.o(.ARM.Collect$$libinit$$00000030)
    __rt_lib_init_fp_1                       0x08000163   Thumb Code     0  libinit2.o(.ARM.Collect$$libinit$$00000002)
    __rt_lib_init_fp_trap_1                  0x08000163   Thumb Code     0  libinit2.o(.ARM.Collect$$libinit$$0000001F)
    __rt_lib_init_getenv_1                   0x08000163   Thumb Code     0  libinit2.o(.ARM.Collect$$libinit$$00000023)
    __rt_lib_init_heap_1                     0x08000163   Thumb Code     0  libinit2.o(.ARM.Collect$$libinit$$0000000A)
    __rt_lib_init_lc_collate_1               0x08000163   Thumb Code     0  libinit2.o(.ARM.Collect$$libinit$$00000011)
    __rt_lib_init_lc_ctype_1                 0x08000163   Thumb Code     0  libinit2.o(.ARM.Collect$$libinit$$00000013)
    __rt_lib_init_lc_monetary_1              0x08000163   Thumb Code     0  libinit2.o(.ARM.Collect$$libinit$$00000015)
    __rt_lib_init_lc_numeric_1               0x08000163   Thumb Code     0  libinit2.o(.ARM.Collect$$libinit$$00000017)
    __rt_lib_init_lc_time_1                  0x08000163   Thumb Code     0  libinit2.o(.ARM.Collect$$libinit$$00000019)
    __rt_lib_init_preinit_1                  0x08000163   Thumb Code     0  libinit2.o(.ARM.Collect$$libinit$$00000004)
    __rt_lib_init_rand_1                     0x08000163   Thumb Code     0  libinit2.o(.ARM.Collect$$libinit$$0000000E)
    __rt_lib_init_return                     0x08000163   Thumb Code     0  libinit2.o(.ARM.Collect$$libinit$$00000033)
    __rt_lib_init_signal_1                   0x08000163   Thumb Code     0  libinit2.o(.ARM.Collect$$libinit$$0000001D)
    __rt_lib_init_stdio_1                    0x08000163   Thumb Code     0  libinit2.o(.ARM.Collect$$libinit$$00000025)
    __rt_lib_init_user_alloc_1               0x08000163   Thumb Code     0  libinit2.o(.ARM.Collect$$libinit$$0000000C)
    __rt_lib_shutdown                        0x08000165   Thumb Code     0  libshutdown.o(.ARM.Collect$$libshutdown$$00000000)
    __rt_lib_shutdown_cpp_1                  0x08000167   Thumb Code     0  libshutdown2.o(.ARM.Collect$$libshutdown$$00000002)
    __rt_lib_shutdown_fp_trap_1              0x08000167   Thumb Code     0  libshutdown2.o(.ARM.Collect$$libshutdown$$00000007)
    __rt_lib_shutdown_heap_1                 0x08000167   Thumb Code     0  libshutdown2.o(.ARM.Collect$$libshutdown$$0000000F)
    __rt_lib_shutdown_return                 0x08000167   Thumb Code     0  libshutdown2.o(.ARM.Collect$$libshutdown$$00000010)
    __rt_lib_shutdown_signal_1               0x08000167   Thumb Code     0  libshutdown2.o(.ARM.Collect$$libshutdown$$0000000A)
    __rt_lib_shutdown_stdio_1                0x08000167   Thumb Code     0  libshutdown2.o(.ARM.Collect$$libshutdown$$00000004)
    __rt_lib_shutdown_user_alloc_1           0x08000167   Thumb Code     0  libshutdown2.o(.ARM.Collect$$libshutdown$$0000000C)
    __rt_entry                               0x08000169   Thumb Code     0  __rtentry.o(.ARM.Collect$$rtentry$$00000000)
    __rt_entry_presh_1                       0x08000169   Thumb Code     0  __rtentry2.o(.ARM.Collect$$rtentry$$00000002)
    __rt_entry_sh                            0x08000169   Thumb Code     0  __rtentry4.o(.ARM.Collect$$rtentry$$00000004)
    __rt_entry_li                            0x0800016f   Thumb Code     0  __rtentry2.o(.ARM.Collect$$rtentry$$0000000A)
    __rt_entry_postsh_1                      0x0800016f   Thumb Code     0  __rtentry2.o(.ARM.Collect$$rtentry$$00000009)
    __rt_entry_main                          0x08000173   Thumb Code     0  __rtentry2.o(.ARM.Collect$$rtentry$$0000000D)
    __rt_entry_postli_1                      0x08000173   Thumb Code     0  __rtentry2.o(.ARM.Collect$$rtentry$$0000000C)
    __rt_exit                                0x0800017b   Thumb Code     0  rtexit.o(.ARM.Collect$$rtexit$$00000000)
    __rt_exit_ls                             0x0800017d   Thumb Code     0  rtexit2.o(.ARM.Collect$$rtexit$$00000003)
    __rt_exit_prels_1                        0x0800017d   Thumb Code     0  rtexit2.o(.ARM.Collect$$rtexit$$00000002)
    __rt_exit_exit                           0x08000181   Thumb Code     0  rtexit2.o(.ARM.Collect$$rtexit$$00000004)
    Reset_Handler                            0x08000189   Thumb Code     8  startup_stm32f10x_md.o(.text)
    ADC1_2_IRQHandler                        0x080001a3   Thumb Code     0  startup_stm32f10x_md.o(.text)
    CAN1_RX1_IRQHandler                      0x080001a3   Thumb Code     0  startup_stm32f10x_md.o(.text)
    CAN1_SCE_IRQHandler                      0x080001a3   Thumb Code     0  startup_stm32f10x_md.o(.text)
    DMA1_Channel1_IRQHandler                 0x080001a3   Thumb Code     0  startup_stm32f10x_md.o(.text)
    DMA1_Channel2_IRQHandler                 0x080001a3   Thumb Code     0  startup_stm32f10x_md.o(.text)
    DMA1_Channel3_IRQHandler                 0x080001a3   Thumb Code     0  startup_stm32f10x_md.o(.text)
    DMA1_Channel4_IRQHandler                 0x080001a3   Thumb Code     0  startup_stm32f10x_md.o(.text)
    DMA1_Channel5_IRQHandler                 0x080001a3   Thumb Code     0  startup_stm32f10x_md.o(.text)
    DMA1_Channel6_IRQHandler                 0x080001a3   Thumb Code     0  startup_stm32f10x_md.o(.text)
    DMA1_Channel7_IRQHandler                 0x080001a3   Thumb Code     0  startup_stm32f10x_md.o(.text)
    EXTI0_IRQHandler                         0x080001a3   Thumb Code     0  startup_stm32f10x_md.o(.text)
    EXTI15_10_IRQHandler                     0x080001a3   Thumb Code     0  startup_stm32f10x_md.o(.text)
    EXTI1_IRQHandler                         0x080001a3   Thumb Code     0  startup_stm32f10x_md.o(.text)
    EXTI2_IRQHandler                         0x080001a3   Thumb Code     0  startup_stm32f10x_md.o(.text)
    EXTI3_IRQHandler                         0x080001a3   Thumb Code     0  startup_stm32f10x_md.o(.text)
    EXTI4_IRQHandler                         0x080001a3   Thumb Code     0  startup_stm32f10x_md.o(.text)
    EXTI9_5_IRQHandler                       0x080001a3   Thumb Code     0  startup_stm32f10x_md.o(.text)
    FLASH_IRQHandler                         0x080001a3   Thumb Code     0  startup_stm32f10x_md.o(.text)
    I2C1_ER_IRQHandler                       0x080001a3   Thumb Code     0  startup_stm32f10x_md.o(.text)
    I2C1_EV_IRQHandler                       0x080001a3   Thumb Code     0  startup_stm32f10x_md.o(.text)
    I2C2_ER_IRQHandler                       0x080001a3   Thumb Code     0  startup_stm32f10x_md.o(.text)
    I2C2_EV_IRQHandler                       0x080001a3   Thumb Code     0  startup_stm32f10x_md.o(.text)
    PVD_IRQHandler                           0x080001a3   Thumb Code     0  startup_stm32f10x_md.o(.text)
    RCC_IRQHandler                           0x080001a3   Thumb Code     0  startup_stm32f10x_md.o(.text)
    RTCAlarm_IRQHandler                      0x080001a3   Thumb Code     0  startup_stm32f10x_md.o(.text)
    RTC_IRQHandler                           0x080001a3   Thumb Code     0  startup_stm32f10x_md.o(.text)
    SPI1_IRQHandler                          0x080001a3   Thumb Code     0  startup_stm32f10x_md.o(.text)
    SPI2_IRQHandler                          0x080001a3   Thumb Code     0  startup_stm32f10x_md.o(.text)
    TAMPER_IRQHandler                        0x080001a3   Thumb Code     0  startup_stm32f10x_md.o(.text)
    TIM1_BRK_IRQHandler                      0x080001a3   Thumb Code     0  startup_stm32f10x_md.o(.text)
    TIM1_CC_IRQHandler                       0x080001a3   Thumb Code     0  startup_stm32f10x_md.o(.text)
    TIM1_TRG_COM_IRQHandler                  0x080001a3   Thumb Code     0  startup_stm32f10x_md.o(.text)
    TIM1_UP_IRQHandler                       0x080001a3   Thumb Code     0  startup_stm32f10x_md.o(.text)
    TIM2_IRQHandler                          0x080001a3   Thumb Code     0  startup_stm32f10x_md.o(.text)
    TIM4_IRQHandler                          0x080001a3   Thumb Code     0  startup_stm32f10x_md.o(.text)
    USART1_IRQHandler                        0x080001a3   Thumb Code     0  startup_stm32f10x_md.o(.text)
    USART3_IRQHandler                        0x080001a3   Thumb Code     0  startup_stm32f10x_md.o(.text)
    USBWakeUp_IRQHandler                     0x080001a3   Thumb Code     0  startup_stm32f10x_md.o(.text)
    USB_HP_CAN1_TX_IRQHandler                0x080001a3   Thumb Code     0  startup_stm32f10x_md.o(.text)
    USB_LP_CAN1_RX0_IRQHandler               0x080001a3   Thumb Code     0  startup_stm32f10x_md.o(.text)
    WWDG_IRQHandler                          0x080001a3   Thumb Code     0  startup_stm32f10x_md.o(.text)
    __user_initial_stackheap                 0x080001a5   Thumb Code     0  startup_stm32f10x_md.o(.text)
    __aeabi_ldivmod                          0x080001c9   Thumb Code     0  llsdiv.o(.text)
    _ll_sdiv                                 0x080001c9   Thumb Code    72  llsdiv.o(.text)
    memcmp                                   0x08000211   Thumb Code    88  memcmp.o(.text)
    __aeabi_memcpy4                          0x08000269   Thumb Code     0  rt_memcpy_w.o(.text)
    __aeabi_memcpy8                          0x08000269   Thumb Code     0  rt_memcpy_w.o(.text)
    __rt_memcpy_w                            0x08000269   Thumb Code   100  rt_memcpy_w.o(.text)
    _memcpy_lastbytes_aligned                0x080002b1   Thumb Code     0  rt_memcpy_w.o(.text)
    __aeabi_memset                           0x080002cd   Thumb Code    16  aeabi_memset.o(.text)
    __aeabi_memclr4                          0x080002dd   Thumb Code     0  rt_memclr_w.o(.text)
    __aeabi_memclr8                          0x080002dd   Thumb Code     0  rt_memclr_w.o(.text)
    __rt_memclr_w                            0x080002dd   Thumb Code    78  rt_memclr_w.o(.text)
    _memset_w                                0x080002e1   Thumb Code     0  rt_memclr_w.o(.text)
    __use_two_region_memory                  0x0800032b   Thumb Code     2  heapauxi.o(.text)
    __rt_heap_escrow                         0x0800032d   Thumb Code     2  heapauxi.o(.text)
    __rt_heap_expand                         0x0800032f   Thumb Code     2  heapauxi.o(.text)
    __aeabi_uldivmod                         0x08000331   Thumb Code     0  lludivv7m.o(.text)
    _ll_udiv                                 0x08000331   Thumb Code   238  lludivv7m.o(.text)
    __read_errno                             0x0800041f   Thumb Code    10  _rserrno.o(.text)
    __set_errno                              0x08000429   Thumb Code    12  _rserrno.o(.text)
    __aeabi_memclr                           0x08000435   Thumb Code     0  rt_memclr.o(.text)
    __rt_memclr                              0x08000435   Thumb Code    68  rt_memclr.o(.text)
    _memset                                  0x08000439   Thumb Code     0  rt_memclr.o(.text)
    __aeabi_errno_addr                       0x08000479   Thumb Code     8  rt_errno_addr_intlibspace.o(.text)
    __errno$intlibspace                      0x08000479   Thumb Code     0  rt_errno_addr_intlibspace.o(.text)
    __rt_errno_addr$intlibspace              0x08000479   Thumb Code     0  rt_errno_addr_intlibspace.o(.text)
    __user_libspace                          0x08000481   Thumb Code     8  libspace.o(.text)
    __user_perproc_libspace                  0x08000481   Thumb Code     0  libspace.o(.text)
    __user_perthread_libspace                0x08000481   Thumb Code     0  libspace.o(.text)
    __user_setup_stackheap                   0x08000489   Thumb Code    74  sys_stackheap_outer.o(.text)
    exit                                     0x080004d3   Thumb Code    18  exit.o(.text)
    __I$use$semihosting                      0x080004e5   Thumb Code     0  use_no_semi.o(.text)
    __use_no_semihosting_swi                 0x080004e5   Thumb Code     2  use_no_semi.o(.text)
    __semihosting_library_function           0x080004e7   Thumb Code     0  indicate_semi.o(.text)
    _sys_exit                                0x080004e9   Thumb Code     8  sys_exit.o(.text)
    ADC_Cmd                                  0x080004f5   Thumb Code    22  stm32f10x_adc.o(i.ADC_Cmd)
    ADC_DMACmd                               0x0800050b   Thumb Code    22  stm32f10x_adc.o(i.ADC_DMACmd)
    ADC_GetCalibrationStatus                 0x08000521   Thumb Code    20  stm32f10x_adc.o(i.ADC_GetCalibrationStatus)
    ADC_Init                                 0x08000535   Thumb Code    70  stm32f10x_adc.o(i.ADC_Init)
    ADC_RegularChannelConfig                 0x08000585   Thumb Code   184  stm32f10x_adc.o(i.ADC_RegularChannelConfig)
    ADC_ResetCalibration                     0x0800063d   Thumb Code    10  stm32f10x_adc.o(i.ADC_ResetCalibration)
    ADC_SoftwareStartConvCmd                 0x08000647   Thumb Code    22  stm32f10x_adc.o(i.ADC_SoftwareStartConvCmd)
    ADC_StartCalibration                     0x0800065d   Thumb Code    10  stm32f10x_adc.o(i.ADC_StartCalibration)
    ANOSendStatus                            0x08000ae5   Thumb Code   322  usart2.o(i.ANOSendStatus)
    AdcInit                                  0x08000c7d   Thumb Code    20  adc.o(i.AdcInit)
    AllPidInit                               0x08000c95   Thumb Code   180  pid.o(i.AllPidInit)
    AngleController                          0x08000d5d   Thumb Code   132  controller.o(i.AngleController)
    BusFault_Handler                         0x08000df5   Thumb Code     4  stm32f10x_it.o(i.BusFault_Handler)
    ClearIntegral                            0x08000df9   Thumb Code     6  pid.o(i.ClearIntegral)
    ControModel                              0x08000e01   Thumb Code    40  controller.o(i.ControModel)
    ControllerOutput                         0x08000e39   Thumb Code   438  controller.o(i.ControllerOutput)
    DMA_Cmd                                  0x0800100d   Thumb Code    24  stm32f10x_dma.o(i.DMA_Cmd)
    DMA_DeInit                               0x08001025   Thumb Code   324  stm32f10x_dma.o(i.DMA_DeInit)
    DMA_Init                                 0x08001171   Thumb Code    60  stm32f10x_dma.o(i.DMA_Init)
    DMA_SetCurrDataCounter                   0x080011ad   Thumb Code     4  stm32f10x_dma.o(i.DMA_SetCurrDataCounter)
    DebugMon_Handler                         0x080013dd   Thumb Code     2  stm32f10x_it.o(i.DebugMon_Handler)
    DmaConfig                                0x080013e1   Thumb Code    78  adc.o(i.DmaConfig)
    FLASH_ClearFlag                          0x08001439   Thumb Code     6  stm32f10x_flash.o(i.FLASH_ClearFlag)
    FLASH_ErasePage                          0x08001445   Thumb Code    72  stm32f10x_flash.o(i.FLASH_ErasePage)
    FLASH_GetBank1Status                     0x08001491   Thumb Code    48  stm32f10x_flash.o(i.FLASH_GetBank1Status)
    FLASH_LockBank1                          0x080014c5   Thumb Code    14  stm32f10x_flash.o(i.FLASH_LockBank1)
    FLASH_ProgramWord                        0x080014d9   Thumb Code   102  stm32f10x_flash.o(i.FLASH_ProgramWord)
    FLASH_UnlockBank1                        0x08001545   Thumb Code    12  stm32f10x_flash.o(i.FLASH_UnlockBank1)
    FLASH_WaitForLastOperation               0x0800155d   Thumb Code    38  stm32f10x_flash.o(i.FLASH_WaitForLastOperation)
    GPIO_Init                                0x08001583   Thumb Code   278  stm32f10x_gpio.o(i.GPIO_Init)
    GPIO_ResetBits                           0x08001699   Thumb Code     4  stm32f10x_gpio.o(i.GPIO_ResetBits)
    GPIO_SetBits                             0x0800169d   Thumb Code     4  stm32f10x_gpio.o(i.GPIO_SetBits)
    GyroController                           0x080016a1   Thumb Code    68  controller.o(i.GyroController)
    GyroDataTransformDeg                     0x080016ed   Thumb Code    74  imu.o(i.GyroDataTransformDeg)
    HardFault_Handler                        0x0800173d   Thumb Code     4  stm32f10x_it.o(i.HardFault_Handler)
    IIC_Ack                                  0x08001741   Thumb Code    44  iic.o(i.IIC_Ack)
    IIC_Init                                 0x08001775   Thumb Code    64  iic.o(i.IIC_Init)
    IIC_NAck                                 0x080017c1   Thumb Code    44  iic.o(i.IIC_NAck)
    IIC_Read_Byte                            0x080017f5   Thumb Code    76  iic.o(i.IIC_Read_Byte)
    IIC_Send_Byte                            0x08001849   Thumb Code    84  iic.o(i.IIC_Send_Byte)
    IIC_Start                                0x080018a5   Thumb Code    42  iic.o(i.IIC_Start)
    IIC_Stop                                 0x080018d9   Thumb Code    42  iic.o(i.IIC_Stop)
    IIC_Wait_Ack                             0x0800190d   Thumb Code    68  iic.o(i.IIC_Wait_Ack)
    IMU                                      0x0800195d   Thumb Code    26  imu.o(i.IMU)
    MPU6050_Get_Gyroscope                    0x0800197d   Thumb Code    80  mpu6050.o(i.MPU6050_Get_Gyroscope)
    MPU6050_Init                             0x080019cd   Thumb Code   118  mpu6050.o(i.MPU6050_Init)
    MPU6050_Read_Byte                        0x08001a43   Thumb Code    58  mpu6050.o(i.MPU6050_Read_Byte)
    MPU6050_Read_Len                         0x08001a7d   Thumb Code   116  mpu6050.o(i.MPU6050_Read_Len)
    MPU6050_Set_Accel_Fsr                    0x08001af1   Thumb Code    16  mpu6050.o(i.MPU6050_Set_Accel_Fsr)
    MPU6050_Set_Gyro_Fsr                     0x08001b01   Thumb Code    16  mpu6050.o(i.MPU6050_Set_Gyro_Fsr)
    MPU6050_Set_LPF                          0x08001b11   Thumb Code    58  mpu6050.o(i.MPU6050_Set_LPF)
    MPU6050_Set_Rate                         0x08001b4b   Thumb Code    58  mpu6050.o(i.MPU6050_Set_Rate)
    MPU6050_Write_Byte                       0x08001b85   Thumb Code    68  mpu6050.o(i.MPU6050_Write_Byte)
    MPU6050_Write_Len                        0x08001bc9   Thumb Code    96  mpu6050.o(i.MPU6050_Write_Len)
    MemManage_Handler                        0x08001c29   Thumb Code     4  stm32f10x_it.o(i.MemManage_Handler)
    NMI_Handler                              0x08001c2d   Thumb Code     2  stm32f10x_it.o(i.NMI_Handler)
    NRF24L01Init                             0x08001c31   Thumb Code    68  nrf24l01.o(i.NRF24L01Init)
    NRF24L01ReceiveMode                      0x08001c7d   Thumb Code   104  nrf24l01.o(i.NRF24L01ReceiveMode)
    NRF24L01_Check                           0x08001ced   Thumb Code    66  nrf24l01.o(i.NRF24L01_Check)
    NRF24L01_RxPacket                        0x08001d39   Thumb Code    52  nrf24l01.o(i.NRF24L01_RxPacket)
    NVIC_Init                                0x08001d6d   Thumb Code   100  misc.o(i.NVIC_Init)
    NVIC_PriorityGroupConfig                 0x08001ddd   Thumb Code    10  misc.o(i.NVIC_PriorityGroupConfig)
    NVIC_config                              0x08001df1   Thumb Code    68  nvic.o(i.NVIC_config)
    NrfACKPacket                             0x08001e35   Thumb Code    72  parse_packet.o(i.NrfACKPacket)
    PendSV_Handler                           0x08001e89   Thumb Code     2  stm32f10x_it.o(i.PendSV_Handler)
    PidController                            0x08001e8b   Thumb Code   164  pid.o(i.PidController)
    PidDataReadFromFlash                     0x08001f2f   Thumb Code   256  flash.o(i.PidDataReadFromFlash)
    PidDataWriteToFlash                      0x080020c9   Thumb Code   342  flash.o(i.PidDataWriteToFlash)
    PidInit                                  0x08002225   Thumb Code    62  pid.o(i.PidInit)
    PlaneLockStatus                          0x08002269   Thumb Code   210  fc_status.o(i.PlaneLockStatus)
    PwmInit                                  0x08002349   Thumb Code   204  pwm.o(i.PwmInit)
    PwmOut                                   0x08002429   Thumb Code    86  pwm.o(i.PwmOut)
    RCC_ADCCLKConfig                         0x08002485   Thumb Code    18  stm32f10x_rcc.o(i.RCC_ADCCLKConfig)
    RCC_AHBPeriphClockCmd                    0x0800249d   Thumb Code    26  stm32f10x_rcc.o(i.RCC_AHBPeriphClockCmd)
    RCC_APB1PeriphClockCmd                   0x080024bd   Thumb Code    26  stm32f10x_rcc.o(i.RCC_APB1PeriphClockCmd)
    RCC_APB2PeriphClockCmd                   0x080024dd   Thumb Code    26  stm32f10x_rcc.o(i.RCC_APB2PeriphClockCmd)
    RCC_GetClocksFreq                        0x080024fd   Thumb Code   192  stm32f10x_rcc.o(i.RCC_GetClocksFreq)
    RGB_LED_Blue                             0x080025d1   Thumb Code    26  led.o(i.RGB_LED_Blue)
    RGB_LED_Green                            0x080025eb   Thumb Code    26  led.o(i.RGB_LED_Green)
    RGB_LED_Red                              0x08002605   Thumb Code    26  led.o(i.RGB_LED_Red)
    RGB_LED_Reset                            0x08002621   Thumb Code    18  led.o(i.RGB_LED_Reset)
    RGB_LED_Write0                           0x08002639   Thumb Code   176  led.o(i.RGB_LED_Write0)
    RGB_LED_Write1                           0x080026ed   Thumb Code   168  led.o(i.RGB_LED_Write1)
    RGB_LED_Write_24Bits                     0x08002799   Thumb Code    28  led.o(i.RGB_LED_Write_24Bits)
    RGB_LED_Write_Byte                       0x080027b5   Thumb Code    38  led.o(i.RGB_LED_Write_Byte)
    RGB_LedBlink                             0x080027dd   Thumb Code    96  led.o(i.RGB_LedBlink)
    RGB_LedInit                              0x08002845   Thumb Code    54  led.o(i.RGB_LedInit)
    RGB_LedStatus                            0x08002881   Thumb Code    92  led.o(i.RGB_LedStatus)
    SDA_IN                                   0x080028e5   Thumb Code    24  iic.o(i.SDA_IN)
    SDA_OUT                                  0x08002901   Thumb Code    30  iic.o(i.SDA_OUT)
    SPI_Cmd                                  0x08002925   Thumb Code    24  stm32f10x_spi.o(i.SPI_Cmd)
    SPI_I2S_GetFlagStatus                    0x0800293d   Thumb Code    18  stm32f10x_spi.o(i.SPI_I2S_GetFlagStatus)
    SPI_I2S_ReceiveData                      0x0800294f   Thumb Code     6  stm32f10x_spi.o(i.SPI_I2S_ReceiveData)
    SPI_I2S_SendData                         0x08002955   Thumb Code     4  stm32f10x_spi.o(i.SPI_I2S_SendData)
    SPI_Init                                 0x08002959   Thumb Code    60  stm32f10x_spi.o(i.SPI_Init)
    SPI_Read_Buf                             0x08002995   Thumb Code    60  nrf24l01.o(i.SPI_Read_Buf)
    SPI_Read_Reg                             0x080029d5   Thumb Code    38  nrf24l01.o(i.SPI_Read_Reg)
    SPI_Write_Buf                            0x08002a01   Thumb Code    60  nrf24l01.o(i.SPI_Write_Buf)
    SPI_Write_Reg                            0x08002a41   Thumb Code    40  nrf24l01.o(i.SPI_Write_Reg)
    STM32_FLASH_Read                         0x08002a6d   Thumb Code    26  flash.o(i.STM32_FLASH_Read)
    SVC_Handler                              0x08002a87   Thumb Code     2  stm32f10x_it.o(i.SVC_Handler)
    SpiInit                                  0x08002b71   Thumb Code   156  spi.o(i.SpiInit)
    Spi_RW_Byte                              0x08002c19   Thumb Code    50  spi.o(i.Spi_RW_Byte)
    SysTick_Handler                          0x08002c51   Thumb Code    18  systick.o(i.SysTick_Handler)
    SystemInit                               0x08002c69   Thumb Code    78  system_stm32f10x.o(i.SystemInit)
    SystickInit                              0x08002cc9   Thumb Code    38  systick.o(i.SystickInit)
    TIM3_IRQHandler                          0x08002cf9   Thumb Code   128  timer.o(i.TIM3_IRQHandler)
    TIM_ARRPreloadConfig                     0x08002d95   Thumb Code    24  stm32f10x_tim.o(i.TIM_ARRPreloadConfig)
    TIM_ClearFlag                            0x08002dad   Thumb Code     6  stm32f10x_tim.o(i.TIM_ClearFlag)
    TIM_Cmd                                  0x08002db3   Thumb Code    24  stm32f10x_tim.o(i.TIM_Cmd)
    TIM_CtrlPWMOutputs                       0x08002dcb   Thumb Code    30  stm32f10x_tim.o(i.TIM_CtrlPWMOutputs)
    TIM_ITConfig                             0x08002de9   Thumb Code    18  stm32f10x_tim.o(i.TIM_ITConfig)
    TIM_OC1Init                              0x08002dfd   Thumb Code   132  stm32f10x_tim.o(i.TIM_OC1Init)
    TIM_OC1PreloadConfig                     0x08002e95   Thumb Code    18  stm32f10x_tim.o(i.TIM_OC1PreloadConfig)
    TIM_OC2Init                              0x08002ea9   Thumb Code   154  stm32f10x_tim.o(i.TIM_OC2Init)
    TIM_OC2PreloadConfig                     0x08002f4d   Thumb Code    26  stm32f10x_tim.o(i.TIM_OC2PreloadConfig)
    TIM_OC3Init                              0x08002f69   Thumb Code   150  stm32f10x_tim.o(i.TIM_OC3Init)
    TIM_OC3PreloadConfig                     0x08003009   Thumb Code    18  stm32f10x_tim.o(i.TIM_OC3PreloadConfig)
    TIM_OC4Init                              0x0800301d   Thumb Code   114  stm32f10x_tim.o(i.TIM_OC4Init)
    TIM_OC4PreloadConfig                     0x08003099   Thumb Code    26  stm32f10x_tim.o(i.TIM_OC4PreloadConfig)
    TIM_TimeBaseInit                         0x080030b5   Thumb Code   122  stm32f10x_tim.o(i.TIM_TimeBaseInit)
    ThrottleLimit                            0x08003159   Thumb Code    14  imath.o(i.ThrottleLimit)
    TimerInit                                0x08003169   Thumb Code    72  timer.o(i.TimerInit)
    TopLedColorSet                           0x080031b5   Thumb Code   102  led.o(i.TopLedColorSet)
    USART2_IRQHandler                        0x0800321d   Thumb Code    32  usart2.o(i.USART2_IRQHandler)
    USART_ClearFlag                          0x08003241   Thumb Code    18  stm32f10x_usart.o(i.USART_ClearFlag)
    USART_Cmd                                0x08003253   Thumb Code    24  stm32f10x_usart.o(i.USART_Cmd)
    USART_DMACmd                             0x0800326b   Thumb Code    18  stm32f10x_usart.o(i.USART_DMACmd)
    USART_GetFlagStatus                      0x0800327d   Thumb Code    26  stm32f10x_usart.o(i.USART_GetFlagStatus)
    USART_GetITStatus                        0x08003297   Thumb Code    84  stm32f10x_usart.o(i.USART_GetITStatus)
    USART_ITConfig                           0x080032eb   Thumb Code    74  stm32f10x_usart.o(i.USART_ITConfig)
    USART_Init                               0x08003335   Thumb Code   210  stm32f10x_usart.o(i.USART_Init)
    USART_ReceiveData                        0x0800340d   Thumb Code    10  stm32f10x_usart.o(i.USART_ReceiveData)
    UnusualProtect                           0x08003419   Thumb Code    58  controller.o(i.UnusualProtect)
    UsageFault_Handler                       0x08003465   Thumb Code     4  stm32f10x_it.o(i.UsageFault_Handler)
    Usart2Init                               0x080034b5   Thumb Code   132  usart2.o(i.Usart2Init)
    VoltageDetect                            0x080035b9   Thumb Code   128  adc.o(i.VoltageDetect)
    __ARM_fpclassify                         0x08003655   Thumb Code    40  fpclassify.o(i.__ARM_fpclassify)
    __kernel_poly                            0x0800367d   Thumb Code   170  poly.o(i.__kernel_poly)
    __mathlib_dbl_infnan                     0x08003727   Thumb Code     6  dunder.o(i.__mathlib_dbl_infnan)
    __mathlib_dbl_infnan2                    0x0800372d   Thumb Code     4  dunder.o(i.__mathlib_dbl_infnan2)
    __mathlib_dbl_invalid                    0x08003731   Thumb Code    12  dunder.o(i.__mathlib_dbl_invalid)
    __mathlib_dbl_underflow                  0x0800373d   Thumb Code    10  dunder.o(i.__mathlib_dbl_underflow)
    _controller_perform                      0x0800374d   Thumb Code    30  controller.o(i._controller_perform)
    adc_config                               0x0800381d   Thumb Code   136  adc.o(i.adc_config)
    adc_gpio_init                            0x080038a9   Thumb Code    32  adc.o(i.adc_gpio_init)
    asin                                     0x080038cd   Thumb Code   572  asin.o(i.asin)
    atan                                     0x08003b3d   Thumb Code   474  atan.o(i.atan)
    atan2                                    0x08003d5d   Thumb Code   346  atan2.o(i.atan2)
    delay_ms                                 0x08003f41   Thumb Code    62  systick.o(i.delay_ms)
    delay_us                                 0x08003f85   Thumb Code    56  systick.o(i.delay_us)
    direction_to_zero                        0x08003fc1   Thumb Code    34  imath.o(i.direction_to_zero)
    dmp_enable_6x_lp_quat                    0x08003fe3   Thumb Code    60  inv_mpu_dmp_motion_driver.o(i.dmp_enable_6x_lp_quat)
    dmp_enable_feature                       0x08004021   Thumb Code   530  inv_mpu_dmp_motion_driver.o(i.dmp_enable_feature)
    dmp_enable_gyro_cal                      0x0800423d   Thumb Code    62  inv_mpu_dmp_motion_driver.o(i.dmp_enable_gyro_cal)
    dmp_enable_lp_quat                       0x08004295   Thumb Code    60  inv_mpu_dmp_motion_driver.o(i.dmp_enable_lp_quat)
    dmp_load_motion_driver_firmware          0x080042d1   Thumb Code    20  inv_mpu_dmp_motion_driver.o(i.dmp_load_motion_driver_firmware)
    dmp_read_fifo                            0x080042e9   Thumb Code   456  inv_mpu_dmp_motion_driver.o(i.dmp_read_fifo)
    dmp_set_accel_bias                       0x080044b5   Thumb Code   300  inv_mpu_dmp_motion_driver.o(i.dmp_set_accel_bias)
    dmp_set_fifo_rate                        0x080045e5   Thumb Code    96  inv_mpu_dmp_motion_driver.o(i.dmp_set_fifo_rate)
    dmp_set_gyro_bias                        0x08004655   Thumb Code   294  inv_mpu_dmp_motion_driver.o(i.dmp_set_gyro_bias)
    dmp_set_orientation                      0x08004785   Thumb Code   290  inv_mpu_dmp_motion_driver.o(i.dmp_set_orientation)
    dmp_set_shake_reject_thresh              0x080048bd   Thumb Code    56  inv_mpu_dmp_motion_driver.o(i.dmp_set_shake_reject_thresh)
    dmp_set_shake_reject_time                0x080048f5   Thumb Code    38  inv_mpu_dmp_motion_driver.o(i.dmp_set_shake_reject_time)
    dmp_set_shake_reject_timeout             0x0800491b   Thumb Code    38  inv_mpu_dmp_motion_driver.o(i.dmp_set_shake_reject_timeout)
    dmp_set_tap_axes                         0x08004941   Thumb Code    70  inv_mpu_dmp_motion_driver.o(i.dmp_set_tap_axes)
    dmp_set_tap_count                        0x08004987   Thumb Code    38  inv_mpu_dmp_motion_driver.o(i.dmp_set_tap_count)
    dmp_set_tap_thresh                       0x080049ad   Thumb Code   396  inv_mpu_dmp_motion_driver.o(i.dmp_set_tap_thresh)
    dmp_set_tap_time                         0x08004b4d   Thumb Code    38  inv_mpu_dmp_motion_driver.o(i.dmp_set_tap_time)
    dmp_set_tap_time_multi                   0x08004b73   Thumb Code    38  inv_mpu_dmp_motion_driver.o(i.dmp_set_tap_time_multi)
    inv_orientation_matrix_to_scalar         0x080051d5   Thumb Code    40  inv_mpu.o(i.inv_orientation_matrix_to_scalar)
    inv_row_2_scale                          0x080051fd   Thumb Code    78  inv_mpu.o(i.inv_row_2_scale)
    main                                     0x0800524b   Thumb Code   150  main.o(i.main)
    mget_ms                                  0x080052e1   Thumb Code     2  inv_mpu.o(i.mget_ms)
    mpu_configure_fifo                       0x080052e5   Thumb Code   106  inv_mpu.o(i.mpu_configure_fifo)
    mpu_dmp_get_data                         0x08005355   Thumb Code   544  inv_mpu.o(i.mpu_dmp_get_data)
    mpu_dmp_init                             0x08005579   Thumb Code   150  inv_mpu.o(i.mpu_dmp_init)
    mpu_get_accel_fsr                        0x08005615   Thumb Code    72  inv_mpu.o(i.mpu_get_accel_fsr)
    mpu_get_accel_sens                       0x08005661   Thumb Code    78  inv_mpu.o(i.mpu_get_accel_sens)
    mpu_get_fifo_config                      0x080056b5   Thumb Code    12  inv_mpu.o(i.mpu_get_fifo_config)
    mpu_get_gyro_fsr                         0x080056c5   Thumb Code    64  inv_mpu.o(i.mpu_get_gyro_fsr)
    mpu_get_gyro_sens                        0x08005709   Thumb Code    58  inv_mpu.o(i.mpu_get_gyro_sens)
    mpu_get_lpf                              0x08005759   Thumb Code    74  inv_mpu.o(i.mpu_get_lpf)
    mpu_get_sample_rate                      0x080057a9   Thumb Code    26  inv_mpu.o(i.mpu_get_sample_rate)
    mpu_init                                 0x080057c9   Thumb Code   396  inv_mpu.o(i.mpu_init)
    mpu_load_firmware                        0x08005959   Thumb Code   180  inv_mpu.o(i.mpu_load_firmware)
    mpu_lp_accel_mode                        0x08005a11   Thumb Code   218  inv_mpu.o(i.mpu_lp_accel_mode)
    mpu_read_fifo_stream                     0x08005af1   Thumb Code   186  inv_mpu.o(i.mpu_read_fifo_stream)
    mpu_read_mem                             0x08005bb1   Thumb Code   122  inv_mpu.o(i.mpu_read_mem)
    mpu_reset_fifo                           0x08005c31   Thumb Code   450  inv_mpu.o(i.mpu_reset_fifo)
    mpu_run_self_test                        0x08005df9   Thumb Code   278  inv_mpu.o(i.mpu_run_self_test)
    mpu_set_accel_fsr                        0x08005f15   Thumb Code   126  inv_mpu.o(i.mpu_set_accel_fsr)
    mpu_set_bypass                           0x08005f99   Thumb Code   328  inv_mpu.o(i.mpu_set_bypass)
    mpu_set_dmp_state                        0x080060e5   Thumb Code   138  inv_mpu.o(i.mpu_set_dmp_state)
    mpu_set_gyro_fsr                         0x08006175   Thumb Code   132  inv_mpu.o(i.mpu_set_gyro_fsr)
    mpu_set_int_latched                      0x080061fd   Thumb Code   102  inv_mpu.o(i.mpu_set_int_latched)
    mpu_set_lpf                              0x08006269   Thumb Code   126  inv_mpu.o(i.mpu_set_lpf)
    mpu_set_sample_rate                      0x080062ed   Thumb Code   152  inv_mpu.o(i.mpu_set_sample_rate)
    mpu_set_sensors                          0x08006389   Thumb Code   202  inv_mpu.o(i.mpu_set_sensors)
    mpu_write_mem                            0x08006459   Thumb Code   122  inv_mpu.o(i.mpu_write_mem)
    nrf_parse_packet                         0x080064d9   Thumb Code   260  parse_packet.o(i.nrf_parse_packet)
    run_self_test                            0x080065ed   Thumb Code   148  inv_mpu.o(i.run_self_test)
    sqrt                                     0x08006711   Thumb Code    76  sqrt.o(i.sqrt)
    time_check                               0x0800675d   Thumb Code    54  timer.o(i.time_check)
    wait_pairing                             0x080067a1   Thumb Code   148  pair_freq.o(i.wait_pairing)
    __aeabi_d2f                              0x08006845   Thumb Code     0  d2f.o(x$fpl$d2f)
    _d2f                                     0x08006845   Thumb Code    98  d2f.o(x$fpl$d2f)
    __aeabi_dadd                             0x080068a9   Thumb Code     0  daddsub_clz.o(x$fpl$dadd)
    _dadd                                    0x080068a9   Thumb Code   332  daddsub_clz.o(x$fpl$dadd)
    __fpl_dcheck_NaN1                        0x080069f9   Thumb Code    10  dcheck1.o(x$fpl$dcheck1)
    __aeabi_ddiv                             0x08006a09   Thumb Code     0  ddiv.o(x$fpl$ddiv)
    _ddiv                                    0x08006a09   Thumb Code   552  ddiv.o(x$fpl$ddiv)
    __aeabi_i2d                              0x08006cb9   Thumb Code     0  dflt_clz.o(x$fpl$dflt)
    _dflt                                    0x08006cb9   Thumb Code    46  dflt_clz.o(x$fpl$dflt)
    __aeabi_dmul                             0x08006ce9   Thumb Code     0  dmul.o(x$fpl$dmul)
    _dmul                                    0x08006ce9   Thumb Code   332  dmul.o(x$fpl$dmul)
    __fpl_dnaninf                            0x08006e3d   Thumb Code   156  dnaninf.o(x$fpl$dnaninf)
    __fpl_dretinf                            0x08006ed9   Thumb Code    12  dretinf.o(x$fpl$dretinf)
    __aeabi_drsub                            0x08006ee5   Thumb Code     0  daddsub_clz.o(x$fpl$drsb)
    _drsb                                    0x08006ee5   Thumb Code    22  daddsub_clz.o(x$fpl$drsb)
    _dsqrt                                   0x08006efd   Thumb Code   456  dsqrt_noumaal.o(x$fpl$dsqrt)
    __aeabi_dsub                             0x080070c9   Thumb Code     0  daddsub_clz.o(x$fpl$dsub)
    _dsub                                    0x080070c9   Thumb Code   464  daddsub_clz.o(x$fpl$dsub)
    __aeabi_f2d                              0x0800729d   Thumb Code     0  f2d.o(x$fpl$f2d)
    _f2d                                     0x0800729d   Thumb Code    86  f2d.o(x$fpl$f2d)
    __aeabi_fadd                             0x080072f5   Thumb Code     0  faddsub_clz.o(x$fpl$fadd)
    _fadd                                    0x080072f5   Thumb Code   196  faddsub_clz.o(x$fpl$fadd)
    __fpl_fcmp_Inf                           0x080073b9   Thumb Code    24  fcmpi.o(x$fpl$fcmpinf)
    __aeabi_fdiv                             0x080073d1   Thumb Code     0  fdiv.o(x$fpl$fdiv)
    _fdiv                                    0x080073d1   Thumb Code   384  fdiv.o(x$fpl$fdiv)
    __aeabi_cfcmpeq                          0x08007555   Thumb Code     0  feqf.o(x$fpl$feqf)
    _fcmpeq                                  0x08007555   Thumb Code   104  feqf.o(x$fpl$feqf)
    __aeabi_f2iz                             0x080075bd   Thumb Code     0  ffix.o(x$fpl$ffix)
    _ffix                                    0x080075bd   Thumb Code    54  ffix.o(x$fpl$ffix)
    __aeabi_f2uiz                            0x080075f5   Thumb Code     0  ffixu.o(x$fpl$ffixu)
    _ffixu                                   0x080075f5   Thumb Code    62  ffixu.o(x$fpl$ffixu)
    __aeabi_i2f                              0x08007635   Thumb Code     0  fflt_clz.o(x$fpl$fflt)
    _fflt                                    0x08007635   Thumb Code    48  fflt_clz.o(x$fpl$fflt)
    __aeabi_ui2f                             0x08007665   Thumb Code     0  fflt_clz.o(x$fpl$ffltu)
    _ffltu                                   0x08007665   Thumb Code    38  fflt_clz.o(x$fpl$ffltu)
    __aeabi_cfcmple                          0x0800768d   Thumb Code     0  fleqf.o(x$fpl$fleqf)
    _fcmple                                  0x0800768d   Thumb Code   104  fleqf.o(x$fpl$fleqf)
    __fpl_fcmple_InfNaN                      0x080076df   Thumb Code     0  fleqf.o(x$fpl$fleqf)
    __aeabi_fmul                             0x080076f5   Thumb Code     0  fmul.o(x$fpl$fmul)
    _fmul                                    0x080076f5   Thumb Code   258  fmul.o(x$fpl$fmul)
    __fpl_fnaninf                            0x080077f7   Thumb Code   140  fnaninf.o(x$fpl$fnaninf)
    __fpl_fretinf                            0x08007883   Thumb Code    10  fretinf.o(x$fpl$fretinf)
    __aeabi_cfrcmple                         0x0800788d   Thumb Code     0  frleqf.o(x$fpl$frleqf)
    _frcmple                                 0x0800788d   Thumb Code    98  frleqf.o(x$fpl$frleqf)
    __aeabi_fsub                             0x080078f1   Thumb Code     0  faddsub_clz.o(x$fpl$fsub)
    _fsub                                    0x080078f1   Thumb Code   234  faddsub_clz.o(x$fpl$fsub)
    __fpl_return_NaN                         0x080079db   Thumb Code   100  retnan.o(x$fpl$retnan)
    __ARM_scalbn                             0x08007a3f   Thumb Code    92  scalbn.o(x$fpl$scalbn)
    __fpl_cmpreturn                          0x08007a9b   Thumb Code    48  trapv.o(x$fpl$trapveneer)
    __I$use$fp                               0x08007aca   Number         0  usenofp.o(x$fpl$usenofp)
    pidIintData                              0x08007acc   Data         300  pid.o(.constdata)
    reg                                      0x08007bf8   Data          27  inv_mpu.o(.constdata)
    hw                                       0x08007c14   Data          12  inv_mpu.o(.constdata)
    test                                     0x08007c20   Data          40  inv_mpu.o(.constdata)
    __mathlib_zero                           0x08008928   Data           8  qnan.o(.constdata)
    Region$$Table$$Base                      0x08008930   Number         0  anon$$obj.o(Region$$Table)
    Region$$Table$$Limit                     0x08008950   Number         0  anon$$obj.o(Region$$Table)
    SystemCoreClock                          0x20000000   Data           4  system_stm32f10x.o(.data)
    AHBPrescTable                            0x20000004   Data          16  system_stm32f10x.o(.data)
    tickCount                                0x20000014   Data           4  systick.o(.data)
    blinkSpeedCount                          0x20000018   Data           2  led.o(.data)
    blinkPeriodCount                         0x2000001a   Data           2  led.o(.data)
    arrValue                                 0x2000001c   Data           2  pwm.o(.data)
    pscValue                                 0x2000001e   Data           1  pwm.o(.data)
    ccrValue                                 0x2000001f   Data           1  pwm.o(.data)
    flash_flag                               0x20000020   Data           2  flash.o(.data)
    flashStatus                              0x20000022   Data           1  flash.o(.data)
    pair                                     0x20000023   Data           6  pair_freq.o(.data)
    adc_value                                0x2000002c   Data           2  adc.o(.data)
    padc_value                               0x20000030   Data           4  adc.o(.data)
    pidResetFlag                             0x20000038   Data           4  pid.o(.data)
    running_tim_cnt                          0x2000003c   Data           4  timer.o(.data)
    controller_cnt                           0x20000040   Data           3  controller.o(.data)
    throttle                                 0x20000044   Data           4  controller.o(.data)
    _control                                 0x20000048   Data           1  controller.o(.data)
    Motor1                                   0x2000004a   Data           2  controller.o(.data)
    Motor2                                   0x2000004c   Data           2  controller.o(.data)
    Motor3                                   0x2000004e   Data           2  controller.o(.data)
    Motor4                                   0x20000050   Data           2  controller.o(.data)
    high_mark_flag                           0x20000052   Data           1  controller.o(.data)
    fix_mark_flag                            0x20000053   Data           1  controller.o(.data)
    Mpu                                      0x200000a8   Data          36  mpu6050.o(.bss)
    Rx_packet                                0x200000cc   Data          11  parse_packet.o(.bss)
    txPacket                                 0x200000d7   Data          11  parse_packet.o(.bss)
    plane                                    0x200000e4   Data          36  parse_packet.o(.bss)
    allPid                                   0x20000108   Data         660  pid.o(.bss)
    run_start                                0x2000039c   Data          16  timer.o(.bss)
    run_stop                                 0x200003ac   Data          16  timer.o(.bss)
    att                                      0x200003bc   Data          12  imu.o(.bss)
    att_time                                 0x200003c8   Data          16  imu.o(.bss)
    __libspace_start                         0x2000041c   Data          96  libspace.o(.bss)
    __temporary_stack_top$libspace           0x2000047c   Data           0  libspace.o(.bss)



==============================================================================

Memory Map of the image

  Image Entry point : 0x080000ed

  Load Region LR_IROM1 (Base: 0x08000000, Size: 0x000089f8, Max: 0x00020000, ABSOLUTE)

    Execution Region ER_IROM1 (Exec base: 0x08000000, Load base: 0x08000000, Size: 0x00008950, Max: 0x00020000, ABSOLUTE)

    Exec Addr    Load Addr    Size         Type   Attr      Idx    E Section Name        Object

    0x08000000   0x08000000   0x000000ec   Data   RO          266    RESET               startup_stm32f10x_md.o
    0x080000ec   0x080000ec   0x00000008   Code   RO         4702  * !!!main             c_w.l(__main.o)
    0x080000f4   0x080000f4   0x00000034   Code   RO         5199    !!!scatter          c_w.l(__scatter.o)
    0x08000128   0x08000128   0x0000001a   Code   RO         5201    !!handler_copy      c_w.l(__scatter_copy.o)
    0x08000142   0x08000142   0x00000002   PAD
    0x08000144   0x08000144   0x0000001c   Code   RO         5203    !!handler_zi        c_w.l(__scatter_zi.o)
    0x08000160   0x08000160   0x00000002   Code   RO         4986    .ARM.Collect$$libinit$$00000000  c_w.l(libinit.o)
    0x08000162   0x08000162   0x00000000   Code   RO         4988    .ARM.Collect$$libinit$$00000002  c_w.l(libinit2.o)
    0x08000162   0x08000162   0x00000000   Code   RO         4990    .ARM.Collect$$libinit$$00000004  c_w.l(libinit2.o)
    0x08000162   0x08000162   0x00000000   Code   RO         4993    .ARM.Collect$$libinit$$0000000A  c_w.l(libinit2.o)
    0x08000162   0x08000162   0x00000000   Code   RO         4995    .ARM.Collect$$libinit$$0000000C  c_w.l(libinit2.o)
    0x08000162   0x08000162   0x00000000   Code   RO         4997    .ARM.Collect$$libinit$$0000000E  c_w.l(libinit2.o)
    0x08000162   0x08000162   0x00000000   Code   RO         5000    .ARM.Collect$$libinit$$00000011  c_w.l(libinit2.o)
    0x08000162   0x08000162   0x00000000   Code   RO         5002    .ARM.Collect$$libinit$$00000013  c_w.l(libinit2.o)
    0x08000162   0x08000162   0x00000000   Code   RO         5004    .ARM.Collect$$libinit$$00000015  c_w.l(libinit2.o)
    0x08000162   0x08000162   0x00000000   Code   RO         5006    .ARM.Collect$$libinit$$00000017  c_w.l(libinit2.o)
    0x08000162   0x08000162   0x00000000   Code   RO         5008    .ARM.Collect$$libinit$$00000019  c_w.l(libinit2.o)
    0x08000162   0x08000162   0x00000000   Code   RO         5010    .ARM.Collect$$libinit$$0000001B  c_w.l(libinit2.o)
    0x08000162   0x08000162   0x00000000   Code   RO         5012    .ARM.Collect$$libinit$$0000001D  c_w.l(libinit2.o)
    0x08000162   0x08000162   0x00000000   Code   RO         5014    .ARM.Collect$$libinit$$0000001F  c_w.l(libinit2.o)
    0x08000162   0x08000162   0x00000000   Code   RO         5016    .ARM.Collect$$libinit$$00000021  c_w.l(libinit2.o)
    0x08000162   0x08000162   0x00000000   Code   RO         5018    .ARM.Collect$$libinit$$00000023  c_w.l(libinit2.o)
    0x08000162   0x08000162   0x00000000   Code   RO         5020    .ARM.Collect$$libinit$$00000025  c_w.l(libinit2.o)
    0x08000162   0x08000162   0x00000000   Code   RO         5024    .ARM.Collect$$libinit$$0000002C  c_w.l(libinit2.o)
    0x08000162   0x08000162   0x00000000   Code   RO         5026    .ARM.Collect$$libinit$$0000002E  c_w.l(libinit2.o)
    0x08000162   0x08000162   0x00000000   Code   RO         5028    .ARM.Collect$$libinit$$00000030  c_w.l(libinit2.o)
    0x08000162   0x08000162   0x00000000   Code   RO         5030    .ARM.Collect$$libinit$$00000032  c_w.l(libinit2.o)
    0x08000162   0x08000162   0x00000002   Code   RO         5031    .ARM.Collect$$libinit$$00000033  c_w.l(libinit2.o)
    0x08000164   0x08000164   0x00000002   Code   RO         5180    .ARM.Collect$$libshutdown$$00000000  c_w.l(libshutdown.o)
    0x08000166   0x08000166   0x00000000   Code   RO         5033    .ARM.Collect$$libshutdown$$00000002  c_w.l(libshutdown2.o)
    0x08000166   0x08000166   0x00000000   Code   RO         5035    .ARM.Collect$$libshutdown$$00000004  c_w.l(libshutdown2.o)
    0x08000166   0x08000166   0x00000000   Code   RO         5038    .ARM.Collect$$libshutdown$$00000007  c_w.l(libshutdown2.o)
    0x08000166   0x08000166   0x00000000   Code   RO         5041    .ARM.Collect$$libshutdown$$0000000A  c_w.l(libshutdown2.o)
    0x08000166   0x08000166   0x00000000   Code   RO         5043    .ARM.Collect$$libshutdown$$0000000C  c_w.l(libshutdown2.o)
    0x08000166   0x08000166   0x00000000   Code   RO         5046    .ARM.Collect$$libshutdown$$0000000F  c_w.l(libshutdown2.o)
    0x08000166   0x08000166   0x00000002   Code   RO         5047    .ARM.Collect$$libshutdown$$00000010  c_w.l(libshutdown2.o)
    0x08000168   0x08000168   0x00000000   Code   RO         4776    .ARM.Collect$$rtentry$$00000000  c_w.l(__rtentry.o)
    0x08000168   0x08000168   0x00000000   Code   RO         4845    .ARM.Collect$$rtentry$$00000002  c_w.l(__rtentry2.o)
    0x08000168   0x08000168   0x00000006   Code   RO         4857    .ARM.Collect$$rtentry$$00000004  c_w.l(__rtentry4.o)
    0x0800016e   0x0800016e   0x00000000   Code   RO         4847    .ARM.Collect$$rtentry$$00000009  c_w.l(__rtentry2.o)
    0x0800016e   0x0800016e   0x00000004   Code   RO         4848    .ARM.Collect$$rtentry$$0000000A  c_w.l(__rtentry2.o)
    0x08000172   0x08000172   0x00000000   Code   RO         4850    .ARM.Collect$$rtentry$$0000000C  c_w.l(__rtentry2.o)
    0x08000172   0x08000172   0x00000008   Code   RO         4851    .ARM.Collect$$rtentry$$0000000D  c_w.l(__rtentry2.o)
    0x0800017a   0x0800017a   0x00000002   Code   RO         5057    .ARM.Collect$$rtexit$$00000000  c_w.l(rtexit.o)
    0x0800017c   0x0800017c   0x00000000   Code   RO         5119    .ARM.Collect$$rtexit$$00000002  c_w.l(rtexit2.o)
    0x0800017c   0x0800017c   0x00000004   Code   RO         5120    .ARM.Collect$$rtexit$$00000003  c_w.l(rtexit2.o)
    0x08000180   0x08000180   0x00000006   Code   RO         5121    .ARM.Collect$$rtexit$$00000004  c_w.l(rtexit2.o)
    0x08000186   0x08000186   0x00000002   PAD
    0x08000188   0x08000188   0x00000040   Code   RO          267    .text               startup_stm32f10x_md.o
    0x080001c8   0x080001c8   0x00000048   Code   RO         4639    .text               c_w.l(llsdiv.o)
    0x08000210   0x08000210   0x00000058   Code   RO         4692    .text               c_w.l(memcmp.o)
    0x08000268   0x08000268   0x00000064   Code   RO         4694    .text               c_w.l(rt_memcpy_w.o)
    0x080002cc   0x080002cc   0x00000010   Code   RO         4696    .text               c_w.l(aeabi_memset.o)
    0x080002dc   0x080002dc   0x0000004e   Code   RO         4698    .text               c_w.l(rt_memclr_w.o)
    0x0800032a   0x0800032a   0x00000006   Code   RO         4700    .text               c_w.l(heapauxi.o)
    0x08000330   0x08000330   0x000000ee   Code   RO         4777    .text               c_w.l(lludivv7m.o)
    0x0800041e   0x0800041e   0x00000016   Code   RO         4779    .text               c_w.l(_rserrno.o)
    0x08000434   0x08000434   0x00000044   Code   RO         4792    .text               c_w.l(rt_memclr.o)
    0x08000478   0x08000478   0x00000008   Code   RO         4866    .text               c_w.l(rt_errno_addr_intlibspace.o)
    0x08000480   0x08000480   0x00000008   Code   RO         4895    .text               c_w.l(libspace.o)
    0x08000488   0x08000488   0x0000004a   Code   RO         4900    .text               c_w.l(sys_stackheap_outer.o)
    0x080004d2   0x080004d2   0x00000012   Code   RO         4975    .text               c_w.l(exit.o)
    0x080004e4   0x080004e4   0x00000002   Code   RO         5054    .text               c_w.l(use_no_semi.o)
    0x080004e6   0x080004e6   0x00000000   Code   RO         5056    .text               c_w.l(indicate_semi.o)
    0x080004e6   0x080004e6   0x00000002   PAD
    0x080004e8   0x080004e8   0x0000000c   Code   RO         5116    .text               c_w.l(sys_exit.o)
    0x080004f4   0x080004f4   0x00000016   Code   RO         1712    i.ADC_Cmd           stm32f10x_adc.o
    0x0800050a   0x0800050a   0x00000016   Code   RO         1713    i.ADC_DMACmd        stm32f10x_adc.o
    0x08000520   0x08000520   0x00000014   Code   RO         1720    i.ADC_GetCalibrationStatus  stm32f10x_adc.o
    0x08000534   0x08000534   0x00000050   Code   RO         1730    i.ADC_Init          stm32f10x_adc.o
    0x08000584   0x08000584   0x000000b8   Code   RO         1734    i.ADC_RegularChannelConfig  stm32f10x_adc.o
    0x0800063c   0x0800063c   0x0000000a   Code   RO         1735    i.ADC_ResetCalibration  stm32f10x_adc.o
    0x08000646   0x08000646   0x00000016   Code   RO         1737    i.ADC_SoftwareStartConvCmd  stm32f10x_adc.o
    0x0800065c   0x0800065c   0x0000000a   Code   RO         1739    i.ADC_StartCalibration  stm32f10x_adc.o
    0x08000666   0x08000666   0x00000002   PAD
    0x08000668   0x08000668   0x000000e8   Code   RO         1067    i.ANODTDataReceivePrepare  usart2.o
    0x08000750   0x08000750   0x00000394   Code   RO         1068    i.ANODataReceiveAnalysis  usart2.o
    0x08000ae4   0x08000ae4   0x00000150   Code   RO         1069    i.ANOSendStatus     usart2.o
    0x08000c34   0x08000c34   0x00000048   Code   RO         1070    i.ANO_DT_Send_Check  usart2.o
    0x08000c7c   0x08000c7c   0x00000018   Code   RO          824    i.AdcInit           adc.o
    0x08000c94   0x08000c94   0x000000c8   Code   RO          864    i.AllPidInit        pid.o
    0x08000d5c   0x08000d5c   0x00000098   Code   RO          947    i.AngleController   controller.o
    0x08000df4   0x08000df4   0x00000004   Code   RO          173    i.BusFault_Handler  stm32f10x_it.o
    0x08000df8   0x08000df8   0x00000006   Code   RO          865    i.ClearIntegral     pid.o
    0x08000dfe   0x08000dfe   0x00000002   PAD
    0x08000e00   0x08000e00   0x00000038   Code   RO          948    i.ControModel       controller.o
    0x08000e38   0x08000e38   0x000001d4   Code   RO          949    i.ControllerOutput  controller.o
    0x0800100c   0x0800100c   0x00000018   Code   RO         2397    i.DMA_Cmd           stm32f10x_dma.o
    0x08001024   0x08001024   0x0000014c   Code   RO         2398    i.DMA_DeInit        stm32f10x_dma.o
    0x08001170   0x08001170   0x0000003c   Code   RO         2403    i.DMA_Init          stm32f10x_dma.o
    0x080011ac   0x080011ac   0x00000004   Code   RO         2404    i.DMA_SetCurrDataCounter  stm32f10x_dma.o
    0x080011b0   0x080011b0   0x0000022c   Code   RO         1072    i.DateTransfer      usart2.o
    0x080013dc   0x080013dc   0x00000002   Code   RO          174    i.DebugMon_Handler  stm32f10x_it.o
    0x080013de   0x080013de   0x00000002   PAD
    0x080013e0   0x080013e0   0x00000058   Code   RO          825    i.DmaConfig         adc.o
    0x08001438   0x08001438   0x0000000c   Code   RO         2521    i.FLASH_ClearFlag   stm32f10x_flash.o
    0x08001444   0x08001444   0x0000004c   Code   RO         2526    i.FLASH_ErasePage   stm32f10x_flash.o
    0x08001490   0x08001490   0x00000034   Code   RO         2527    i.FLASH_GetBank1Status  stm32f10x_flash.o
    0x080014c4   0x080014c4   0x00000014   Code   RO         2537    i.FLASH_LockBank1   stm32f10x_flash.o
    0x080014d8   0x080014d8   0x0000006c   Code   RO         2541    i.FLASH_ProgramWord  stm32f10x_flash.o
    0x08001544   0x08001544   0x00000018   Code   RO         2545    i.FLASH_UnlockBank1  stm32f10x_flash.o
    0x0800155c   0x0800155c   0x00000026   Code   RO         2548    i.FLASH_WaitForLastOperation  stm32f10x_flash.o
    0x08001582   0x08001582   0x00000116   Code   RO         2821    i.GPIO_Init         stm32f10x_gpio.o
    0x08001698   0x08001698   0x00000004   Code   RO         2828    i.GPIO_ResetBits    stm32f10x_gpio.o
    0x0800169c   0x0800169c   0x00000004   Code   RO         2829    i.GPIO_SetBits      stm32f10x_gpio.o
    0x080016a0   0x080016a0   0x0000004c   Code   RO          950    i.GyroController    controller.o
    0x080016ec   0x080016ec   0x00000050   Code   RO         1019    i.GyroDataTransformDeg  imu.o
    0x0800173c   0x0800173c   0x00000004   Code   RO          175    i.HardFault_Handler  stm32f10x_it.o
    0x08001740   0x08001740   0x00000034   Code   RO          442    i.IIC_Ack           iic.o
    0x08001774   0x08001774   0x0000004c   Code   RO          443    i.IIC_Init          iic.o
    0x080017c0   0x080017c0   0x00000034   Code   RO          444    i.IIC_NAck          iic.o
    0x080017f4   0x080017f4   0x00000054   Code   RO          445    i.IIC_Read_Byte     iic.o
    0x08001848   0x08001848   0x0000005c   Code   RO          446    i.IIC_Send_Byte     iic.o
    0x080018a4   0x080018a4   0x00000034   Code   RO          447    i.IIC_Start         iic.o
    0x080018d8   0x080018d8   0x00000034   Code   RO          448    i.IIC_Stop          iic.o
    0x0800190c   0x0800190c   0x0000004c   Code   RO          449    i.IIC_Wait_Ack      iic.o
    0x08001958   0x08001958   0x00000002   Code   RO          450    i.IIC_delay         iic.o
    0x0800195a   0x0800195a   0x00000002   PAD
    0x0800195c   0x0800195c   0x00000020   Code   RO         1020    i.IMU               imu.o
    0x0800197c   0x0800197c   0x00000050   Code   RO          517    i.MPU6050_Get_Gyroscope  mpu6050.o
    0x080019cc   0x080019cc   0x00000076   Code   RO          519    i.MPU6050_Init      mpu6050.o
    0x08001a42   0x08001a42   0x0000003a   Code   RO          520    i.MPU6050_Read_Byte  mpu6050.o
    0x08001a7c   0x08001a7c   0x00000074   Code   RO          521    i.MPU6050_Read_Len  mpu6050.o
    0x08001af0   0x08001af0   0x00000010   Code   RO          522    i.MPU6050_Set_Accel_Fsr  mpu6050.o
    0x08001b00   0x08001b00   0x00000010   Code   RO          523    i.MPU6050_Set_Gyro_Fsr  mpu6050.o
    0x08001b10   0x08001b10   0x0000003a   Code   RO          524    i.MPU6050_Set_LPF   mpu6050.o
    0x08001b4a   0x08001b4a   0x0000003a   Code   RO          525    i.MPU6050_Set_Rate  mpu6050.o
    0x08001b84   0x08001b84   0x00000044   Code   RO          526    i.MPU6050_Write_Byte  mpu6050.o
    0x08001bc8   0x08001bc8   0x00000060   Code   RO          527    i.MPU6050_Write_Len  mpu6050.o
    0x08001c28   0x08001c28   0x00000004   Code   RO          176    i.MemManage_Handler  stm32f10x_it.o
    0x08001c2c   0x08001c2c   0x00000002   Code   RO          177    i.NMI_Handler       stm32f10x_it.o
    0x08001c2e   0x08001c2e   0x00000002   PAD
    0x08001c30   0x08001c30   0x0000004c   Code   RO          718    i.NRF24L01Init      nrf24l01.o
    0x08001c7c   0x08001c7c   0x00000070   Code   RO          719    i.NRF24L01ReceiveMode  nrf24l01.o
    0x08001cec   0x08001cec   0x0000004c   Code   RO          720    i.NRF24L01_Check    nrf24l01.o
    0x08001d38   0x08001d38   0x00000034   Code   RO          721    i.NRF24L01_RxPacket  nrf24l01.o
    0x08001d6c   0x08001d6c   0x00000070   Code   RO         1670    i.NVIC_Init         misc.o
    0x08001ddc   0x08001ddc   0x00000014   Code   RO         1671    i.NVIC_PriorityGroupConfig  misc.o
    0x08001df0   0x08001df0   0x00000044   Code   RO          935    i.NVIC_config       nvic.o
    0x08001e34   0x08001e34   0x00000054   Code   RO          690    i.NrfACKPacket      parse_packet.o
    0x08001e88   0x08001e88   0x00000002   Code   RO          178    i.PendSV_Handler    stm32f10x_it.o
    0x08001e8a   0x08001e8a   0x000000a4   Code   RO          866    i.PidController     pid.o
    0x08001f2e   0x08001f2e   0x00000100   Code   RO          624    i.PidDataReadFromFlash  flash.o
    0x0800202e   0x0800202e   0x0000009a   Code   RO         1073    i.PidDataSend       usart2.o
    0x080020c8   0x080020c8   0x0000015c   Code   RO          625    i.PidDataWriteToFlash  flash.o
    0x08002224   0x08002224   0x00000044   Code   RO          867    i.PidInit           pid.o
    0x08002268   0x08002268   0x000000e0   Code   RO          997    i.PlaneLockStatus   fc_status.o
    0x08002348   0x08002348   0x000000e0   Code   RO          385    i.PwmInit           pwm.o
    0x08002428   0x08002428   0x0000005c   Code   RO          386    i.PwmOut            pwm.o
    0x08002484   0x08002484   0x00000018   Code   RO         3235    i.RCC_ADCCLKConfig  stm32f10x_rcc.o
    0x0800249c   0x0800249c   0x00000020   Code   RO         3236    i.RCC_AHBPeriphClockCmd  stm32f10x_rcc.o
    0x080024bc   0x080024bc   0x00000020   Code   RO         3237    i.RCC_APB1PeriphClockCmd  stm32f10x_rcc.o
    0x080024dc   0x080024dc   0x00000020   Code   RO         3239    i.RCC_APB2PeriphClockCmd  stm32f10x_rcc.o
    0x080024fc   0x080024fc   0x000000d4   Code   RO         3247    i.RCC_GetClocksFreq  stm32f10x_rcc.o
    0x080025d0   0x080025d0   0x0000001a   Code   RO          304    i.RGB_LED_Blue      led.o
    0x080025ea   0x080025ea   0x0000001a   Code   RO          305    i.RGB_LED_Green     led.o
    0x08002604   0x08002604   0x0000001a   Code   RO          306    i.RGB_LED_Red       led.o
    0x0800261e   0x0800261e   0x00000002   PAD
    0x08002620   0x08002620   0x00000018   Code   RO          307    i.RGB_LED_Reset     led.o
    0x08002638   0x08002638   0x000000b4   Code   RO          308    i.RGB_LED_Write0    led.o
    0x080026ec   0x080026ec   0x000000ac   Code   RO          309    i.RGB_LED_Write1    led.o
    0x08002798   0x08002798   0x0000001c   Code   RO          310    i.RGB_LED_Write_24Bits  led.o
    0x080027b4   0x080027b4   0x00000026   Code   RO          311    i.RGB_LED_Write_Byte  led.o
    0x080027da   0x080027da   0x00000002   PAD
    0x080027dc   0x080027dc   0x00000068   Code   RO          312    i.RGB_LedBlink      led.o
    0x08002844   0x08002844   0x0000003c   Code   RO          313    i.RGB_LedInit       led.o
    0x08002880   0x08002880   0x00000064   Code   RO          314    i.RGB_LedStatus     led.o
    0x080028e4   0x080028e4   0x0000001c   Code   RO          451    i.SDA_IN            iic.o
    0x08002900   0x08002900   0x00000024   Code   RO          452    i.SDA_OUT           iic.o
    0x08002924   0x08002924   0x00000018   Code   RO         3716    i.SPI_Cmd           stm32f10x_spi.o
    0x0800293c   0x0800293c   0x00000012   Code   RO         3724    i.SPI_I2S_GetFlagStatus  stm32f10x_spi.o
    0x0800294e   0x0800294e   0x00000006   Code   RO         3727    i.SPI_I2S_ReceiveData  stm32f10x_spi.o
    0x08002954   0x08002954   0x00000004   Code   RO         3728    i.SPI_I2S_SendData  stm32f10x_spi.o
    0x08002958   0x08002958   0x0000003c   Code   RO         3729    i.SPI_Init          stm32f10x_spi.o
    0x08002994   0x08002994   0x00000040   Code   RO          724    i.SPI_Read_Buf      nrf24l01.o
    0x080029d4   0x080029d4   0x0000002c   Code   RO          725    i.SPI_Read_Reg      nrf24l01.o
    0x08002a00   0x08002a00   0x00000040   Code   RO          726    i.SPI_Write_Buf     nrf24l01.o
    0x08002a40   0x08002a40   0x0000002c   Code   RO          727    i.SPI_Write_Reg     nrf24l01.o
    0x08002a6c   0x08002a6c   0x0000001a   Code   RO          626    i.STM32_FLASH_Read  flash.o
    0x08002a86   0x08002a86   0x00000002   Code   RO          179    i.SVC_Handler       stm32f10x_it.o
    0x08002a88   0x08002a88   0x00000008   Code   RO          230    i.SetSysClock       system_stm32f10x.o
    0x08002a90   0x08002a90   0x000000e0   Code   RO          231    i.SetSysClockTo72   system_stm32f10x.o
    0x08002b70   0x08002b70   0x000000a8   Code   RO          787    i.SpiInit           spi.o
    0x08002c18   0x08002c18   0x00000038   Code   RO          788    i.Spi_RW_Byte       spi.o
    0x08002c50   0x08002c50   0x00000018   Code   RO          271    i.SysTick_Handler   systick.o
    0x08002c68   0x08002c68   0x00000060   Code   RO          233    i.SystemInit        system_stm32f10x.o
    0x08002cc8   0x08002cc8   0x00000030   Code   RO          272    i.SystickInit       systick.o
    0x08002cf8   0x08002cf8   0x0000009c   Code   RO          899    i.TIM3_IRQHandler   timer.o
    0x08002d94   0x08002d94   0x00000018   Code   RO         3859    i.TIM_ARRPreloadConfig  stm32f10x_tim.o
    0x08002dac   0x08002dac   0x00000006   Code   RO         3865    i.TIM_ClearFlag     stm32f10x_tim.o
    0x08002db2   0x08002db2   0x00000018   Code   RO         3871    i.TIM_Cmd           stm32f10x_tim.o
    0x08002dca   0x08002dca   0x0000001e   Code   RO         3873    i.TIM_CtrlPWMOutputs  stm32f10x_tim.o
    0x08002de8   0x08002de8   0x00000012   Code   RO         3896    i.TIM_ITConfig      stm32f10x_tim.o
    0x08002dfa   0x08002dfa   0x00000002   PAD
    0x08002dfc   0x08002dfc   0x00000098   Code   RO         3900    i.TIM_OC1Init       stm32f10x_tim.o
    0x08002e94   0x08002e94   0x00000012   Code   RO         3903    i.TIM_OC1PreloadConfig  stm32f10x_tim.o
    0x08002ea6   0x08002ea6   0x00000002   PAD
    0x08002ea8   0x08002ea8   0x000000a4   Code   RO         3905    i.TIM_OC2Init       stm32f10x_tim.o
    0x08002f4c   0x08002f4c   0x0000001a   Code   RO         3908    i.TIM_OC2PreloadConfig  stm32f10x_tim.o
    0x08002f66   0x08002f66   0x00000002   PAD
    0x08002f68   0x08002f68   0x000000a0   Code   RO         3910    i.TIM_OC3Init       stm32f10x_tim.o
    0x08003008   0x08003008   0x00000012   Code   RO         3913    i.TIM_OC3PreloadConfig  stm32f10x_tim.o
    0x0800301a   0x0800301a   0x00000002   PAD
    0x0800301c   0x0800301c   0x0000007c   Code   RO         3915    i.TIM_OC4Init       stm32f10x_tim.o
    0x08003098   0x08003098   0x0000001a   Code   RO         3917    i.TIM_OC4PreloadConfig  stm32f10x_tim.o
    0x080030b2   0x080030b2   0x00000002   PAD
    0x080030b4   0x080030b4   0x000000a4   Code   RO         3942    i.TIM_TimeBaseInit  stm32f10x_tim.o
    0x08003158   0x08003158   0x0000000e   Code   RO          414    i.ThrottleLimit     imath.o
    0x08003166   0x08003166   0x00000002   PAD
    0x08003168   0x08003168   0x0000004c   Code   RO          900    i.TimerInit         timer.o
    0x080031b4   0x080031b4   0x00000066   Code   RO          315    i.TopLedColorSet    led.o
    0x0800321a   0x0800321a   0x00000002   PAD
    0x0800321c   0x0800321c   0x00000024   Code   RO         1074    i.USART2_IRQHandler  usart2.o
    0x08003240   0x08003240   0x00000012   Code   RO         4403    i.USART_ClearFlag   stm32f10x_usart.o
    0x08003252   0x08003252   0x00000018   Code   RO         4407    i.USART_Cmd         stm32f10x_usart.o
    0x0800326a   0x0800326a   0x00000012   Code   RO         4408    i.USART_DMACmd      stm32f10x_usart.o
    0x0800327c   0x0800327c   0x0000001a   Code   RO         4410    i.USART_GetFlagStatus  stm32f10x_usart.o
    0x08003296   0x08003296   0x00000054   Code   RO         4411    i.USART_GetITStatus  stm32f10x_usart.o
    0x080032ea   0x080032ea   0x0000004a   Code   RO         4413    i.USART_ITConfig    stm32f10x_usart.o
    0x08003334   0x08003334   0x000000d8   Code   RO         4414    i.USART_Init        stm32f10x_usart.o
    0x0800340c   0x0800340c   0x0000000a   Code   RO         4421    i.USART_ReceiveData  stm32f10x_usart.o
    0x08003416   0x08003416   0x00000002   PAD
    0x08003418   0x08003418   0x0000004c   Code   RO          951    i.UnusualProtect    controller.o
    0x08003464   0x08003464   0x00000004   Code   RO          180    i.UsageFault_Handler  stm32f10x_it.o
    0x08003468   0x08003468   0x0000004a   Code   RO         1075    i.Usart2DmaConfig   usart2.o
    0x080034b2   0x080034b2   0x00000002   PAD
    0x080034b4   0x080034b4   0x0000008c   Code   RO         1076    i.Usart2Init        usart2.o
    0x08003540   0x08003540   0x00000038   Code   RO         1077    i.Usart2Send        usart2.o
    0x08003578   0x08003578   0x00000040   Code   RO         1078    i.UsartDMASendData  usart2.o
    0x080035b8   0x080035b8   0x0000009c   Code   RO          826    i.VoltageDetect     adc.o
    0x08003654   0x08003654   0x00000028   Code   RO         4831    i.__ARM_fpclassify  m_ws.l(fpclassify.o)
    0x0800367c   0x0800367c   0x000000aa   Code   RO         4833    i.__kernel_poly     m_ws.l(poly.o)
    0x08003726   0x08003726   0x00000006   Code   RO         4818    i.__mathlib_dbl_infnan  m_ws.l(dunder.o)
    0x0800372c   0x0800372c   0x00000004   Code   RO         4819    i.__mathlib_dbl_infnan2  m_ws.l(dunder.o)
    0x08003730   0x08003730   0x0000000c   Code   RO         4820    i.__mathlib_dbl_invalid  m_ws.l(dunder.o)
    0x0800373c   0x0800373c   0x00000010   Code   RO         4823    i.__mathlib_dbl_underflow  m_ws.l(dunder.o)
    0x0800374c   0x0800374c   0x00000024   Code   RO          952    i._controller_perform  controller.o
    0x08003770   0x08003770   0x000000ac   Code   RO         1144    i.accel_self_test   inv_mpu.o
    0x0800381c   0x0800381c   0x0000008c   Code   RO          827    i.adc_config        adc.o
    0x080038a8   0x080038a8   0x00000024   Code   RO          828    i.adc_gpio_init     adc.o
    0x080038cc   0x080038cc   0x00000270   Code   RO         4759    i.asin              m_ws.l(asin.o)
    0x08003b3c   0x08003b3c   0x00000220   Code   RO         4808    i.atan              m_ws.l(atan.o)
    0x08003d5c   0x08003d5c   0x00000180   Code   RO         4769    i.atan2             m_ws.l(atan2.o)
    0x08003edc   0x08003edc   0x00000064   Code   RO         1478    i.decode_gesture    inv_mpu_dmp_motion_driver.o
    0x08003f40   0x08003f40   0x00000044   Code   RO          273    i.delay_ms          systick.o
    0x08003f84   0x08003f84   0x0000003c   Code   RO          274    i.delay_us          systick.o
    0x08003fc0   0x08003fc0   0x00000022   Code   RO          415    i.direction_to_zero  imath.o
    0x08003fe2   0x08003fe2   0x0000003c   Code   RO         1479    i.dmp_enable_6x_lp_quat  inv_mpu_dmp_motion_driver.o
    0x0800401e   0x0800401e   0x00000002   PAD
    0x08004020   0x08004020   0x0000021c   Code   RO         1480    i.dmp_enable_feature  inv_mpu_dmp_motion_driver.o
    0x0800423c   0x0800423c   0x00000058   Code   RO         1481    i.dmp_enable_gyro_cal  inv_mpu_dmp_motion_driver.o
    0x08004294   0x08004294   0x0000003c   Code   RO         1482    i.dmp_enable_lp_quat  inv_mpu_dmp_motion_driver.o
    0x080042d0   0x080042d0   0x00000018   Code   RO         1487    i.dmp_load_motion_driver_firmware  inv_mpu_dmp_motion_driver.o
    0x080042e8   0x080042e8   0x000001cc   Code   RO         1488    i.dmp_read_fifo     inv_mpu_dmp_motion_driver.o
    0x080044b4   0x080044b4   0x00000130   Code   RO         1491    i.dmp_set_accel_bias  inv_mpu_dmp_motion_driver.o
    0x080045e4   0x080045e4   0x00000070   Code   RO         1492    i.dmp_set_fifo_rate  inv_mpu_dmp_motion_driver.o
    0x08004654   0x08004654   0x00000130   Code   RO         1493    i.dmp_set_gyro_bias  inv_mpu_dmp_motion_driver.o
    0x08004784   0x08004784   0x00000138   Code   RO         1495    i.dmp_set_orientation  inv_mpu_dmp_motion_driver.o
    0x080048bc   0x080048bc   0x00000038   Code   RO         1498    i.dmp_set_shake_reject_thresh  inv_mpu_dmp_motion_driver.o
    0x080048f4   0x080048f4   0x00000026   Code   RO         1499    i.dmp_set_shake_reject_time  inv_mpu_dmp_motion_driver.o
    0x0800491a   0x0800491a   0x00000026   Code   RO         1500    i.dmp_set_shake_reject_timeout  inv_mpu_dmp_motion_driver.o
    0x08004940   0x08004940   0x00000046   Code   RO         1501    i.dmp_set_tap_axes  inv_mpu_dmp_motion_driver.o
    0x08004986   0x08004986   0x00000026   Code   RO         1502    i.dmp_set_tap_count  inv_mpu_dmp_motion_driver.o
    0x080049ac   0x080049ac   0x000001a0   Code   RO         1503    i.dmp_set_tap_thresh  inv_mpu_dmp_motion_driver.o
    0x08004b4c   0x08004b4c   0x00000026   Code   RO         1504    i.dmp_set_tap_time  inv_mpu_dmp_motion_driver.o
    0x08004b72   0x08004b72   0x00000026   Code   RO         1505    i.dmp_set_tap_time_multi  inv_mpu_dmp_motion_driver.o
    0x08004b98   0x08004b98   0x000000b4   Code   RO         1145    i.get_accel_prod_shift  inv_mpu.o
    0x08004c4c   0x08004c4c   0x00000470   Code   RO         1146    i.get_st_biases     inv_mpu.o
    0x080050bc   0x080050bc   0x00000118   Code   RO         1147    i.gyro_self_test    inv_mpu.o
    0x080051d4   0x080051d4   0x00000028   Code   RO         1148    i.inv_orientation_matrix_to_scalar  inv_mpu.o
    0x080051fc   0x080051fc   0x0000004e   Code   RO         1149    i.inv_row_2_scale   inv_mpu.o
    0x0800524a   0x0800524a   0x00000096   Code   RO            1    i.main              main.o
    0x080052e0   0x080052e0   0x00000002   Code   RO         1150    i.mget_ms           inv_mpu.o
    0x080052e2   0x080052e2   0x00000002   PAD
    0x080052e4   0x080052e4   0x00000070   Code   RO         1151    i.mpu_configure_fifo  inv_mpu.o
    0x08005354   0x08005354   0x00000224   Code   RO         1152    i.mpu_dmp_get_data  inv_mpu.o
    0x08005578   0x08005578   0x0000009c   Code   RO         1153    i.mpu_dmp_init      inv_mpu.o
    0x08005614   0x08005614   0x0000004c   Code   RO         1154    i.mpu_get_accel_fsr  inv_mpu.o
    0x08005660   0x08005660   0x00000054   Code   RO         1156    i.mpu_get_accel_sens  inv_mpu.o
    0x080056b4   0x080056b4   0x00000010   Code   RO         1161    i.mpu_get_fifo_config  inv_mpu.o
    0x080056c4   0x080056c4   0x00000044   Code   RO         1162    i.mpu_get_gyro_fsr  inv_mpu.o
    0x08005708   0x08005708   0x00000050   Code   RO         1164    i.mpu_get_gyro_sens  inv_mpu.o
    0x08005758   0x08005758   0x00000050   Code   RO         1166    i.mpu_get_lpf       inv_mpu.o
    0x080057a8   0x080057a8   0x00000020   Code   RO         1168    i.mpu_get_sample_rate  inv_mpu.o
    0x080057c8   0x080057c8   0x00000190   Code   RO         1170    i.mpu_init          inv_mpu.o
    0x08005958   0x08005958   0x000000b8   Code   RO         1171    i.mpu_load_firmware  inv_mpu.o
    0x08005a10   0x08005a10   0x000000e0   Code   RO         1172    i.mpu_lp_accel_mode  inv_mpu.o
    0x08005af0   0x08005af0   0x000000c0   Code   RO         1175    i.mpu_read_fifo_stream  inv_mpu.o
    0x08005bb0   0x08005bb0   0x00000080   Code   RO         1176    i.mpu_read_mem      inv_mpu.o
    0x08005c30   0x08005c30   0x000001c8   Code   RO         1179    i.mpu_reset_fifo    inv_mpu.o
    0x08005df8   0x08005df8   0x0000011c   Code   RO         1180    i.mpu_run_self_test  inv_mpu.o
    0x08005f14   0x08005f14   0x00000084   Code   RO         1182    i.mpu_set_accel_fsr  inv_mpu.o
    0x08005f98   0x08005f98   0x0000014c   Code   RO         1183    i.mpu_set_bypass    inv_mpu.o
    0x080060e4   0x080060e4   0x00000090   Code   RO         1185    i.mpu_set_dmp_state  inv_mpu.o
    0x08006174   0x08006174   0x00000088   Code   RO         1186    i.mpu_set_gyro_fsr  inv_mpu.o
    0x080061fc   0x080061fc   0x0000006c   Code   RO         1187    i.mpu_set_int_latched  inv_mpu.o
    0x08006268   0x08006268   0x00000084   Code   RO         1189    i.mpu_set_lpf       inv_mpu.o
    0x080062ec   0x080062ec   0x0000009c   Code   RO         1190    i.mpu_set_sample_rate  inv_mpu.o
    0x08006388   0x08006388   0x000000d0   Code   RO         1191    i.mpu_set_sensors   inv_mpu.o
    0x08006458   0x08006458   0x00000080   Code   RO         1192    i.mpu_write_mem     inv_mpu.o
    0x080064d8   0x080064d8   0x00000114   Code   RO          691    i.nrf_parse_packet  parse_packet.o
    0x080065ec   0x080065ec   0x00000094   Code   RO         1193    i.run_self_test     inv_mpu.o
    0x08006680   0x08006680   0x00000090   Code   RO         1194    i.set_int_enable    inv_mpu.o
    0x08006710   0x08006710   0x0000004c   Code   RO         4837    i.sqrt              m_ws.l(sqrt.o)
    0x0800675c   0x0800675c   0x00000044   Code   RO          901    i.time_check        timer.o
    0x080067a0   0x080067a0   0x000000a4   Code   RO          805    i.wait_pairing      pair_freq.o
    0x08006844   0x08006844   0x00000062   Code   RO         4704    x$fpl$d2f           fz_ws.l(d2f.o)
    0x080068a6   0x080068a6   0x00000002   PAD
    0x080068a8   0x080068a8   0x00000150   Code   RO         4706    x$fpl$dadd          fz_ws.l(daddsub_clz.o)
    0x080069f8   0x080069f8   0x00000010   Code   RO         4884    x$fpl$dcheck1       fz_ws.l(dcheck1.o)
    0x08006a08   0x08006a08   0x000002b0   Code   RO         4713    x$fpl$ddiv          fz_ws.l(ddiv.o)
    0x08006cb8   0x08006cb8   0x0000002e   Code   RO         4717    x$fpl$dflt          fz_ws.l(dflt_clz.o)
    0x08006ce6   0x08006ce6   0x00000002   PAD
    0x08006ce8   0x08006ce8   0x00000154   Code   RO         4722    x$fpl$dmul          fz_ws.l(dmul.o)
    0x08006e3c   0x08006e3c   0x0000009c   Code   RO         4794    x$fpl$dnaninf       fz_ws.l(dnaninf.o)
    0x08006ed8   0x08006ed8   0x0000000c   Code   RO         4796    x$fpl$dretinf       fz_ws.l(dretinf.o)
    0x08006ee4   0x08006ee4   0x00000016   Code   RO         4707    x$fpl$drsb          fz_ws.l(daddsub_clz.o)
    0x08006efa   0x08006efa   0x00000002   PAD
    0x08006efc   0x08006efc   0x000001cc   Code   RO         4888    x$fpl$dsqrt         fz_ws.l(dsqrt_noumaal.o)
    0x080070c8   0x080070c8   0x000001d4   Code   RO         4708    x$fpl$dsub          fz_ws.l(daddsub_clz.o)
    0x0800729c   0x0800729c   0x00000056   Code   RO         4724    x$fpl$f2d           fz_ws.l(f2d.o)
    0x080072f2   0x080072f2   0x00000002   PAD
    0x080072f4   0x080072f4   0x000000c4   Code   RO         4726    x$fpl$fadd          fz_ws.l(faddsub_clz.o)
    0x080073b8   0x080073b8   0x00000018   Code   RO         4798    x$fpl$fcmpinf       fz_ws.l(fcmpi.o)
    0x080073d0   0x080073d0   0x00000184   Code   RO         4733    x$fpl$fdiv          fz_ws.l(fdiv.o)
    0x08007554   0x08007554   0x00000068   Code   RO         4736    x$fpl$feqf          fz_ws.l(feqf.o)
    0x080075bc   0x080075bc   0x00000036   Code   RO         4738    x$fpl$ffix          fz_ws.l(ffix.o)
    0x080075f2   0x080075f2   0x00000002   PAD
    0x080075f4   0x080075f4   0x0000003e   Code   RO         4742    x$fpl$ffixu         fz_ws.l(ffixu.o)
    0x08007632   0x08007632   0x00000002   PAD
    0x08007634   0x08007634   0x00000030   Code   RO         4747    x$fpl$fflt          fz_ws.l(fflt_clz.o)
    0x08007664   0x08007664   0x00000026   Code   RO         4746    x$fpl$ffltu         fz_ws.l(fflt_clz.o)
    0x0800768a   0x0800768a   0x00000002   PAD
    0x0800768c   0x0800768c   0x00000068   Code   RO         4752    x$fpl$fleqf         fz_ws.l(fleqf.o)
    0x080076f4   0x080076f4   0x00000102   Code   RO         4754    x$fpl$fmul          fz_ws.l(fmul.o)
    0x080077f6   0x080077f6   0x0000008c   Code   RO         4800    x$fpl$fnaninf       fz_ws.l(fnaninf.o)
    0x08007882   0x08007882   0x0000000a   Code   RO         4802    x$fpl$fretinf       fz_ws.l(fretinf.o)
    0x0800788c   0x0800788c   0x00000062   Code   RO         4756    x$fpl$frleqf        fz_ws.l(frleqf.o)
    0x080078ee   0x080078ee   0x00000002   PAD
    0x080078f0   0x080078f0   0x000000ea   Code   RO         4728    x$fpl$fsub          fz_ws.l(faddsub_clz.o)
    0x080079da   0x080079da   0x00000064   Code   RO         5052    x$fpl$retnan        fz_ws.l(retnan.o)
    0x08007a3e   0x08007a3e   0x0000005c   Code   RO         4804    x$fpl$scalbn        fz_ws.l(scalbn.o)
    0x08007a9a   0x08007a9a   0x00000030   Code   RO         5114    x$fpl$trapveneer    fz_ws.l(trapv.o)
    0x08007aca   0x08007aca   0x00000000   Code   RO         4806    x$fpl$usenofp       fz_ws.l(usenofp.o)
    0x08007aca   0x08007aca   0x00000002   PAD
    0x08007acc   0x08007acc   0x0000012c   Data   RO          869    .constdata          pid.o
    0x08007bf8   0x08007bf8   0x00000050   Data   RO         1196    .constdata          inv_mpu.o
    0x08007c48   0x08007c48   0x00000bf6   Data   RO         1507    .constdata          inv_mpu_dmp_motion_driver.o
    0x0800883e   0x0800883e   0x00000002   PAD
    0x08008840   0x08008840   0x00000050   Data   RO         4760    .constdata          m_ws.l(asin.o)
    0x08008890   0x08008890   0x00000098   Data   RO         4809    .constdata          m_ws.l(atan.o)
    0x08008928   0x08008928   0x00000008   Data   RO         4835    .constdata          m_ws.l(qnan.o)
    0x08008930   0x08008930   0x00000020   Data   RO         5197    Region$$Table       anon$$obj.o


    Execution Region RW_IRAM1 (Exec base: 0x20000000, Load base: 0x08008950, Size: 0x00000a80, Max: 0x00005000, ABSOLUTE)

    Exec Addr    Load Addr    Size         Type   Attr      Idx    E Section Name        Object

    0x20000000   0x08008950   0x00000014   Data   RW          234    .data               system_stm32f10x.o
    0x20000014   0x08008964   0x00000004   Data   RW          275    .data               systick.o
    0x20000018   0x08008968   0x00000004   Data   RW          316    .data               led.o
    0x2000001c   0x0800896c   0x00000004   Data   RW          387    .data               pwm.o
    0x20000020   0x08008970   0x00000003   Data   RW          633    .data               flash.o
    0x20000023   0x08008973   0x00000006   Data   RW          806    .data               pair_freq.o
    0x20000029   0x08008979   0x00000003   PAD
    0x2000002c   0x0800897c   0x0000000c   Data   RW          829    .data               adc.o
    0x20000038   0x08008988   0x00000004   Data   RW          870    .data               pid.o
    0x2000003c   0x0800898c   0x00000004   Data   RW          903    .data               timer.o
    0x20000040   0x08008990   0x00000016   Data   RW          953    .data               controller.o
    0x20000056   0x080089a6   0x00000003   Data   RW         1080    .data               usart2.o
    0x20000059   0x080089a9   0x00000003   PAD
    0x2000005c   0x080089ac   0x00000035   Data   RW         1197    .data               inv_mpu.o
    0x20000091   0x080089e1   0x00000014   Data   RW         3267    .data               stm32f10x_rcc.o
    0x200000a5   0x080089f5   0x00000003   PAD
    0x200000a8        -       0x00000024   Zero   RW          528    .bss                mpu6050.o
    0x200000cc        -       0x0000003c   Zero   RW          692    .bss                parse_packet.o
    0x20000108        -       0x00000294   Zero   RW          868    .bss                pid.o
    0x2000039c        -       0x00000020   Zero   RW          902    .bss                timer.o
    0x200003bc        -       0x0000001c   Zero   RW         1021    .bss                imu.o
    0x200003d8        -       0x00000032   Zero   RW         1079    .bss                usart2.o
    0x2000040a   0x080089f5   0x00000002   PAD
    0x2000040c        -       0x00000010   Zero   RW         1506    .bss                inv_mpu_dmp_motion_driver.o
    0x2000041c        -       0x00000060   Zero   RW         4896    .bss                c_w.l(libspace.o)
    0x2000047c   0x080089f5   0x00000004   PAD
    0x20000480        -       0x00000200   Zero   RW          265    HEAP                startup_stm32f10x_md.o
    0x20000680        -       0x00000400   Zero   RW          264    STACK               startup_stm32f10x_md.o


==============================================================================

Image component sizes


      Code (inc. data)   RO Data    RW Data    ZI Data      Debug   Object Name

       444         50          0         12          0       3166   adc.o
       864         98          0         22          0       3943   controller.o
         0          0          0          0          0         32   core_cm3.o
       224         14          0          0          0        554   fc_status.o
       630          6          0          3          0       3149   flash.o
       602         82          0          0          0       5097   iic.o
        48          0          0          0          0       1152   imath.o
       112         12          0          0         28       1874   imu.o
      6776        216         80         53          0      33895   inv_mpu.o
      3096        122       3062          0         16      19686   inv_mpu_dmp_motion_driver.o
       886         44          0          4          0       6784   led.o
       150          0          0          0          0     287811   main.o
       132         22          0          0          0       1511   misc.o
       684          0          0          0         36       8921   mpu6050.o
       532         44          0          0          0       5048   nrf24l01.o
        68          0          0          0          0        482   nvic.o
       164         16          0          6          0       1078   pair_freq.o
       360         28          0          0         60       2597   parse_packet.o
       438         26        300          4        660       2681   pid.o
       316         26          0          4          0       1516   pwm.o
       224         18          0          0          0       1084   spi.o
        64         26        236          0       1536        788   startup_stm32f10x_md.o
       370         10          0          0          0       6517   stm32f10x_adc.o
       420          8          0          0          0       3871   stm32f10x_dma.o
       330         38          0          0          0       5154   stm32f10x_flash.o
       286          0          0          0          0       2968   stm32f10x_gpio.o
        24          0          0          0          0       3348   stm32f10x_it.o
       332         44          0         20          0       5361   stm32f10x_rcc.o
       112          0          0          0          0       3678   stm32f10x_spi.o
       954         92          0          0          0       8632   stm32f10x_tim.o
       470          6          0          0          0       6497   stm32f10x_usart.o
       328         28          0         20          0       2241   system_stm32f10x.o
       200         26          0          4          0       1922   systick.o
       300         46          0          4         32       2428   timer.o
      2636        108          0          3         50       7745   usart2.o

    ----------------------------------------------------------------------
     23612       1256       3712        168       2420     453211   Object Totals
         0          0         32          0          0          0   (incl. Generated)
        36          0          2          9          2          0   (incl. Padding)

    ----------------------------------------------------------------------

      Code (inc. data)   RO Data    RW Data    ZI Data      Debug   Library Member Name

         8          0          0          0          0         68   __main.o
         0          0          0          0          0          0   __rtentry.o
        12          0          0          0          0          0   __rtentry2.o
         6          0          0          0          0          0   __rtentry4.o
        52          8          0          0          0          0   __scatter.o
        26          0          0          0          0          0   __scatter_copy.o
        28          0          0          0          0          0   __scatter_zi.o
        22          0          0          0          0        100   _rserrno.o
        16          0          0          0          0         68   aeabi_memset.o
        18          0          0          0          0         80   exit.o
         6          0          0          0          0        152   heapauxi.o
         0          0          0          0          0          0   indicate_semi.o
         2          0          0          0          0          0   libinit.o
         2          0          0          0          0          0   libinit2.o
         2          0          0          0          0          0   libshutdown.o
         2          0          0          0          0          0   libshutdown2.o
         8          4          0          0         96         68   libspace.o
        72          0          0          0          0         76   llsdiv.o
       238          0          0          0          0        100   lludivv7m.o
        88          0          0          0          0         76   memcmp.o
         8          4          0          0          0         68   rt_errno_addr_intlibspace.o
        68          0          0          0          0         68   rt_memclr.o
        78          0          0          0          0         80   rt_memclr_w.o
       100          0          0          0          0         80   rt_memcpy_w.o
         2          0          0          0          0          0   rtexit.o
        10          0          0          0          0          0   rtexit2.o
        12          4          0          0          0         68   sys_exit.o
        74          0          0          0          0         80   sys_stackheap_outer.o
         2          0          0          0          0         68   use_no_semi.o
        98          4          0          0          0         92   d2f.o
       826         16          0          0          0        348   daddsub_clz.o
        16          4          0          0          0         68   dcheck1.o
       688        140          0          0          0        208   ddiv.o
        46          0          0          0          0         68   dflt_clz.o
       340         12          0          0          0        104   dmul.o
       156          4          0          0          0         92   dnaninf.o
        12          0          0          0          0         68   dretinf.o
       460         56          0          0          0        120   dsqrt_noumaal.o
        86          4          0          0          0         84   f2d.o
       430          8          0          0          0        168   faddsub_clz.o
        24          0          0          0          0         68   fcmpi.o
       388         76          0          0          0         96   fdiv.o
       104          4          0          0          0         84   feqf.o
        54          4          0          0          0         84   ffix.o
        62          4          0          0          0         84   ffixu.o
        86          0          0          0          0        136   fflt_clz.o
       104          4          0          0          0         84   fleqf.o
       258          4          0          0          0         84   fmul.o
       140          4          0          0          0         84   fnaninf.o
        10          0          0          0          0         68   fretinf.o
        98          0          0          0          0         68   frleqf.o
       100          0          0          0          0         68   retnan.o
        92          0          0          0          0         68   scalbn.o
        48          0          0          0          0         68   trapv.o
         0          0          0          0          0          0   usenofp.o
       624         52         80          0          0        168   asin.o
       544         70        152          0          0        124   atan.o
       384         38          0          0          0        144   atan2.o
        38          6          0          0          0        272   dunder.o
        40          0          0          0          0         68   fpclassify.o
       170          0          0          0          0         96   poly.o
         0          0          8          0          0          0   qnan.o
        76          0          0          0          0         84   sqrt.o

    ----------------------------------------------------------------------
      7588        534        240          0        100       4820   Library Totals
        24          0          0          0          4          0   (incl. Padding)

    ----------------------------------------------------------------------

      Code (inc. data)   RO Data    RW Data    ZI Data      Debug   Library Name

       962         20          0          0         96       1300   c_w.l
      4726        348          0          0          0       2564   fz_ws.l
      1876        166        240          0          0        956   m_ws.l

    ----------------------------------------------------------------------
      7588        534        240          0        100       4820   Library Totals

    ----------------------------------------------------------------------

==============================================================================


      Code (inc. data)   RO Data    RW Data    ZI Data      Debug   

     31200       1790       3952        168       2520     444611   Grand Totals
     31200       1790       3952        168       2520     444611   ELF Image Totals
     31200       1790       3952        168          0          0   ROM Totals

==============================================================================

    Total RO  Size (Code + RO Data)                35152 (  34.33kB)
    Total RW  Size (RW Data + ZI Data)              2688 (   2.63kB)
    Total ROM Size (Code + RO Data + RW Data)      35320 (  34.49kB)

==============================================================================

