Component: ARM Compiler 5.06 update 6 (build 750) Tool: armlink [4d35ed]

==============================================================================

Section Cross References

    main.o(i.main) refers to system_stm32f10x.o(i.SystemInit) for SystemInit
    main.o(i.main) refers to systick.o(i.SystickInit) for SystickInit
    main.o(i.main) refers to led.o(i.LedInit) for LedInit
    main.o(i.main) refers to usart2.o(i.Usart2Init) for Usart2Init
    main.o(i.main) refers to pwm.o(i.PwmInit) for PwmInit
    main.o(i.main) refers to systick.o(i.delay_ms) for delay_ms
    main.o(i.main) refers to iic.o(i.I2cInit) for I2cInit
    main.o(i.main) refers to mpu6050.o(i.mpu6050_init) for mpu6050_init
    main.o(i.main) refers to led.o(i.TopLedBlink) for TopLedBlink
    main.o(i.main) refers to mpu6050.o(i.get_mpu_id) for get_mpu_id
    main.o(i.main) refers to spi.o(i.SpiInit) for SpiInit
    main.o(i.main) refers to nrf24l01.o(i.NRF24L01Init) for NRF24L01Init
    main.o(i.main) refers to nrf24l01.o(i.NRF24L01_Check) for NRF24L01_Check
    main.o(i.main) refers to nrf24l01.o(i.NRF24L01ReceiveMode) for NRF24L01ReceiveMode
    main.o(i.main) refers to mpu6050.o(i.get_iir_factor) for get_iir_factor
    main.o(i.main) refers to adc.o(i.AdcInit) for AdcInit
    main.o(i.main) refers to pid.o(i.AllPidInit) for AllPidInit
    main.o(i.main) refers to acc_cal.o(i.read_cal_dat) for read_cal_dat
==============================================================================

Removing Unused input sections from the image.

    Removing core_cm3.o(.emb_text), (32 bytes).
    Removing system_stm32f10x.o(i.SystemCoreClockUpdate), (164 bytes).
    Removing systick.o(i.delay_us), (60 bytes).
    Removing iic.o(i.IIC_Read_Two_Bytes), (38 bytes).
    Removing mpu6050.o(i.acc_butterworth_lpf), (56 bytes).
    Removing acc_cal.o(i.Calibrate_Find_Delta), (306 bytes).
    Removing acc_cal.o(i.Calibrate_Reset_Matrices), (52 bytes).
    Removing acc_cal.o(i.Calibrate_Update_Matrices), (254 bytes).
    Removing acc_cal.o(i.Calibrate_accel), (620 bytes).
    Removing acc_cal.o(i.acc_cal), (480 bytes).
    Removing acc_cal.o(i.fabsf), (8 bytes).
    Removing gyro_cal.o(i.gyro_cal), (196 bytes).
    Removing flash.o(i.STM32_FLASH_ReadHalfWord), (6 bytes).
    Removing flash.o(i.flash_read_bytes), (32 bytes).
    Removing flash.o(i.flash_write_cal), (264 bytes).
    Removing flash.o(i.flash_write_harfword), (64 bytes).
    Removing flash.o(i.flash_write_word), (64 bytes).
    Removing nrf24l01.o(i.NRF24L01_TX_Mode), (108 bytes).
==============================================================================

Image Symbol Table

    Local Symbols

    Symbol Name                              Value     Ov Type        Size  Object(Section)

    ../clib/angel/boardlib.s                 0x00000000   Number         0  boardinit3.o ABSOLUTE
    ../clib/angel/boardlib.s                 0x00000000   Number         0  boardinit2.o ABSOLUTE
    ../clib/angel/boardlib.s                 0x00000000   Number         0  boardinit1.o ABSOLUTE
    ../clib/angel/boardlib.s                 0x00000000   Number         0  boardshut.o ABSOLUTE
    ../clib/angel/handlers.s                 0x00000000   Number         0  __scatter_zi.o ABSOLUTE
    ../clib/angel/handlers.s                 0x00000000   Number         0  __scatter_copy.o ABSOLUTE
    ../clib/angel/kernel.s                   0x00000000   Number         0  __rtentry2.o ABSOLUTE
    ../clib/angel/kernel.s                   0x00000000   Number         0  rtexit.o ABSOLUTE
    ../clib/angel/kernel.s                   0x00000000   Number         0  rtexit2.o ABSOLUTE
    ../clib/angel/kernel.s                   0x00000000   Number         0  __rtentry.o ABSOLUTE
    ../clib/angel/kernel.s                   0x00000000   Number         0  __rtentry4.o ABSOLUTE
    ../clib/angel/rt.s                       0x00000000   Number         0  rt_raise.o ABSOLUTE
    ../clib/angel/rt.s                       0x00000000   Number         0  rt_errno_addr_intlibspace.o ABSOLUTE
    ../clib/angel/rt.s                       0x00000000   Number         0  rt_errno_addr.o ABSOLUTE
    ../clib/angel/scatter.s                  0x00000000   Number         0  __scatter.o ABSOLUTE
    ../clib/angel/startup.s                  0x00000000   Number         0  __main.o ABSOLUTE
    ../clib/angel/sys.s                      0x00000000   Number         0  libspace.o ABSOLUTE
    ../clib/angel/sys.s                      0x00000000   Number         0  indicate_semi.o ABSOLUTE
    ../clib/angel/sys.s                      0x00000000   Number         0  use_no_semi.o ABSOLUTE
    ../clib/angel/sys.s                      0x00000000   Number         0  sys_stackheap_outer.o ABSOLUTE
    ../clib/angel/sysapp.c                   0x00000000   Number         0  sys_command.o ABSOLUTE
    ../clib/angel/sysapp.c                   0x00000000   Number         0  sys_wrch.o ABSOLUTE
    ../clib/angel/sysapp.c                   0x00000000   Number         0  sys_exit.o ABSOLUTE
    ../clib/armsys.c                         0x00000000   Number         0  argv_veneer.o ABSOLUTE
    ../clib/armsys.c                         0x00000000   Number         0  no_argv.o ABSOLUTE
    ../clib/armsys.c                         0x00000000   Number         0  _get_argv_nomalloc.o ABSOLUTE
    ../clib/armsys.c                         0x00000000   Number         0  argv_veneer.o ABSOLUTE
    ../clib/fenv.c                           0x00000000   Number         0  _rserrno.o ABSOLUTE
    ../clib/heapalloc.c                      0x00000000   Number         0  hrguard.o ABSOLUTE
    ../clib/heapaux.c                        0x00000000   Number         0  heapauxi.o ABSOLUTE
    ../clib/libinit.s                        0x00000000   Number         0  libshutdown.o ABSOLUTE
    ../clib/libinit.s                        0x00000000   Number         0  libinit2.o ABSOLUTE
    ../clib/libinit.s                        0x00000000   Number         0  libinit.o ABSOLUTE
    ../clib/libinit.s                        0x00000000   Number         0  libshutdown2.o ABSOLUTE
    ../clib/memcpset.s                       0x00000000   Number         0  rt_memclr_w.o ABSOLUTE
    ../clib/memcpset.s                       0x00000000   Number         0  rt_memcpy_w.o ABSOLUTE
    ../clib/signal.c                         0x00000000   Number         0  defsig_exit.o ABSOLUTE
    ../clib/signal.c                         0x00000000   Number         0  defsig_general.o ABSOLUTE
    ../clib/signal.c                         0x00000000   Number         0  defsig_rtmem_inner.o ABSOLUTE
    ../clib/signal.c                         0x00000000   Number         0  defsig_rtmem_formal.o ABSOLUTE
    ../clib/signal.c                         0x00000000   Number         0  defsig_rtmem_outer.o ABSOLUTE
    ../clib/signal.c                         0x00000000   Number         0  __raise.o ABSOLUTE
    ../clib/signal.c                         0x00000000   Number         0  defsig_cppl_inner.o ABSOLUTE
    ../clib/signal.c                         0x00000000   Number         0  defsig_other.o ABSOLUTE
    ../clib/signal.c                         0x00000000   Number         0  defsig_segv_inner.o ABSOLUTE
    ../clib/signal.c                         0x00000000   Number         0  defsig_pvfn_inner.o ABSOLUTE
    ../clib/signal.c                         0x00000000   Number         0  defsig_stak_inner.o ABSOLUTE
    ../clib/signal.c                         0x00000000   Number         0  defsig_rtred_inner.o ABSOLUTE
    ../clib/signal.c                         0x00000000   Number         0  defsig_fpe_inner.o ABSOLUTE
    ../clib/signal.c                         0x00000000   Number         0  defsig_abrt_inner.o ABSOLUTE
    ../clib/signal.s                         0x00000000   Number         0  defsig.o ABSOLUTE
    ../clib/stdlib.c                         0x00000000   Number         0  exit.o ABSOLUTE
    ../fplib/d2f.s                           0x00000000   Number         0  d2f.o ABSOLUTE
    ../fplib/daddsub.s                       0x00000000   Number         0  daddsub_clz.o ABSOLUTE
    ../fplib/dcheck1.s                       0x00000000   Number         0  dcheck1.o ABSOLUTE
    ../fplib/dcmpi.s                         0x00000000   Number         0  dcmpi.o ABSOLUTE
    ../fplib/ddiv.s                          0x00000000   Number         0  ddiv.o ABSOLUTE
    ../fplib/dfix.s                          0x00000000   Number         0  dfix.o ABSOLUTE
    ../fplib/dflt.s                          0x00000000   Number         0  dflt_clz.o ABSOLUTE
    ../fplib/dleqf.s                         0x00000000   Number         0  dleqf.o ABSOLUTE
    ../fplib/dmul.s                          0x00000000   Number         0  dmul.o ABSOLUTE
    ../fplib/dnaninf.s                       0x00000000   Number         0  dnaninf.o ABSOLUTE
    ../fplib/dretinf.s                       0x00000000   Number         0  dretinf.o ABSOLUTE
    ../fplib/dsqrt.s                         0x00000000   Number         0  dsqrt_noumaal.o ABSOLUTE
    ../fplib/f2d.s                           0x00000000   Number         0  f2d.o ABSOLUTE
    ../fplib/faddsub.s                       0x00000000   Number         0  faddsub_clz.o ABSOLUTE
    ../fplib/fcmpi.s                         0x00000000   Number         0  fcmpi.o ABSOLUTE
    ../fplib/fdiv.s                          0x00000000   Number         0  fdiv.o ABSOLUTE
    ../fplib/feqf.s                          0x00000000   Number         0  feqf.o ABSOLUTE
    ../fplib/ffix.s                          0x00000000   Number         0  ffix.o ABSOLUTE
    ../fplib/ffixu.s                         0x00000000   Number         0  ffixu.o ABSOLUTE
    ../fplib/fflt.s                          0x00000000   Number         0  fflt_clz.o ABSOLUTE
    ../fplib/fleqf.s                         0x00000000   Number         0  fleqf.o ABSOLUTE
    ../fplib/fmul.s                          0x00000000   Number         0  fmul.o ABSOLUTE
    ../fplib/fnaninf.s                       0x00000000   Number         0  fnaninf.o ABSOLUTE
    ../fplib/fpinit.s                        0x00000000   Number         0  fpinit.o ABSOLUTE
    ../fplib/fretinf.s                       0x00000000   Number         0  fretinf.o ABSOLUTE
    ../fplib/frleqf.s                        0x00000000   Number         0  frleqf.o ABSOLUTE
    ../fplib/retnan.s                        0x00000000   Number         0  retnan.o ABSOLUTE
    ../fplib/scalbn.s                        0x00000000   Number         0  scalbn.o ABSOLUTE
    ../fplib/trapv.s                         0x00000000   Number         0  trapv.o ABSOLUTE
    ../fplib/usenofp.s                       0x00000000   Number         0  usenofp.o ABSOLUTE
    ../mathlib/asin.c                        0x00000000   Number         0  asin_x.o ABSOLUTE
    ../mathlib/asin.c                        0x00000000   Number         0  asin.o ABSOLUTE
    ../mathlib/atan.c                        0x00000000   Number         0  atan.o ABSOLUTE
    ../mathlib/atan.c                        0x00000000   Number         0  atan_x.o ABSOLUTE
    ../mathlib/atan2.c                       0x00000000   Number         0  atan2.o ABSOLUTE
    ../mathlib/atan2.c                       0x00000000   Number         0  atan2_x.o ABSOLUTE
    ../mathlib/cos.c                         0x00000000   Number         0  cos.o ABSOLUTE
    ../mathlib/cos.c                         0x00000000   Number         0  cos_x.o ABSOLUTE
    ../mathlib/cos_i.c                       0x00000000   Number         0  cos_i.o ABSOLUTE
    ../mathlib/dunder.c                      0x00000000   Number         0  dunder.o ABSOLUTE
    ../mathlib/fpclassify.c                  0x00000000   Number         0  fpclassify.o ABSOLUTE
    ../mathlib/poly.c                        0x00000000   Number         0  poly.o ABSOLUTE
    ../mathlib/qnan.c                        0x00000000   Number         0  qnan.o ABSOLUTE
    ../mathlib/rred.c                        0x00000000   Number         0  rred.o ABSOLUTE
    ../mathlib/sin.c                         0x00000000   Number         0  sin.o ABSOLUTE
    ../mathlib/sin.c                         0x00000000   Number         0  sin_x.o ABSOLUTE
    ../mathlib/sin_i.c                       0x00000000   Number         0  sin_i.o ABSOLUTE
    ../mathlib/sin_i.c                       0x00000000   Number         0  sin_i_x.o ABSOLUTE
    ../mathlib/sqrt.c                        0x00000000   Number         0  sqrt.o ABSOLUTE
    ../mathlib/sqrt.c                        0x00000000   Number         0  sqrt_x.o ABSOLUTE
    ..\CMSIS\inc\startup_stm32f10x_md.s      0x00000000   Number         0  startup_stm32f10x_md.o ABSOLUTE
    ..\CMSIS\src\core_cm3.c                  0x00000000   Number         0  core_cm3.o ABSOLUTE
    ..\CMSIS\src\stm32f10x_it.c              0x00000000   Number         0  stm32f10x_it.o ABSOLUTE
    ..\CMSIS\src\system_stm32f10x.c          0x00000000   Number         0  system_stm32f10x.o ABSOLUTE
    ..\LIB\src\misc.c                        0x00000000   Number         0  misc.o ABSOLUTE
    ..\LIB\src\stm32f10x_adc.c               0x00000000   Number         0  stm32f10x_adc.o ABSOLUTE
    ..\LIB\src\stm32f10x_bkp.c               0x00000000   Number         0  stm32f10x_bkp.o ABSOLUTE
    ..\LIB\src\stm32f10x_can.c               0x00000000   Number         0  stm32f10x_can.o ABSOLUTE
    ..\LIB\src\stm32f10x_cec.c               0x00000000   Number         0  stm32f10x_cec.o ABSOLUTE
    ..\LIB\src\stm32f10x_crc.c               0x00000000   Number         0  stm32f10x_crc.o ABSOLUTE
    ..\LIB\src\stm32f10x_dac.c               0x00000000   Number         0  stm32f10x_dac.o ABSOLUTE
    ..\LIB\src\stm32f10x_dbgmcu.c            0x00000000   Number         0  stm32f10x_dbgmcu.o ABSOLUTE
    ..\LIB\src\stm32f10x_dma.c               0x00000000   Number         0  stm32f10x_dma.o ABSOLUTE
    ..\LIB\src\stm32f10x_exti.c              0x00000000   Number         0  stm32f10x_exti.o ABSOLUTE
    ..\LIB\src\stm32f10x_flash.c             0x00000000   Number         0  stm32f10x_flash.o ABSOLUTE
    ..\LIB\src\stm32f10x_fsmc.c              0x00000000   Number         0  stm32f10x_fsmc.o ABSOLUTE
    ..\LIB\src\stm32f10x_gpio.c              0x00000000   Number         0  stm32f10x_gpio.o ABSOLUTE
    ..\LIB\src\stm32f10x_i2c.c               0x00000000   Number         0  stm32f10x_i2c.o ABSOLUTE
    ..\LIB\src\stm32f10x_iwdg.c              0x00000000   Number         0  stm32f10x_iwdg.o ABSOLUTE
    ..\LIB\src\stm32f10x_pwr.c               0x00000000   Number         0  stm32f10x_pwr.o ABSOLUTE
    ..\LIB\src\stm32f10x_rcc.c               0x00000000   Number         0  stm32f10x_rcc.o ABSOLUTE
    ..\LIB\src\stm32f10x_rtc.c               0x00000000   Number         0  stm32f10x_rtc.o ABSOLUTE
    ..\LIB\src\stm32f10x_sdio.c              0x00000000   Number         0  stm32f10x_sdio.o ABSOLUTE
    ..\LIB\src\stm32f10x_spi.c               0x00000000   Number         0  stm32f10x_spi.o ABSOLUTE
    ..\LIB\src\stm32f10x_tim.c               0x00000000   Number         0  stm32f10x_tim.o ABSOLUTE
    ..\LIB\src\stm32f10x_usart.c             0x00000000   Number         0  stm32f10x_usart.o ABSOLUTE
    ..\LIB\src\stm32f10x_wwdg.c              0x00000000   Number         0  stm32f10x_wwdg.o ABSOLUTE
    ..\OBJ\acc_cal.c                         0x00000000   Number         0  acc_cal.o ABSOLUTE
    ..\OBJ\adc.c                             0x00000000   Number         0  adc.o ABSOLUTE
    ..\OBJ\controller.c                      0x00000000   Number         0  controller.o ABSOLUTE
    ..\OBJ\fc_status.c                       0x00000000   Number         0  fc_status.o ABSOLUTE
    ..\OBJ\flash.c                           0x00000000   Number         0  flash.o ABSOLUTE
    ..\OBJ\gyro_cal.c                        0x00000000   Number         0  gyro_cal.o ABSOLUTE
    ..\OBJ\iic.c                             0x00000000   Number         0  iic.o ABSOLUTE
    ..\OBJ\imath.c                           0x00000000   Number         0  imath.o ABSOLUTE
    ..\OBJ\imu.c                             0x00000000   Number         0  imu.o ABSOLUTE
    ..\OBJ\led.c                             0x00000000   Number         0  led.o ABSOLUTE
    ..\OBJ\mpu6050.c                         0x00000000   Number         0  mpu6050.o ABSOLUTE
    ..\OBJ\nav.c                             0x00000000   Number         0  nav.o ABSOLUTE
    ..\OBJ\nrf24l01.c                        0x00000000   Number         0  nrf24l01.o ABSOLUTE
    ..\OBJ\nvic.c                            0x00000000   Number         0  nvic.o ABSOLUTE
    ..\OBJ\pair_freq.c                       0x00000000   Number         0  pair_freq.o ABSOLUTE
    ..\OBJ\parse_packet.c                    0x00000000   Number         0  parse_packet.o ABSOLUTE
    ..\OBJ\pid.c                             0x00000000   Number         0  pid.o ABSOLUTE
    ..\OBJ\pwm.c                             0x00000000   Number         0  pwm.o ABSOLUTE
    ..\OBJ\spi.c                             0x00000000   Number         0  spi.o ABSOLUTE
    ..\OBJ\systick.c                         0x00000000   Number         0  systick.o ABSOLUTE
    ..\OBJ\timer.c                           0x00000000   Number         0  timer.o ABSOLUTE
    ..\OBJ\usart2.c                          0x00000000   Number         0  usart2.o ABSOLUTE
    ..\\CMSIS\\src\\core_cm3.c               0x00000000   Number         0  core_cm3.o ABSOLUTE
    dc.s                                     0x00000000   Number         0  dc.o ABSOLUTE
    main.c                                   0x00000000   Number         0  main.o ABSOLUTE
    RESET                                    0x08000000   Section      236  startup_stm32f10x_md.o(RESET)
    !!!main                                  0x080000ec   Section        8  __main.o(!!!main)
    !!!scatter                               0x080000f4   Section       52  __scatter.o(!!!scatter)
    !!handler_copy                           0x08000128   Section       26  __scatter_copy.o(!!handler_copy)
    !!handler_zi                             0x08000144   Section       28  __scatter_zi.o(!!handler_zi)
    .ARM.Collect$$libinit$$00000000          0x08000160   Section        2  libinit.o(.ARM.Collect$$libinit$$00000000)
    .ARM.Collect$$libinit$$00000002          0x08000162   Section        0  libinit2.o(.ARM.Collect$$libinit$$00000002)
    .ARM.Collect$$libinit$$00000004          0x08000162   Section        0  libinit2.o(.ARM.Collect$$libinit$$00000004)
    .ARM.Collect$$libinit$$0000000A          0x08000162   Section        0  libinit2.o(.ARM.Collect$$libinit$$0000000A)
    .ARM.Collect$$libinit$$0000000C          0x08000162   Section        0  libinit2.o(.ARM.Collect$$libinit$$0000000C)
    .ARM.Collect$$libinit$$0000000E          0x08000162   Section        0  libinit2.o(.ARM.Collect$$libinit$$0000000E)
    .ARM.Collect$$libinit$$00000011          0x08000162   Section        0  libinit2.o(.ARM.Collect$$libinit$$00000011)
    .ARM.Collect$$libinit$$00000013          0x08000162   Section        0  libinit2.o(.ARM.Collect$$libinit$$00000013)
    .ARM.Collect$$libinit$$00000015          0x08000162   Section        0  libinit2.o(.ARM.Collect$$libinit$$00000015)
    .ARM.Collect$$libinit$$00000017          0x08000162   Section        0  libinit2.o(.ARM.Collect$$libinit$$00000017)
    .ARM.Collect$$libinit$$00000019          0x08000162   Section        0  libinit2.o(.ARM.Collect$$libinit$$00000019)
    .ARM.Collect$$libinit$$0000001B          0x08000162   Section        0  libinit2.o(.ARM.Collect$$libinit$$0000001B)
    .ARM.Collect$$libinit$$0000001D          0x08000162   Section        0  libinit2.o(.ARM.Collect$$libinit$$0000001D)
    .ARM.Collect$$libinit$$0000001F          0x08000162   Section        0  libinit2.o(.ARM.Collect$$libinit$$0000001F)
    .ARM.Collect$$libinit$$00000021          0x08000162   Section        0  libinit2.o(.ARM.Collect$$libinit$$00000021)
    .ARM.Collect$$libinit$$00000023          0x08000162   Section        0  libinit2.o(.ARM.Collect$$libinit$$00000023)
    .ARM.Collect$$libinit$$00000025          0x08000162   Section        0  libinit2.o(.ARM.Collect$$libinit$$00000025)
    .ARM.Collect$$libinit$$0000002C          0x08000162   Section        0  libinit2.o(.ARM.Collect$$libinit$$0000002C)
    .ARM.Collect$$libinit$$0000002E          0x08000162   Section        0  libinit2.o(.ARM.Collect$$libinit$$0000002E)
    .ARM.Collect$$libinit$$00000030          0x08000162   Section        0  libinit2.o(.ARM.Collect$$libinit$$00000030)
    .ARM.Collect$$libinit$$00000032          0x08000162   Section        0  libinit2.o(.ARM.Collect$$libinit$$00000032)
    .ARM.Collect$$libinit$$00000033          0x08000162   Section        2  libinit2.o(.ARM.Collect$$libinit$$00000033)
    .ARM.Collect$$libshutdown$$00000000      0x08000164   Section        2  libshutdown.o(.ARM.Collect$$libshutdown$$00000000)
    .ARM.Collect$$libshutdown$$00000002      0x08000166   Section        0  libshutdown2.o(.ARM.Collect$$libshutdown$$00000002)
    .ARM.Collect$$libshutdown$$00000004      0x08000166   Section        0  libshutdown2.o(.ARM.Collect$$libshutdown$$00000004)
    .ARM.Collect$$libshutdown$$00000007      0x08000166   Section        0  libshutdown2.o(.ARM.Collect$$libshutdown$$00000007)
    .ARM.Collect$$libshutdown$$0000000A      0x08000166   Section        0  libshutdown2.o(.ARM.Collect$$libshutdown$$0000000A)
    .ARM.Collect$$libshutdown$$0000000C      0x08000166   Section        0  libshutdown2.o(.ARM.Collect$$libshutdown$$0000000C)
    .ARM.Collect$$libshutdown$$0000000F      0x08000166   Section        0  libshutdown2.o(.ARM.Collect$$libshutdown$$0000000F)
    .ARM.Collect$$libshutdown$$00000010      0x08000166   Section        2  libshutdown2.o(.ARM.Collect$$libshutdown$$00000010)
    .ARM.Collect$$rtentry$$00000000          0x08000168   Section        0  __rtentry.o(.ARM.Collect$$rtentry$$00000000)
    .ARM.Collect$$rtentry$$00000002          0x08000168   Section        0  __rtentry2.o(.ARM.Collect$$rtentry$$00000002)
    .ARM.Collect$$rtentry$$00000004          0x08000168   Section        6  __rtentry4.o(.ARM.Collect$$rtentry$$00000004)
    .ARM.Collect$$rtentry$$00000009          0x0800016e   Section        0  __rtentry2.o(.ARM.Collect$$rtentry$$00000009)
    .ARM.Collect$$rtentry$$0000000A          0x0800016e   Section        4  __rtentry2.o(.ARM.Collect$$rtentry$$0000000A)
    .ARM.Collect$$rtentry$$0000000C          0x08000172   Section        0  __rtentry2.o(.ARM.Collect$$rtentry$$0000000C)
    .ARM.Collect$$rtentry$$0000000D          0x08000172   Section        8  __rtentry2.o(.ARM.Collect$$rtentry$$0000000D)
    .ARM.Collect$$rtexit$$00000000           0x0800017a   Section        2  rtexit.o(.ARM.Collect$$rtexit$$00000000)
    .ARM.Collect$$rtexit$$00000002           0x0800017c   Section        0  rtexit2.o(.ARM.Collect$$rtexit$$00000002)
    .ARM.Collect$$rtexit$$00000003           0x0800017c   Section        4  rtexit2.o(.ARM.Collect$$rtexit$$00000003)
    .ARM.Collect$$rtexit$$00000004           0x08000180   Section        6  rtexit2.o(.ARM.Collect$$rtexit$$00000004)
    .text                                    0x08000188   Section       64  startup_stm32f10x_md.o(.text)
    .text                                    0x080001c8   Section      100  rt_memcpy_w.o(.text)
    .text                                    0x0800022c   Section       78  rt_memclr_w.o(.text)
    .text                                    0x0800027a   Section        0  heapauxi.o(.text)
    .text                                    0x08000280   Section        0  _rserrno.o(.text)
    .text                                    0x08000298   Section        8  rt_errno_addr_intlibspace.o(.text)
    .text                                    0x080002a0   Section        8  libspace.o(.text)
    .text                                    0x080002a8   Section       74  sys_stackheap_outer.o(.text)
    .text                                    0x080002f2   Section        0  exit.o(.text)
    .text                                    0x08000304   Section        0  sys_exit.o(.text)
    .text                                    0x08000310   Section        2  use_no_semi.o(.text)
    .text                                    0x08000312   Section        0  indicate_semi.o(.text)
    i.ADC_Cmd                                0x08000312   Section        0  stm32f10x_adc.o(i.ADC_Cmd)
    i.ADC_DMACmd                             0x08000328   Section        0  stm32f10x_adc.o(i.ADC_DMACmd)
    i.ADC_GetCalibrationStatus               0x0800033e   Section        0  stm32f10x_adc.o(i.ADC_GetCalibrationStatus)
    i.ADC_Init                               0x08000354   Section        0  stm32f10x_adc.o(i.ADC_Init)
    i.ADC_RegularChannelConfig               0x080003a4   Section        0  stm32f10x_adc.o(i.ADC_RegularChannelConfig)
    i.ADC_ResetCalibration                   0x0800045c   Section        0  stm32f10x_adc.o(i.ADC_ResetCalibration)
    i.ADC_SoftwareStartConvCmd               0x08000466   Section        0  stm32f10x_adc.o(i.ADC_SoftwareStartConvCmd)
    i.ADC_StartCalibration                   0x0800047c   Section        0  stm32f10x_adc.o(i.ADC_StartCalibration)
    i.ANODTDataReceivePrepare                0x08000488   Section        0  usart2.o(i.ANODTDataReceivePrepare)
    ANODTDataReceivePrepare                  0x08000489   Thumb Code   216  usart2.o(i.ANODTDataReceivePrepare)
    i.ANODataReceiveAnalysis                 0x08000570   Section        0  usart2.o(i.ANODataReceiveAnalysis)
    ANODataReceiveAnalysis                   0x08000571   Thumb Code   880  usart2.o(i.ANODataReceiveAnalysis)
    i.ANOSendStatus                          0x08000904   Section        0  usart2.o(i.ANOSendStatus)
    i.ANO_DT_Send_Check                      0x08000a54   Section        0  usart2.o(i.ANO_DT_Send_Check)
    ANO_DT_Send_Check                        0x08000a55   Thumb Code    72  usart2.o(i.ANO_DT_Send_Check)
    i.AccDataTransToG                        0x08000a9c   Section        0  mpu6050.o(i.AccDataTransToG)
    i.AdcInit                                0x08000ac8   Section        0  adc.o(i.AdcInit)
    i.AllPidInit                             0x08000ae0   Section        0  pid.o(i.AllPidInit)
    i.AngleController                        0x08000ba8   Section        0  controller.o(i.AngleController)
    i.BusFault_Handler                       0x08000c40   Section        0  stm32f10x_it.o(i.BusFault_Handler)
    i.ButtomLedColorSet                      0x08000c44   Section        0  led.o(i.ButtomLedColorSet)
    i.ButtomLedOff                           0x08000cc4   Section        0  led.o(i.ButtomLedOff)
    i.ClearIntegral                          0x08000cd8   Section        0  pid.o(i.ClearIntegral)
    i.ControModel                            0x08000ce0   Section        0  controller.o(i.ControModel)
    i.ControllerOutput                       0x08000d24   Section        0  controller.o(i.ControllerOutput)
    i.DMA_Cmd                                0x08000ef8   Section        0  stm32f10x_dma.o(i.DMA_Cmd)
    i.DMA_DeInit                             0x08000f10   Section        0  stm32f10x_dma.o(i.DMA_DeInit)
    i.DMA_Init                               0x0800105c   Section        0  stm32f10x_dma.o(i.DMA_Init)
    i.DMA_SetCurrDataCounter                 0x08001098   Section        0  stm32f10x_dma.o(i.DMA_SetCurrDataCounter)
    i.DateTransfer                           0x0800109c   Section        0  usart2.o(i.DateTransfer)
    DateTransfer                             0x0800109d   Thumb Code   540  usart2.o(i.DateTransfer)
    i.DebugMon_Handler                       0x080012c8   Section        0  stm32f10x_it.o(i.DebugMon_Handler)
    i.DegTransform                           0x080012cc   Section        0  mpu6050.o(i.DegTransform)
    i.DmaConfig                              0x080012f8   Section        0  adc.o(i.DmaConfig)
    i.FLASH_ClearFlag                        0x08001350   Section        0  stm32f10x_flash.o(i.FLASH_ClearFlag)
    i.FLASH_ErasePage                        0x0800135c   Section        0  stm32f10x_flash.o(i.FLASH_ErasePage)
    i.FLASH_GetBank1Status                   0x080013a8   Section        0  stm32f10x_flash.o(i.FLASH_GetBank1Status)
    i.FLASH_LockBank1                        0x080013dc   Section        0  stm32f10x_flash.o(i.FLASH_LockBank1)
    i.FLASH_ProgramWord                      0x080013f0   Section        0  stm32f10x_flash.o(i.FLASH_ProgramWord)
    i.FLASH_UnlockBank1                      0x0800145c   Section        0  stm32f10x_flash.o(i.FLASH_UnlockBank1)
    i.FLASH_WaitForLastOperation             0x08001474   Section        0  stm32f10x_flash.o(i.FLASH_WaitForLastOperation)
    i.FastSqrt                               0x0800149c   Section        0  imath.o(i.FastSqrt)
    i.FrontLedBlinkSet                       0x080014e8   Section        0  led.o(i.FrontLedBlinkSet)
    i.GPIO_Init                              0x08001570   Section        0  stm32f10x_gpio.o(i.GPIO_Init)
    i.GPIO_PinRemapConfig                    0x08001688   Section        0  stm32f10x_gpio.o(i.GPIO_PinRemapConfig)
    i.GPIO_ResetBits                         0x08001718   Section        0  stm32f10x_gpio.o(i.GPIO_ResetBits)
    i.GPIO_SetBits                           0x0800171c   Section        0  stm32f10x_gpio.o(i.GPIO_SetBits)
    i.GetAccRaw                              0x08001720   Section        0  mpu6050.o(i.GetAccRaw)
    i.GetData                                0x0800180c   Section        0  mpu6050.o(i.GetData)
    GetData                                  0x0800180d   Thumb Code    32  mpu6050.o(i.GetData)
    i.GetGyroRaw                             0x0800182c   Section        0  mpu6050.o(i.GetGyroRaw)
    i.GyroController                         0x080018fc   Section        0  controller.o(i.GyroController)
    i.HardFault_Handler                      0x08001948   Section        0  stm32f10x_it.o(i.HardFault_Handler)
    i.I2cInit                                0x0800194c   Section        0  iic.o(i.I2cInit)
    i.IIC_Read_Byte                          0x080019a8   Section        0  iic.o(i.IIC_Read_Byte)
    i.IIC_Read_One_Byte                      0x080019ec   Section        0  iic.o(i.IIC_Read_One_Byte)
    i.IIC_Send_Byte                          0x08001a20   Section        0  iic.o(i.IIC_Send_Byte)
    i.IIC_Slave_Ack                          0x08001a80   Section        0  iic.o(i.IIC_Slave_Ack)
    i.IIC_Start                              0x08001ad4   Section        0  iic.o(i.IIC_Start)
    i.IIC_Stop                               0x08001afc   Section        0  iic.o(i.IIC_Stop)
    i.IIC_Write_One_Byte                     0x08001b34   Section        0  iic.o(i.IIC_Write_One_Byte)
    i.IIC_delay                              0x08001b58   Section        0  iic.o(i.IIC_delay)
    IIC_delay                                0x08001b59   Thumb Code     2  iic.o(i.IIC_delay)
    i.IMUUpdate                              0x08001b5c   Section        0  imu.o(i.IMUUpdate)
    i.LedInit                                0x08002058   Section        0  led.o(i.LedInit)
    i.LedStatusOff                           0x080020bc   Section        0  led.o(i.LedStatusOff)
    i.LeftButtomLedBlinkSet                  0x080020d8   Section        0  led.o(i.LeftButtomLedBlinkSet)
    i.Matrix_ready                           0x08002150   Section        0  imu.o(i.Matrix_ready)
    i.MemManage_Handler                      0x0800224c   Section        0  stm32f10x_it.o(i.MemManage_Handler)
    i.MyAbs                                  0x08002250   Section        0  imath.o(i.MyAbs)
    i.NMI_Handler                            0x08002268   Section        0  stm32f10x_it.o(i.NMI_Handler)
    i.NRF24L01Init                           0x0800226c   Section        0  nrf24l01.o(i.NRF24L01Init)
    i.NRF24L01ReceiveMode                    0x080022c4   Section        0  nrf24l01.o(i.NRF24L01ReceiveMode)
    i.NRF24L01_Check                         0x08002334   Section        0  nrf24l01.o(i.NRF24L01_Check)
    i.NRF24L01_RxPacket                      0x08002380   Section        0  nrf24l01.o(i.NRF24L01_RxPacket)
    i.NVIC_Init                              0x080023b4   Section        0  misc.o(i.NVIC_Init)
    i.NVIC_PriorityGroupConfig               0x08002424   Section        0  misc.o(i.NVIC_PriorityGroupConfig)
    i.NVIC_config                            0x08002438   Section        0  nvic.o(i.NVIC_config)
    i.NrfACKPacket                           0x0800247c   Section        0  parse_packet.o(i.NrfACKPacket)
    i.PendSV_Handler                         0x080024b8   Section        0  stm32f10x_it.o(i.PendSV_Handler)
    i.PidController                          0x080024ba   Section        0  pid.o(i.PidController)
    i.PidDataReadFromFlash                   0x0800255e   Section        0  flash.o(i.PidDataReadFromFlash)
    i.PidDataSend                            0x0800265e   Section        0  usart2.o(i.PidDataSend)
    PidDataSend                              0x0800265f   Thumb Code   154  usart2.o(i.PidDataSend)
    i.PidDataWriteToFlash                    0x080026f8   Section        0  flash.o(i.PidDataWriteToFlash)
    i.PidInit                                0x08002854   Section        0  pid.o(i.PidInit)
    i.PlaneLockStatus                        0x08002898   Section        0  fc_status.o(i.PlaneLockStatus)
    i.PwmInit                                0x0800297c   Section        0  pwm.o(i.PwmInit)
    i.PwmOut                                 0x08002a4c   Section        0  pwm.o(i.PwmOut)
    i.RCC_ADCCLKConfig                       0x08002aa8   Section        0  stm32f10x_rcc.o(i.RCC_ADCCLKConfig)
    i.RCC_AHBPeriphClockCmd                  0x08002ac0   Section        0  stm32f10x_rcc.o(i.RCC_AHBPeriphClockCmd)
    i.RCC_APB1PeriphClockCmd                 0x08002ae0   Section        0  stm32f10x_rcc.o(i.RCC_APB1PeriphClockCmd)
    i.RCC_APB2PeriphClockCmd                 0x08002b00   Section        0  stm32f10x_rcc.o(i.RCC_APB2PeriphClockCmd)
    i.RCC_GetClocksFreq                      0x08002b20   Section        0  stm32f10x_rcc.o(i.RCC_GetClocksFreq)
    i.RadTransform                           0x08002bf4   Section        0  mpu6050.o(i.RadTransform)
    i.SDA_IN                                 0x08002c20   Section        0  iic.o(i.SDA_IN)
    i.SDA_OUT                                0x08002c3c   Section        0  iic.o(i.SDA_OUT)
    i.SPI_Cmd                                0x08002c60   Section        0  stm32f10x_spi.o(i.SPI_Cmd)
    i.SPI_I2S_GetFlagStatus                  0x08002c78   Section        0  stm32f10x_spi.o(i.SPI_I2S_GetFlagStatus)
    i.SPI_I2S_ReceiveData                    0x08002c8a   Section        0  stm32f10x_spi.o(i.SPI_I2S_ReceiveData)
    i.SPI_I2S_SendData                       0x08002c90   Section        0  stm32f10x_spi.o(i.SPI_I2S_SendData)
    i.SPI_Init                               0x08002c94   Section        0  stm32f10x_spi.o(i.SPI_Init)
    i.SPI_Read_Buf                           0x08002cd0   Section        0  nrf24l01.o(i.SPI_Read_Buf)
    i.SPI_Read_Reg                           0x08002d10   Section        0  nrf24l01.o(i.SPI_Read_Reg)
    i.SPI_Write_Buf                          0x08002d3c   Section        0  nrf24l01.o(i.SPI_Write_Buf)
    i.SPI_Write_Reg                          0x08002d7c   Section        0  nrf24l01.o(i.SPI_Write_Reg)
    i.STM32_FLASH_Read                       0x08002da8   Section        0  flash.o(i.STM32_FLASH_Read)
    i.SVC_Handler                            0x08002dc2   Section        0  stm32f10x_it.o(i.SVC_Handler)
    i.SetSysClock                            0x08002dc4   Section        0  system_stm32f10x.o(i.SetSysClock)
    SetSysClock                              0x08002dc5   Thumb Code     8  system_stm32f10x.o(i.SetSysClock)
    i.SetSysClockTo72                        0x08002dcc   Section        0  system_stm32f10x.o(i.SetSysClockTo72)
    SetSysClockTo72                          0x08002dcd   Thumb Code   214  system_stm32f10x.o(i.SetSysClockTo72)
    i.SpiInit                                0x08002eac   Section        0  spi.o(i.SpiInit)
    i.Spi_RW_Byte                            0x08002f54   Section        0  spi.o(i.Spi_RW_Byte)
    i.SysTick_Handler                        0x08002f8c   Section        0  systick.o(i.SysTick_Handler)
    i.SystemInit                             0x08002fa4   Section        0  system_stm32f10x.o(i.SystemInit)
    i.SystickInit                            0x08003004   Section        0  systick.o(i.SystickInit)
    i.TIM3_IRQHandler                        0x08003034   Section        0  timer.o(i.TIM3_IRQHandler)
    i.TIM_ARRPreloadConfig                   0x08003128   Section        0  stm32f10x_tim.o(i.TIM_ARRPreloadConfig)
    i.TIM_ClearFlag                          0x08003140   Section        0  stm32f10x_tim.o(i.TIM_ClearFlag)
    i.TIM_Cmd                                0x08003146   Section        0  stm32f10x_tim.o(i.TIM_Cmd)
    i.TIM_CtrlPWMOutputs                     0x0800315e   Section        0  stm32f10x_tim.o(i.TIM_CtrlPWMOutputs)
    i.TIM_ITConfig                           0x0800317c   Section        0  stm32f10x_tim.o(i.TIM_ITConfig)
    i.TIM_OC1Init                            0x08003190   Section        0  stm32f10x_tim.o(i.TIM_OC1Init)
    i.TIM_OC1PreloadConfig                   0x08003228   Section        0  stm32f10x_tim.o(i.TIM_OC1PreloadConfig)
    i.TIM_OC2Init                            0x0800323c   Section        0  stm32f10x_tim.o(i.TIM_OC2Init)
    i.TIM_OC2PreloadConfig                   0x080032e0   Section        0  stm32f10x_tim.o(i.TIM_OC2PreloadConfig)
    i.TIM_OC3Init                            0x080032fc   Section        0  stm32f10x_tim.o(i.TIM_OC3Init)
    i.TIM_OC3PreloadConfig                   0x0800339c   Section        0  stm32f10x_tim.o(i.TIM_OC3PreloadConfig)
    i.TIM_OC4Init                            0x080033b0   Section        0  stm32f10x_tim.o(i.TIM_OC4Init)
    i.TIM_OC4PreloadConfig                   0x0800342c   Section        0  stm32f10x_tim.o(i.TIM_OC4PreloadConfig)
    i.TIM_TimeBaseInit                       0x08003448   Section        0  stm32f10x_tim.o(i.TIM_TimeBaseInit)
    i.ThrottleLimit                          0x080034ec   Section        0  imath.o(i.ThrottleLimit)
    i.TimerInit                              0x080034fc   Section        0  timer.o(i.TimerInit)
    i.TopLedBlink                            0x08003548   Section        0  led.o(i.TopLedBlink)
    i.TopLedColorSet                         0x080035ac   Section        0  led.o(i.TopLedColorSet)
    i.TopLedStatus                           0x08003638   Section        0  led.o(i.TopLedStatus)
    i.USART2_IRQHandler                      0x080036a4   Section        0  usart2.o(i.USART2_IRQHandler)
    i.USART_ClearFlag                        0x080036c8   Section        0  stm32f10x_usart.o(i.USART_ClearFlag)
    i.USART_Cmd                              0x080036da   Section        0  stm32f10x_usart.o(i.USART_Cmd)
    i.USART_DMACmd                           0x080036f2   Section        0  stm32f10x_usart.o(i.USART_DMACmd)
    i.USART_GetFlagStatus                    0x08003704   Section        0  stm32f10x_usart.o(i.USART_GetFlagStatus)
    i.USART_GetITStatus                      0x0800371e   Section        0  stm32f10x_usart.o(i.USART_GetITStatus)
    i.USART_ITConfig                         0x08003772   Section        0  stm32f10x_usart.o(i.USART_ITConfig)
    i.USART_Init                             0x080037bc   Section        0  stm32f10x_usart.o(i.USART_Init)
    i.USART_ReceiveData                      0x08003894   Section        0  stm32f10x_usart.o(i.USART_ReceiveData)
    i.UnusualProtect                         0x080038a0   Section        0  controller.o(i.UnusualProtect)
    i.UsageFault_Handler                     0x080038ec   Section        0  stm32f10x_it.o(i.UsageFault_Handler)
    i.Usart2DmaConfig                        0x080038f0   Section        0  usart2.o(i.Usart2DmaConfig)
    Usart2DmaConfig                          0x080038f1   Thumb Code    74  usart2.o(i.Usart2DmaConfig)
    i.Usart2Init                             0x0800393c   Section        0  usart2.o(i.Usart2Init)
    i.Usart2Send                             0x080039c8   Section        0  usart2.o(i.Usart2Send)
    Usart2Send                               0x080039c9   Thumb Code    50  usart2.o(i.Usart2Send)
    i.UsartDMASendData                       0x08003a00   Section        0  usart2.o(i.UsartDMASendData)
    UsartDMASendData                         0x08003a01   Thumb Code    56  usart2.o(i.UsartDMASendData)
    i.VoltageDetect                          0x08003a40   Section        0  adc.o(i.VoltageDetect)
    i.__ARM_fpclassify                       0x08003aa0   Section        0  fpclassify.o(i.__ARM_fpclassify)
    i.__ieee754_rem_pio2                     0x08003ac8   Section        0  rred.o(i.__ieee754_rem_pio2)
    i.__kernel_cos                           0x08003e50   Section        0  cos_i.o(i.__kernel_cos)
    i.__kernel_poly                          0x08003f4c   Section        0  poly.o(i.__kernel_poly)
    i.__kernel_sin                           0x08003ff8   Section        0  sin_i.o(i.__kernel_sin)
    i.__mathlib_dbl_infnan                   0x080040e4   Section        0  dunder.o(i.__mathlib_dbl_infnan)
    i.__mathlib_dbl_infnan2                  0x080040ea   Section        0  dunder.o(i.__mathlib_dbl_infnan2)
    i.__mathlib_dbl_invalid                  0x080040ee   Section        0  dunder.o(i.__mathlib_dbl_invalid)
    i.__mathlib_dbl_underflow                0x080040fc   Section        0  dunder.o(i.__mathlib_dbl_underflow)
    i._controller_perform                    0x0800410c   Section        0  controller.o(i._controller_perform)
    i._set_val                               0x08004130   Section        0  imath.o(i._set_val)
    i.acc_cal_polling                        0x08004140   Section        0  acc_cal.o(i.acc_cal_polling)
    i.acc_iir_lpf                            0x080042ec   Section        0  mpu6050.o(i.acc_iir_lpf)
    i.adc_config                             0x08004348   Section        0  adc.o(i.adc_config)
    i.adc_gpio_init                          0x080043d4   Section        0  adc.o(i.adc_gpio_init)
    i.asin                                   0x080043f8   Section        0  asin.o(i.asin)
    i.atan                                   0x08004668   Section        0  atan.o(i.atan)
    i.atan2                                  0x08004888   Section        0  atan2.o(i.atan2)
    i.butterworth_lpf                        0x08004a08   Section        0  mpu6050.o(i.butterworth_lpf)
    i.cos                                    0x08004a7c   Section        0  cos.o(i.cos)
    i.delay_ms                               0x08004b18   Section        0  systick.o(i.delay_ms)
    i.direction_to_zero                      0x08004b5c   Section        0  imath.o(i.direction_to_zero)
    i.flash_read_cal                         0x08004b80   Section        0  flash.o(i.flash_read_cal)
    i.get_iir_factor                         0x08004d38   Section        0  mpu6050.o(i.get_iir_factor)
    i.get_mpu_id                             0x08004d74   Section        0  mpu6050.o(i.get_mpu_id)
    i.get_nav_acc                            0x08004d84   Section        0  nav.o(i.get_nav_acc)
    i.gyro_cal_polling                       0x08004ee4   Section        0  gyro_cal.o(i.gyro_cal_polling)
    i.main                                   0x08004f5c   Section        0  main.o(i.main)
    i.mpu6050_init                           0x0800500c   Section        0  mpu6050.o(i.mpu6050_init)
    i.nrf_parse_packet                       0x08005054   Section        0  parse_packet.o(i.nrf_parse_packet)
    i.read_cal_dat                           0x08005168   Section        0  acc_cal.o(i.read_cal_dat)
    i.rotation_matrix                        0x080052ec   Section        0  imu.o(i.rotation_matrix)
    i.rotation_matrix_T                      0x08005500   Section        0  imu.o(i.rotation_matrix_T)
    i.set_value                              0x0800571c   Section        0  imath.o(i.set_value)
    i.sin                                    0x08005724   Section        0  sin.o(i.sin)
    i.sqrt                                   0x080057c4   Section        0  sqrt.o(i.sqrt)
    i.time_check                             0x08005810   Section        0  timer.o(i.time_check)
    i.wait_pairing                           0x08005854   Section        0  pair_freq.o(i.wait_pairing)
    x$fpl$d2f                                0x08005900   Section       98  d2f.o(x$fpl$d2f)
    x$fpl$dadd                               0x08005964   Section      336  daddsub_clz.o(x$fpl$dadd)
    _dadd1                                   0x08005975   Thumb Code     0  daddsub_clz.o(x$fpl$dadd)
    x$fpl$dcheck1                            0x08005ab4   Section       16  dcheck1.o(x$fpl$dcheck1)
    x$fpl$ddiv                               0x08005ac4   Section      688  ddiv.o(x$fpl$ddiv)
    ddiv_entry                               0x08005acb   Thumb Code     0  ddiv.o(x$fpl$ddiv)
    x$fpl$dfix                               0x08005d74   Section       94  dfix.o(x$fpl$dfix)
    x$fpl$dflt                               0x08005dd2   Section       46  dflt_clz.o(x$fpl$dflt)
    x$fpl$dfltu                              0x08005e00   Section       38  dflt_clz.o(x$fpl$dfltu)
    x$fpl$dmul                               0x08005e28   Section      340  dmul.o(x$fpl$dmul)
    x$fpl$dnaninf                            0x08005f7c   Section      156  dnaninf.o(x$fpl$dnaninf)
    x$fpl$dretinf                            0x08006018   Section       12  dretinf.o(x$fpl$dretinf)
    x$fpl$drsb                               0x08006024   Section       22  daddsub_clz.o(x$fpl$drsb)
    x$fpl$dsqrt                              0x0800603c   Section      460  dsqrt_noumaal.o(x$fpl$dsqrt)
    x$fpl$dsub                               0x08006208   Section      468  daddsub_clz.o(x$fpl$dsub)
    _dsub1                                   0x08006219   Thumb Code     0  daddsub_clz.o(x$fpl$dsub)
    x$fpl$f2d                                0x080063dc   Section       86  f2d.o(x$fpl$f2d)
    x$fpl$fadd                               0x08006434   Section      196  faddsub_clz.o(x$fpl$fadd)
    _fadd1                                   0x08006443   Thumb Code     0  faddsub_clz.o(x$fpl$fadd)
    x$fpl$fcmpinf                            0x080064f8   Section       24  fcmpi.o(x$fpl$fcmpinf)
    x$fpl$fdiv                               0x08006510   Section      388  fdiv.o(x$fpl$fdiv)
    _fdiv1                                   0x08006511   Thumb Code     0  fdiv.o(x$fpl$fdiv)
    x$fpl$feqf                               0x08006694   Section      104  feqf.o(x$fpl$feqf)
    x$fpl$ffix                               0x080066fc   Section       54  ffix.o(x$fpl$ffix)
    x$fpl$ffixu                              0x08006734   Section       62  ffixu.o(x$fpl$ffixu)
    x$fpl$fflt                               0x08006774   Section       48  fflt_clz.o(x$fpl$fflt)
    x$fpl$ffltu                              0x080067a4   Section       38  fflt_clz.o(x$fpl$ffltu)
    x$fpl$fleqf                              0x080067cc   Section      104  fleqf.o(x$fpl$fleqf)
    x$fpl$fmul                               0x08006834   Section      258  fmul.o(x$fpl$fmul)
    x$fpl$fnaninf                            0x08006936   Section      140  fnaninf.o(x$fpl$fnaninf)
    x$fpl$fretinf                            0x080069c2   Section       10  fretinf.o(x$fpl$fretinf)
    x$fpl$frleqf                             0x080069cc   Section       98  frleqf.o(x$fpl$frleqf)
    x$fpl$frsb                               0x08006a2e   Section       20  faddsub_clz.o(x$fpl$frsb)
    x$fpl$fsub                               0x08006a44   Section      234  faddsub_clz.o(x$fpl$fsub)
    _fsub1                                   0x08006a53   Thumb Code     0  faddsub_clz.o(x$fpl$fsub)
    x$fpl$retnan                             0x08006b2e   Section      100  retnan.o(x$fpl$retnan)
    x$fpl$scalbn                             0x08006b92   Section       92  scalbn.o(x$fpl$scalbn)
    x$fpl$trapveneer                         0x08006bee   Section       48  trapv.o(x$fpl$trapveneer)
    x$fpl$usenofp                            0x08006c1e   Section        0  usenofp.o(x$fpl$usenofp)
    .constdata                               0x08006c20   Section      300  pid.o(.constdata)
    .constdata                               0x08006d50   Section       80  asin.o(.constdata)
    pS                                       0x08006d50   Data          48  asin.o(.constdata)
    qS                                       0x08006d80   Data          32  asin.o(.constdata)
    .constdata                               0x08006da0   Section      152  atan.o(.constdata)
    atanhi                                   0x08006da0   Data          32  atan.o(.constdata)
    atanlo                                   0x08006dc0   Data          32  atan.o(.constdata)
    aTodd                                    0x08006de0   Data          40  atan.o(.constdata)
    aTeven                                   0x08006e08   Data          48  atan.o(.constdata)
    .constdata                               0x08006e38   Section       48  cos_i.o(.constdata)
    C                                        0x08006e38   Data          48  cos_i.o(.constdata)
    .constdata                               0x08006e68   Section        8  qnan.o(.constdata)
    .constdata                               0x08006e70   Section      200  rred.o(.constdata)
    pio2s                                    0x08006e70   Data          48  rred.o(.constdata)
    twooverpi                                0x08006ea0   Data         152  rred.o(.constdata)
    .constdata                               0x08006f38   Section       40  sin_i.o(.constdata)
    S                                        0x08006f38   Data          40  sin_i.o(.constdata)
    .data                                    0x20000000   Section       20  system_stm32f10x.o(.data)
    .data                                    0x20000014   Section        4  systick.o(.data)
    .data                                    0x20000018   Section       12  led.o(.data)
    .data                                    0x20000024   Section       60  mpu6050.o(.data)
    .data                                    0x20000060   Section        3  flash.o(.data)
    .data                                    0x20000063   Section        6  pair_freq.o(.data)
    .data                                    0x2000006c   Section        8  adc.o(.data)
    .data                                    0x20000074   Section        4  pid.o(.data)
    .data                                    0x20000078   Section        4  timer.o(.data)
    .data                                    0x2000007c   Section       22  controller.o(.data)
    yaw_init_cnt                             0x20000090   Data           2  controller.o(.data)
    .data                                    0x20000094   Section       52  imu.o(.data)
    .data                                    0x200000c8   Section        3  usart2.o(.data)
    dataLen                                  0x200000c8   Data           1  usart2.o(.data)
    cnt                                      0x200000c9   Data           1  usart2.o(.data)
    state                                    0x200000ca   Data           1  usart2.o(.data)
    .data                                    0x200000cb   Section       20  stm32f10x_rcc.o(.data)
    APBAHBPrescTable                         0x200000cb   Data          16  stm32f10x_rcc.o(.data)
    ADCPrescTable                            0x200000db   Data           4  stm32f10x_rcc.o(.data)
    .bss                                     0x200000e0   Section      284  mpu6050.o(.bss)
    .bss                                     0x200001fc   Section      268  acc_cal.o(.bss)
    .bss                                     0x20000308   Section       52  gyro_cal.o(.bss)
    .bss                                     0x2000033c   Section       68  parse_packet.o(.bss)
    .bss                                     0x20000380   Section      660  pid.o(.bss)
    .bss                                     0x20000614   Section       32  timer.o(.bss)
    .bss                                     0x20000634   Section      136  imu.o(.bss)
    .bss                                     0x200006bc   Section       28  nav.o(.bss)
    .bss                                     0x200006d8   Section       50  usart2.o(.bss)
    receiveBuffer                            0x200006d8   Data          50  usart2.o(.bss)
    .bss                                     0x2000070c   Section       96  libspace.o(.bss)
    HEAP                                     0x20000770   Section      512  startup_stm32f10x_md.o(HEAP)
    Heap_Mem                                 0x20000770   Data         512  startup_stm32f10x_md.o(HEAP)
    STACK                                    0x20000970   Section     1024  startup_stm32f10x_md.o(STACK)
    Stack_Mem                                0x20000970   Data        1024  startup_stm32f10x_md.o(STACK)
    __initial_sp                             0x20000d70   Data           0  startup_stm32f10x_md.o(STACK)

    Global Symbols

    Symbol Name                              Value     Ov Type        Size  Object(Section)

    BuildAttributes$$THM_ISAv4$P$D$K$B$S$PE$A:L22UL41UL21$X:L11$S22US41US21$IEEE1$IW$USESV6$~STKCKD$USESV7$~SHL$OTIME$ROPI$IEEEX$EBA8$UX$STANDARDLIB$REQ8$PRES8$EABIv2 0x00000000   Number         0  anon$$obj.o ABSOLUTE
    __ARM_use_no_argv                        0x00000000   Number         0  main.o ABSOLUTE
    __ARM_exceptions_init                     - Undefined Weak Reference
    __alloca_initialize                       - Undefined Weak Reference
    __arm_preinit_                            - Undefined Weak Reference
    __cpp_initialize__aeabi_                  - Undefined Weak Reference
    __cxa_finalize                            - Undefined Weak Reference
    __rt_locale                               - Undefined Weak Reference
    __sigvec_lookup                           - Undefined Weak Reference
    _atexit_init                              - Undefined Weak Reference
    _call_atexit_fns                          - Undefined Weak Reference
    _clock_init                               - Undefined Weak Reference
    _fp_trap_init                             - Undefined Weak Reference
    _fp_trap_shutdown                         - Undefined Weak Reference
    _get_lc_collate                           - Undefined Weak Reference
    _get_lc_ctype                             - Undefined Weak Reference
    _get_lc_monetary                          - Undefined Weak Reference
    _get_lc_numeric                           - Undefined Weak Reference
    _get_lc_time                              - Undefined Weak Reference
    _getenv_init                              - Undefined Weak Reference
    _handle_redirection                       - Undefined Weak Reference
    _init_alloc                               - Undefined Weak Reference
    _init_user_alloc                          - Undefined Weak Reference
    _initio                                   - Undefined Weak Reference
    _rand_init                                - Undefined Weak Reference
    _signal_finish                            - Undefined Weak Reference
    _signal_init                              - Undefined Weak Reference
    _terminate_alloc                          - Undefined Weak Reference
    _terminate_user_alloc                     - Undefined Weak Reference
    _terminateio                              - Undefined Weak Reference
    __Vectors_Size                           0x000000ec   Number         0  startup_stm32f10x_md.o ABSOLUTE
    __Vectors                                0x08000000   Data           4  startup_stm32f10x_md.o(RESET)
    __Vectors_End                            0x080000ec   Data           0  startup_stm32f10x_md.o(RESET)
    __main                                   0x080000ed   Thumb Code     8  __main.o(!!!main)
    __scatterload                            0x080000f5   Thumb Code     0  __scatter.o(!!!scatter)
    __scatterload_rt2                        0x080000f5   Thumb Code    44  __scatter.o(!!!scatter)
    __scatterload_rt2_thumb_only             0x080000f5   Thumb Code     0  __scatter.o(!!!scatter)
    __scatterload_null                       0x08000103   Thumb Code     0  __scatter.o(!!!scatter)
    __scatterload_copy                       0x08000129   Thumb Code    26  __scatter_copy.o(!!handler_copy)
    __scatterload_zeroinit                   0x08000145   Thumb Code    28  __scatter_zi.o(!!handler_zi)
    __rt_lib_init                            0x08000161   Thumb Code     0  libinit.o(.ARM.Collect$$libinit$$00000000)
    __rt_lib_init_alloca_1                   0x08000163   Thumb Code     0  libinit2.o(.ARM.Collect$$libinit$$0000002E)
    __rt_lib_init_argv_1                     0x08000163   Thumb Code     0  libinit2.o(.ARM.Collect$$libinit$$0000002C)
    __rt_lib_init_atexit_1                   0x08000163   Thumb Code     0  libinit2.o(.ARM.Collect$$libinit$$0000001B)
    __rt_lib_init_clock_1                    0x08000163   Thumb Code     0  libinit2.o(.ARM.Collect$$libinit$$00000021)
    __rt_lib_init_cpp_1                      0x08000163   Thumb Code     0  libinit2.o(.ARM.Collect$$libinit$$00000032)
    __rt_lib_init_exceptions_1               0x08000163   Thumb Code     0  libinit2.o(.ARM.Collect$$libinit$$00000030)
    __rt_lib_init_fp_1                       0x08000163   Thumb Code     0  libinit2.o(.ARM.Collect$$libinit$$00000002)
    __rt_lib_init_fp_trap_1                  0x08000163   Thumb Code     0  libinit2.o(.ARM.Collect$$libinit$$0000001F)
    __rt_lib_init_getenv_1                   0x08000163   Thumb Code     0  libinit2.o(.ARM.Collect$$libinit$$00000023)
    __rt_lib_init_heap_1                     0x08000163   Thumb Code     0  libinit2.o(.ARM.Collect$$libinit$$0000000A)
    __rt_lib_init_lc_collate_1               0x08000163   Thumb Code     0  libinit2.o(.ARM.Collect$$libinit$$00000011)
    __rt_lib_init_lc_ctype_1                 0x08000163   Thumb Code     0  libinit2.o(.ARM.Collect$$libinit$$00000013)
    __rt_lib_init_lc_monetary_1              0x08000163   Thumb Code     0  libinit2.o(.ARM.Collect$$libinit$$00000015)
    __rt_lib_init_lc_numeric_1               0x08000163   Thumb Code     0  libinit2.o(.ARM.Collect$$libinit$$00000017)
    __rt_lib_init_lc_time_1                  0x08000163   Thumb Code     0  libinit2.o(.ARM.Collect$$libinit$$00000019)
    __rt_lib_init_preinit_1                  0x08000163   Thumb Code     0  libinit2.o(.ARM.Collect$$libinit$$00000004)
    __rt_lib_init_rand_1                     0x08000163   Thumb Code     0  libinit2.o(.ARM.Collect$$libinit$$0000000E)
    __rt_lib_init_return                     0x08000163   Thumb Code     0  libinit2.o(.ARM.Collect$$libinit$$00000033)
    __rt_lib_init_signal_1                   0x08000163   Thumb Code     0  libinit2.o(.ARM.Collect$$libinit$$0000001D)
    __rt_lib_init_stdio_1                    0x08000163   Thumb Code     0  libinit2.o(.ARM.Collect$$libinit$$00000025)
    __rt_lib_init_user_alloc_1               0x08000163   Thumb Code     0  libinit2.o(.ARM.Collect$$libinit$$0000000C)
    __rt_lib_shutdown                        0x08000165   Thumb Code     0  libshutdown.o(.ARM.Collect$$libshutdown$$00000000)
    __rt_lib_shutdown_cpp_1                  0x08000167   Thumb Code     0  libshutdown2.o(.ARM.Collect$$libshutdown$$00000002)
    __rt_lib_shutdown_fp_trap_1              0x08000167   Thumb Code     0  libshutdown2.o(.ARM.Collect$$libshutdown$$00000007)
    __rt_lib_shutdown_heap_1                 0x08000167   Thumb Code     0  libshutdown2.o(.ARM.Collect$$libshutdown$$0000000F)
    __rt_lib_shutdown_return                 0x08000167   Thumb Code     0  libshutdown2.o(.ARM.Collect$$libshutdown$$00000010)
    __rt_lib_shutdown_signal_1               0x08000167   Thumb Code     0  libshutdown2.o(.ARM.Collect$$libshutdown$$0000000A)
    __rt_lib_shutdown_stdio_1                0x08000167   Thumb Code     0  libshutdown2.o(.ARM.Collect$$libshutdown$$00000004)
    __rt_lib_shutdown_user_alloc_1           0x08000167   Thumb Code     0  libshutdown2.o(.ARM.Collect$$libshutdown$$0000000C)
    __rt_entry                               0x08000169   Thumb Code     0  __rtentry.o(.ARM.Collect$$rtentry$$00000000)
    __rt_entry_presh_1                       0x08000169   Thumb Code     0  __rtentry2.o(.ARM.Collect$$rtentry$$00000002)
    __rt_entry_sh                            0x08000169   Thumb Code     0  __rtentry4.o(.ARM.Collect$$rtentry$$00000004)
    __rt_entry_li                            0x0800016f   Thumb Code     0  __rtentry2.o(.ARM.Collect$$rtentry$$0000000A)
    __rt_entry_postsh_1                      0x0800016f   Thumb Code     0  __rtentry2.o(.ARM.Collect$$rtentry$$00000009)
    __rt_entry_main                          0x08000173   Thumb Code     0  __rtentry2.o(.ARM.Collect$$rtentry$$0000000D)
    __rt_entry_postli_1                      0x08000173   Thumb Code     0  __rtentry2.o(.ARM.Collect$$rtentry$$0000000C)
    __rt_exit                                0x0800017b   Thumb Code     0  rtexit.o(.ARM.Collect$$rtexit$$00000000)
    __rt_exit_ls                             0x0800017d   Thumb Code     0  rtexit2.o(.ARM.Collect$$rtexit$$00000003)
    __rt_exit_prels_1                        0x0800017d   Thumb Code     0  rtexit2.o(.ARM.Collect$$rtexit$$00000002)
    __rt_exit_exit                           0x08000181   Thumb Code     0  rtexit2.o(.ARM.Collect$$rtexit$$00000004)
    Reset_Handler                            0x08000189   Thumb Code     8  startup_stm32f10x_md.o(.text)
    ADC1_2_IRQHandler                        0x080001a3   Thumb Code     0  startup_stm32f10x_md.o(.text)
    CAN1_RX1_IRQHandler                      0x080001a3   Thumb Code     0  startup_stm32f10x_md.o(.text)
    CAN1_SCE_IRQHandler                      0x080001a3   Thumb Code     0  startup_stm32f10x_md.o(.text)
    DMA1_Channel1_IRQHandler                 0x080001a3   Thumb Code     0  startup_stm32f10x_md.o(.text)
    DMA1_Channel2_IRQHandler                 0x080001a3   Thumb Code     0  startup_stm32f10x_md.o(.text)
    DMA1_Channel3_IRQHandler                 0x080001a3   Thumb Code     0  startup_stm32f10x_md.o(.text)
    DMA1_Channel4_IRQHandler                 0x080001a3   Thumb Code     0  startup_stm32f10x_md.o(.text)
    DMA1_Channel5_IRQHandler                 0x080001a3   Thumb Code     0  startup_stm32f10x_md.o(.text)
    DMA1_Channel6_IRQHandler                 0x080001a3   Thumb Code     0  startup_stm32f10x_md.o(.text)
    DMA1_Channel7_IRQHandler                 0x080001a3   Thumb Code     0  startup_stm32f10x_md.o(.text)
    EXTI0_IRQHandler                         0x080001a3   Thumb Code     0  startup_stm32f10x_md.o(.text)
    EXTI15_10_IRQHandler                     0x080001a3   Thumb Code     0  startup_stm32f10x_md.o(.text)
    EXTI1_IRQHandler                         0x080001a3   Thumb Code     0  startup_stm32f10x_md.o(.text)
    EXTI2_IRQHandler                         0x080001a3   Thumb Code     0  startup_stm32f10x_md.o(.text)
    EXTI3_IRQHandler                         0x080001a3   Thumb Code     0  startup_stm32f10x_md.o(.text)
    EXTI4_IRQHandler                         0x080001a3   Thumb Code     0  startup_stm32f10x_md.o(.text)
    EXTI9_5_IRQHandler                       0x080001a3   Thumb Code     0  startup_stm32f10x_md.o(.text)
    FLASH_IRQHandler                         0x080001a3   Thumb Code     0  startup_stm32f10x_md.o(.text)
    I2C1_ER_IRQHandler                       0x080001a3   Thumb Code     0  startup_stm32f10x_md.o(.text)
    I2C1_EV_IRQHandler                       0x080001a3   Thumb Code     0  startup_stm32f10x_md.o(.text)
    I2C2_ER_IRQHandler                       0x080001a3   Thumb Code     0  startup_stm32f10x_md.o(.text)
    I2C2_EV_IRQHandler                       0x080001a3   Thumb Code     0  startup_stm32f10x_md.o(.text)
    PVD_IRQHandler                           0x080001a3   Thumb Code     0  startup_stm32f10x_md.o(.text)
    RCC_IRQHandler                           0x080001a3   Thumb Code     0  startup_stm32f10x_md.o(.text)
    RTCAlarm_IRQHandler                      0x080001a3   Thumb Code     0  startup_stm32f10x_md.o(.text)
    RTC_IRQHandler                           0x080001a3   Thumb Code     0  startup_stm32f10x_md.o(.text)
    SPI1_IRQHandler                          0x080001a3   Thumb Code     0  startup_stm32f10x_md.o(.text)
    SPI2_IRQHandler                          0x080001a3   Thumb Code     0  startup_stm32f10x_md.o(.text)
    TAMPER_IRQHandler                        0x080001a3   Thumb Code     0  startup_stm32f10x_md.o(.text)
    TIM1_BRK_IRQHandler                      0x080001a3   Thumb Code     0  startup_stm32f10x_md.o(.text)
    TIM1_CC_IRQHandler                       0x080001a3   Thumb Code     0  startup_stm32f10x_md.o(.text)
    TIM1_TRG_COM_IRQHandler                  0x080001a3   Thumb Code     0  startup_stm32f10x_md.o(.text)
    TIM1_UP_IRQHandler                       0x080001a3   Thumb Code     0  startup_stm32f10x_md.o(.text)
    TIM2_IRQHandler                          0x080001a3   Thumb Code     0  startup_stm32f10x_md.o(.text)
    TIM4_IRQHandler                          0x080001a3   Thumb Code     0  startup_stm32f10x_md.o(.text)
    USART1_IRQHandler                        0x080001a3   Thumb Code     0  startup_stm32f10x_md.o(.text)
    USART3_IRQHandler                        0x080001a3   Thumb Code     0  startup_stm32f10x_md.o(.text)
    USBWakeUp_IRQHandler                     0x080001a3   Thumb Code     0  startup_stm32f10x_md.o(.text)
    USB_HP_CAN1_TX_IRQHandler                0x080001a3   Thumb Code     0  startup_stm32f10x_md.o(.text)
    USB_LP_CAN1_RX0_IRQHandler               0x080001a3   Thumb Code     0  startup_stm32f10x_md.o(.text)
    WWDG_IRQHandler                          0x080001a3   Thumb Code     0  startup_stm32f10x_md.o(.text)
    __user_initial_stackheap                 0x080001a5   Thumb Code     0  startup_stm32f10x_md.o(.text)
    __aeabi_memcpy4                          0x080001c9   Thumb Code     0  rt_memcpy_w.o(.text)
    __aeabi_memcpy8                          0x080001c9   Thumb Code     0  rt_memcpy_w.o(.text)
    __rt_memcpy_w                            0x080001c9   Thumb Code   100  rt_memcpy_w.o(.text)
    _memcpy_lastbytes_aligned                0x08000211   Thumb Code     0  rt_memcpy_w.o(.text)
    __aeabi_memclr4                          0x0800022d   Thumb Code     0  rt_memclr_w.o(.text)
    __aeabi_memclr8                          0x0800022d   Thumb Code     0  rt_memclr_w.o(.text)
    __rt_memclr_w                            0x0800022d   Thumb Code    78  rt_memclr_w.o(.text)
    _memset_w                                0x08000231   Thumb Code     0  rt_memclr_w.o(.text)
    __use_two_region_memory                  0x0800027b   Thumb Code     2  heapauxi.o(.text)
    __rt_heap_escrow$2region                 0x0800027d   Thumb Code     2  heapauxi.o(.text)
    __rt_heap_expand$2region                 0x0800027f   Thumb Code     2  heapauxi.o(.text)
    __read_errno                             0x08000281   Thumb Code    10  _rserrno.o(.text)
    __set_errno                              0x0800028b   Thumb Code    12  _rserrno.o(.text)
    __aeabi_errno_addr                       0x08000299   Thumb Code     8  rt_errno_addr_intlibspace.o(.text)
    __errno$intlibspace                      0x08000299   Thumb Code     0  rt_errno_addr_intlibspace.o(.text)
    __rt_errno_addr$intlibspace              0x08000299   Thumb Code     0  rt_errno_addr_intlibspace.o(.text)
    __user_libspace                          0x080002a1   Thumb Code     8  libspace.o(.text)
    __user_perproc_libspace                  0x080002a1   Thumb Code     0  libspace.o(.text)
    __user_perthread_libspace                0x080002a1   Thumb Code     0  libspace.o(.text)
    __user_setup_stackheap                   0x080002a9   Thumb Code    74  sys_stackheap_outer.o(.text)
    exit                                     0x080002f3   Thumb Code    18  exit.o(.text)
    _sys_exit                                0x08000305   Thumb Code     8  sys_exit.o(.text)
    __I$use$semihosting                      0x08000311   Thumb Code     0  use_no_semi.o(.text)
    __use_no_semihosting_swi                 0x08000311   Thumb Code     2  use_no_semi.o(.text)
    ADC_Cmd                                  0x08000313   Thumb Code    22  stm32f10x_adc.o(i.ADC_Cmd)
    __semihosting_library_function           0x08000313   Thumb Code     0  indicate_semi.o(.text)
    ADC_DMACmd                               0x08000329   Thumb Code    22  stm32f10x_adc.o(i.ADC_DMACmd)
    ADC_GetCalibrationStatus                 0x0800033f   Thumb Code    20  stm32f10x_adc.o(i.ADC_GetCalibrationStatus)
    ADC_Init                                 0x08000355   Thumb Code    70  stm32f10x_adc.o(i.ADC_Init)
    ADC_RegularChannelConfig                 0x080003a5   Thumb Code   184  stm32f10x_adc.o(i.ADC_RegularChannelConfig)
    ADC_ResetCalibration                     0x0800045d   Thumb Code    10  stm32f10x_adc.o(i.ADC_ResetCalibration)
    ADC_SoftwareStartConvCmd                 0x08000467   Thumb Code    22  stm32f10x_adc.o(i.ADC_SoftwareStartConvCmd)
    ADC_StartCalibration                     0x0800047d   Thumb Code    10  stm32f10x_adc.o(i.ADC_StartCalibration)
    ANOSendStatus                            0x08000905   Thumb Code   322  usart2.o(i.ANOSendStatus)
    AccDataTransToG                          0x08000a9d   Thumb Code    44  mpu6050.o(i.AccDataTransToG)
    AdcInit                                  0x08000ac9   Thumb Code    20  adc.o(i.AdcInit)
    AllPidInit                               0x08000ae1   Thumb Code   180  pid.o(i.AllPidInit)
    AngleController                          0x08000ba9   Thumb Code   132  controller.o(i.AngleController)
    BusFault_Handler                         0x08000c41   Thumb Code     4  stm32f10x_it.o(i.BusFault_Handler)
    ButtomLedColorSet                        0x08000c45   Thumb Code   122  led.o(i.ButtomLedColorSet)
    ButtomLedOff                             0x08000cc5   Thumb Code    16  led.o(i.ButtomLedOff)
    ClearIntegral                            0x08000cd9   Thumb Code     6  pid.o(i.ClearIntegral)
    ControModel                              0x08000ce1   Thumb Code    50  controller.o(i.ControModel)
    ControllerOutput                         0x08000d25   Thumb Code   438  controller.o(i.ControllerOutput)
    DMA_Cmd                                  0x08000ef9   Thumb Code    24  stm32f10x_dma.o(i.DMA_Cmd)
    DMA_DeInit                               0x08000f11   Thumb Code   324  stm32f10x_dma.o(i.DMA_DeInit)
    DMA_Init                                 0x0800105d   Thumb Code    60  stm32f10x_dma.o(i.DMA_Init)
    DMA_SetCurrDataCounter                   0x08001099   Thumb Code     4  stm32f10x_dma.o(i.DMA_SetCurrDataCounter)
    DebugMon_Handler                         0x080012c9   Thumb Code     2  stm32f10x_it.o(i.DebugMon_Handler)
    DegTransform                             0x080012cd   Thumb Code    38  mpu6050.o(i.DegTransform)
    DmaConfig                                0x080012f9   Thumb Code    78  adc.o(i.DmaConfig)
    FLASH_ClearFlag                          0x08001351   Thumb Code     6  stm32f10x_flash.o(i.FLASH_ClearFlag)
    FLASH_ErasePage                          0x0800135d   Thumb Code    72  stm32f10x_flash.o(i.FLASH_ErasePage)
    FLASH_GetBank1Status                     0x080013a9   Thumb Code    48  stm32f10x_flash.o(i.FLASH_GetBank1Status)
    FLASH_LockBank1                          0x080013dd   Thumb Code    14  stm32f10x_flash.o(i.FLASH_LockBank1)
    FLASH_ProgramWord                        0x080013f1   Thumb Code   102  stm32f10x_flash.o(i.FLASH_ProgramWord)
    FLASH_UnlockBank1                        0x0800145d   Thumb Code    12  stm32f10x_flash.o(i.FLASH_UnlockBank1)
    FLASH_WaitForLastOperation               0x08001475   Thumb Code    38  stm32f10x_flash.o(i.FLASH_WaitForLastOperation)
    FastSqrt                                 0x0800149d   Thumb Code    72  imath.o(i.FastSqrt)
    FrontLedBlinkSet                         0x080014e9   Thumb Code   118  led.o(i.FrontLedBlinkSet)
    GPIO_Init                                0x08001571   Thumb Code   278  stm32f10x_gpio.o(i.GPIO_Init)
    GPIO_PinRemapConfig                      0x08001689   Thumb Code   138  stm32f10x_gpio.o(i.GPIO_PinRemapConfig)
    GPIO_ResetBits                           0x08001719   Thumb Code     4  stm32f10x_gpio.o(i.GPIO_ResetBits)
    GPIO_SetBits                             0x0800171d   Thumb Code     4  stm32f10x_gpio.o(i.GPIO_SetBits)
    GetAccRaw                                0x08001721   Thumb Code   220  mpu6050.o(i.GetAccRaw)
    GetGyroRaw                               0x0800182d   Thumb Code   186  mpu6050.o(i.GetGyroRaw)
    GyroController                           0x080018fd   Thumb Code    68  controller.o(i.GyroController)
    HardFault_Handler                        0x08001949   Thumb Code     4  stm32f10x_it.o(i.HardFault_Handler)
    I2cInit                                  0x0800194d   Thumb Code    86  iic.o(i.I2cInit)
    IIC_Read_Byte                            0x080019a9   Thumb Code    62  iic.o(i.IIC_Read_Byte)
    IIC_Read_One_Byte                        0x080019ed   Thumb Code    52  iic.o(i.IIC_Read_One_Byte)
    IIC_Send_Byte                            0x08001a21   Thumb Code    92  iic.o(i.IIC_Send_Byte)
    IIC_Slave_Ack                            0x08001a81   Thumb Code    80  iic.o(i.IIC_Slave_Ack)
    IIC_Start                                0x08001ad5   Thumb Code    34  iic.o(i.IIC_Start)
    IIC_Stop                                 0x08001afd   Thumb Code    52  iic.o(i.IIC_Stop)
    IIC_Write_One_Byte                       0x08001b35   Thumb Code    36  iic.o(i.IIC_Write_One_Byte)
    IMUUpdate                                0x08001b5d   Thumb Code  1240  imu.o(i.IMUUpdate)
    LedInit                                  0x08002059   Thumb Code    88  led.o(i.LedInit)
    LedStatusOff                             0x080020bd   Thumb Code    20  led.o(i.LedStatusOff)
    LeftButtomLedBlinkSet                    0x080020d9   Thumb Code   112  led.o(i.LeftButtomLedBlinkSet)
    Matrix_ready                             0x08002151   Thumb Code   216  imu.o(i.Matrix_ready)
    MemManage_Handler                        0x0800224d   Thumb Code     4  stm32f10x_it.o(i.MemManage_Handler)
    MyAbs                                    0x08002251   Thumb Code    24  imath.o(i.MyAbs)
    NMI_Handler                              0x08002269   Thumb Code     2  stm32f10x_it.o(i.NMI_Handler)
    NRF24L01Init                             0x0800226d   Thumb Code    80  nrf24l01.o(i.NRF24L01Init)
    NRF24L01ReceiveMode                      0x080022c5   Thumb Code   104  nrf24l01.o(i.NRF24L01ReceiveMode)
    NRF24L01_Check                           0x08002335   Thumb Code    66  nrf24l01.o(i.NRF24L01_Check)
    NRF24L01_RxPacket                        0x08002381   Thumb Code    52  nrf24l01.o(i.NRF24L01_RxPacket)
    NVIC_Init                                0x080023b5   Thumb Code   100  misc.o(i.NVIC_Init)
    NVIC_PriorityGroupConfig                 0x08002425   Thumb Code    10  misc.o(i.NVIC_PriorityGroupConfig)
    NVIC_config                              0x08002439   Thumb Code    68  nvic.o(i.NVIC_config)
    NrfACKPacket                             0x0800247d   Thumb Code    50  parse_packet.o(i.NrfACKPacket)
    PendSV_Handler                           0x080024b9   Thumb Code     2  stm32f10x_it.o(i.PendSV_Handler)
    PidController                            0x080024bb   Thumb Code   164  pid.o(i.PidController)
    PidDataReadFromFlash                     0x0800255f   Thumb Code   256  flash.o(i.PidDataReadFromFlash)
    PidDataWriteToFlash                      0x080026f9   Thumb Code   342  flash.o(i.PidDataWriteToFlash)
    PidInit                                  0x08002855   Thumb Code    62  pid.o(i.PidInit)
    PlaneLockStatus                          0x08002899   Thumb Code   214  fc_status.o(i.PlaneLockStatus)
    PwmInit                                  0x0800297d   Thumb Code   200  pwm.o(i.PwmInit)
    PwmOut                                   0x08002a4d   Thumb Code    86  pwm.o(i.PwmOut)
    RCC_ADCCLKConfig                         0x08002aa9   Thumb Code    18  stm32f10x_rcc.o(i.RCC_ADCCLKConfig)
    RCC_AHBPeriphClockCmd                    0x08002ac1   Thumb Code    26  stm32f10x_rcc.o(i.RCC_AHBPeriphClockCmd)
    RCC_APB1PeriphClockCmd                   0x08002ae1   Thumb Code    26  stm32f10x_rcc.o(i.RCC_APB1PeriphClockCmd)
    RCC_APB2PeriphClockCmd                   0x08002b01   Thumb Code    26  stm32f10x_rcc.o(i.RCC_APB2PeriphClockCmd)
    RCC_GetClocksFreq                        0x08002b21   Thumb Code   192  stm32f10x_rcc.o(i.RCC_GetClocksFreq)
    RadTransform                             0x08002bf5   Thumb Code    38  mpu6050.o(i.RadTransform)
    SDA_IN                                   0x08002c21   Thumb Code    24  iic.o(i.SDA_IN)
    SDA_OUT                                  0x08002c3d   Thumb Code    30  iic.o(i.SDA_OUT)
    SPI_Cmd                                  0x08002c61   Thumb Code    24  stm32f10x_spi.o(i.SPI_Cmd)
    SPI_I2S_GetFlagStatus                    0x08002c79   Thumb Code    18  stm32f10x_spi.o(i.SPI_I2S_GetFlagStatus)
    SPI_I2S_ReceiveData                      0x08002c8b   Thumb Code     6  stm32f10x_spi.o(i.SPI_I2S_ReceiveData)
    SPI_I2S_SendData                         0x08002c91   Thumb Code     4  stm32f10x_spi.o(i.SPI_I2S_SendData)
    SPI_Init                                 0x08002c95   Thumb Code    60  stm32f10x_spi.o(i.SPI_Init)
    SPI_Read_Buf                             0x08002cd1   Thumb Code    60  nrf24l01.o(i.SPI_Read_Buf)
    SPI_Read_Reg                             0x08002d11   Thumb Code    38  nrf24l01.o(i.SPI_Read_Reg)
    SPI_Write_Buf                            0x08002d3d   Thumb Code    60  nrf24l01.o(i.SPI_Write_Buf)
    SPI_Write_Reg                            0x08002d7d   Thumb Code    40  nrf24l01.o(i.SPI_Write_Reg)
    STM32_FLASH_Read                         0x08002da9   Thumb Code    26  flash.o(i.STM32_FLASH_Read)
    SVC_Handler                              0x08002dc3   Thumb Code     2  stm32f10x_it.o(i.SVC_Handler)
    SpiInit                                  0x08002ead   Thumb Code   156  spi.o(i.SpiInit)
    Spi_RW_Byte                              0x08002f55   Thumb Code    50  spi.o(i.Spi_RW_Byte)
    SysTick_Handler                          0x08002f8d   Thumb Code    18  systick.o(i.SysTick_Handler)
    SystemInit                               0x08002fa5   Thumb Code    78  system_stm32f10x.o(i.SystemInit)
    SystickInit                              0x08003005   Thumb Code    38  systick.o(i.SystickInit)
    TIM3_IRQHandler                          0x08003035   Thumb Code   204  timer.o(i.TIM3_IRQHandler)
    TIM_ARRPreloadConfig                     0x08003129   Thumb Code    24  stm32f10x_tim.o(i.TIM_ARRPreloadConfig)
    TIM_ClearFlag                            0x08003141   Thumb Code     6  stm32f10x_tim.o(i.TIM_ClearFlag)
    TIM_Cmd                                  0x08003147   Thumb Code    24  stm32f10x_tim.o(i.TIM_Cmd)
    TIM_CtrlPWMOutputs                       0x0800315f   Thumb Code    30  stm32f10x_tim.o(i.TIM_CtrlPWMOutputs)
    TIM_ITConfig                             0x0800317d   Thumb Code    18  stm32f10x_tim.o(i.TIM_ITConfig)
    TIM_OC1Init                              0x08003191   Thumb Code   132  stm32f10x_tim.o(i.TIM_OC1Init)
    TIM_OC1PreloadConfig                     0x08003229   Thumb Code    18  stm32f10x_tim.o(i.TIM_OC1PreloadConfig)
    TIM_OC2Init                              0x0800323d   Thumb Code   154  stm32f10x_tim.o(i.TIM_OC2Init)
    TIM_OC2PreloadConfig                     0x080032e1   Thumb Code    26  stm32f10x_tim.o(i.TIM_OC2PreloadConfig)
    TIM_OC3Init                              0x080032fd   Thumb Code   150  stm32f10x_tim.o(i.TIM_OC3Init)
    TIM_OC3PreloadConfig                     0x0800339d   Thumb Code    18  stm32f10x_tim.o(i.TIM_OC3PreloadConfig)
    TIM_OC4Init                              0x080033b1   Thumb Code   114  stm32f10x_tim.o(i.TIM_OC4Init)
    TIM_OC4PreloadConfig                     0x0800342d   Thumb Code    26  stm32f10x_tim.o(i.TIM_OC4PreloadConfig)
    TIM_TimeBaseInit                         0x08003449   Thumb Code   122  stm32f10x_tim.o(i.TIM_TimeBaseInit)
    ThrottleLimit                            0x080034ed   Thumb Code    14  imath.o(i.ThrottleLimit)
    TimerInit                                0x080034fd   Thumb Code    72  timer.o(i.TimerInit)
    TopLedBlink                              0x08003549   Thumb Code    90  led.o(i.TopLedBlink)
    TopLedColorSet                           0x080035ad   Thumb Code   130  led.o(i.TopLedColorSet)
    TopLedStatus                             0x08003639   Thumb Code    98  led.o(i.TopLedStatus)
    USART2_IRQHandler                        0x080036a5   Thumb Code    32  usart2.o(i.USART2_IRQHandler)
    USART_ClearFlag                          0x080036c9   Thumb Code    18  stm32f10x_usart.o(i.USART_ClearFlag)
    USART_Cmd                                0x080036db   Thumb Code    24  stm32f10x_usart.o(i.USART_Cmd)
    USART_DMACmd                             0x080036f3   Thumb Code    18  stm32f10x_usart.o(i.USART_DMACmd)
    USART_GetFlagStatus                      0x08003705   Thumb Code    26  stm32f10x_usart.o(i.USART_GetFlagStatus)
    USART_GetITStatus                        0x0800371f   Thumb Code    84  stm32f10x_usart.o(i.USART_GetITStatus)
    USART_ITConfig                           0x08003773   Thumb Code    74  stm32f10x_usart.o(i.USART_ITConfig)
    USART_Init                               0x080037bd   Thumb Code   210  stm32f10x_usart.o(i.USART_Init)
    USART_ReceiveData                        0x08003895   Thumb Code    10  stm32f10x_usart.o(i.USART_ReceiveData)
    UnusualProtect                           0x080038a1   Thumb Code    58  controller.o(i.UnusualProtect)
    UsageFault_Handler                       0x080038ed   Thumb Code     4  stm32f10x_it.o(i.UsageFault_Handler)
    Usart2Init                               0x0800393d   Thumb Code   132  usart2.o(i.Usart2Init)
    VoltageDetect                            0x08003a41   Thumb Code    78  adc.o(i.VoltageDetect)
    __ARM_fpclassify                         0x08003aa1   Thumb Code    40  fpclassify.o(i.__ARM_fpclassify)
    __ieee754_rem_pio2                       0x08003ac9   Thumb Code   828  rred.o(i.__ieee754_rem_pio2)
    __kernel_cos                             0x08003e51   Thumb Code   230  cos_i.o(i.__kernel_cos)
    __kernel_poly                            0x08003f4d   Thumb Code   170  poly.o(i.__kernel_poly)
    __kernel_sin                             0x08003ff9   Thumb Code   224  sin_i.o(i.__kernel_sin)
    __mathlib_dbl_infnan                     0x080040e5   Thumb Code     6  dunder.o(i.__mathlib_dbl_infnan)
    __mathlib_dbl_infnan2                    0x080040eb   Thumb Code     4  dunder.o(i.__mathlib_dbl_infnan2)
    __mathlib_dbl_invalid                    0x080040ef   Thumb Code    12  dunder.o(i.__mathlib_dbl_invalid)
    __mathlib_dbl_underflow                  0x080040fd   Thumb Code    10  dunder.o(i.__mathlib_dbl_underflow)
    _controller_perform                      0x0800410d   Thumb Code    30  controller.o(i._controller_perform)
    _set_val                                 0x08004131   Thumb Code    14  imath.o(i._set_val)
    acc_cal_polling                          0x08004141   Thumb Code   410  acc_cal.o(i.acc_cal_polling)
    acc_iir_lpf                              0x080042ed   Thumb Code    92  mpu6050.o(i.acc_iir_lpf)
    adc_config                               0x08004349   Thumb Code   136  adc.o(i.adc_config)
    adc_gpio_init                            0x080043d5   Thumb Code    32  adc.o(i.adc_gpio_init)
    asin                                     0x080043f9   Thumb Code   572  asin.o(i.asin)
    atan                                     0x08004669   Thumb Code   474  atan.o(i.atan)
    atan2                                    0x08004889   Thumb Code   346  atan2.o(i.atan2)
    butterworth_lpf                          0x08004a09   Thumb Code   116  mpu6050.o(i.butterworth_lpf)
    cos                                      0x08004a7d   Thumb Code   148  cos.o(i.cos)
    delay_ms                                 0x08004b19   Thumb Code    62  systick.o(i.delay_ms)
    direction_to_zero                        0x08004b5d   Thumb Code    34  imath.o(i.direction_to_zero)
    flash_read_cal                           0x08004b81   Thumb Code   434  flash.o(i.flash_read_cal)
    get_iir_factor                           0x08004d39   Thumb Code    54  mpu6050.o(i.get_iir_factor)
    get_mpu_id                               0x08004d75   Thumb Code    16  mpu6050.o(i.get_mpu_id)
    get_nav_acc                              0x08004d85   Thumb Code   330  nav.o(i.get_nav_acc)
    gyro_cal_polling                         0x08004ee5   Thumb Code   108  gyro_cal.o(i.gyro_cal_polling)
    main                                     0x08004f5d   Thumb Code   162  main.o(i.main)
    mpu6050_init                             0x0800500d   Thumb Code    70  mpu6050.o(i.mpu6050_init)
    nrf_parse_packet                         0x08005055   Thumb Code   258  parse_packet.o(i.nrf_parse_packet)
    read_cal_dat                             0x08005169   Thumb Code   368  acc_cal.o(i.read_cal_dat)
    rotation_matrix                          0x080052ed   Thumb Code   512  imu.o(i.rotation_matrix)
    rotation_matrix_T                        0x08005501   Thumb Code   520  imu.o(i.rotation_matrix_T)
    set_value                                0x0800571d   Thumb Code     8  imath.o(i.set_value)
    sin                                      0x08005725   Thumb Code   150  sin.o(i.sin)
    sqrt                                     0x080057c5   Thumb Code    76  sqrt.o(i.sqrt)
    time_check                               0x08005811   Thumb Code    54  timer.o(i.time_check)
    wait_pairing                             0x08005855   Thumb Code   154  pair_freq.o(i.wait_pairing)
    __aeabi_d2f                              0x08005901   Thumb Code     0  d2f.o(x$fpl$d2f)
    _d2f                                     0x08005901   Thumb Code    98  d2f.o(x$fpl$d2f)
    __aeabi_dadd                             0x08005965   Thumb Code     0  daddsub_clz.o(x$fpl$dadd)
    _dadd                                    0x08005965   Thumb Code   332  daddsub_clz.o(x$fpl$dadd)
    __fpl_dcheck_NaN1                        0x08005ab5   Thumb Code    10  dcheck1.o(x$fpl$dcheck1)
    __aeabi_ddiv                             0x08005ac5   Thumb Code     0  ddiv.o(x$fpl$ddiv)
    _ddiv                                    0x08005ac5   Thumb Code   552  ddiv.o(x$fpl$ddiv)
    __aeabi_d2iz                             0x08005d75   Thumb Code     0  dfix.o(x$fpl$dfix)
    _dfix                                    0x08005d75   Thumb Code    94  dfix.o(x$fpl$dfix)
    __aeabi_i2d                              0x08005dd3   Thumb Code     0  dflt_clz.o(x$fpl$dflt)
    _dflt                                    0x08005dd3   Thumb Code    46  dflt_clz.o(x$fpl$dflt)
    __aeabi_ui2d                             0x08005e01   Thumb Code     0  dflt_clz.o(x$fpl$dfltu)
    _dfltu                                   0x08005e01   Thumb Code    38  dflt_clz.o(x$fpl$dfltu)
    __aeabi_dmul                             0x08005e29   Thumb Code     0  dmul.o(x$fpl$dmul)
    _dmul                                    0x08005e29   Thumb Code   332  dmul.o(x$fpl$dmul)
    __fpl_dnaninf                            0x08005f7d   Thumb Code   156  dnaninf.o(x$fpl$dnaninf)
    __fpl_dretinf                            0x08006019   Thumb Code    12  dretinf.o(x$fpl$dretinf)
    __aeabi_drsub                            0x08006025   Thumb Code     0  daddsub_clz.o(x$fpl$drsb)
    _drsb                                    0x08006025   Thumb Code    22  daddsub_clz.o(x$fpl$drsb)
    _dsqrt                                   0x0800603d   Thumb Code   456  dsqrt_noumaal.o(x$fpl$dsqrt)
    __aeabi_dsub                             0x08006209   Thumb Code     0  daddsub_clz.o(x$fpl$dsub)
    _dsub                                    0x08006209   Thumb Code   464  daddsub_clz.o(x$fpl$dsub)
    __aeabi_f2d                              0x080063dd   Thumb Code     0  f2d.o(x$fpl$f2d)
    _f2d                                     0x080063dd   Thumb Code    86  f2d.o(x$fpl$f2d)
    __aeabi_fadd                             0x08006435   Thumb Code     0  faddsub_clz.o(x$fpl$fadd)
    _fadd                                    0x08006435   Thumb Code   196  faddsub_clz.o(x$fpl$fadd)
    __fpl_fcmp_Inf                           0x080064f9   Thumb Code    24  fcmpi.o(x$fpl$fcmpinf)
    __aeabi_fdiv                             0x08006511   Thumb Code     0  fdiv.o(x$fpl$fdiv)
    _fdiv                                    0x08006511   Thumb Code   384  fdiv.o(x$fpl$fdiv)
    __aeabi_cfcmpeq                          0x08006695   Thumb Code     0  feqf.o(x$fpl$feqf)
    _fcmpeq                                  0x08006695   Thumb Code   104  feqf.o(x$fpl$feqf)
    __aeabi_f2iz                             0x080066fd   Thumb Code     0  ffix.o(x$fpl$ffix)
    _ffix                                    0x080066fd   Thumb Code    54  ffix.o(x$fpl$ffix)
    __aeabi_f2uiz                            0x08006735   Thumb Code     0  ffixu.o(x$fpl$ffixu)
    _ffixu                                   0x08006735   Thumb Code    62  ffixu.o(x$fpl$ffixu)
    __aeabi_i2f                              0x08006775   Thumb Code     0  fflt_clz.o(x$fpl$fflt)
    _fflt                                    0x08006775   Thumb Code    48  fflt_clz.o(x$fpl$fflt)
    __aeabi_ui2f                             0x080067a5   Thumb Code     0  fflt_clz.o(x$fpl$ffltu)
    _ffltu                                   0x080067a5   Thumb Code    38  fflt_clz.o(x$fpl$ffltu)
    __aeabi_cfcmple                          0x080067cd   Thumb Code     0  fleqf.o(x$fpl$fleqf)
    _fcmple                                  0x080067cd   Thumb Code   104  fleqf.o(x$fpl$fleqf)
    __fpl_fcmple_InfNaN                      0x0800681f   Thumb Code     0  fleqf.o(x$fpl$fleqf)
    __aeabi_fmul                             0x08006835   Thumb Code     0  fmul.o(x$fpl$fmul)
    _fmul                                    0x08006835   Thumb Code   258  fmul.o(x$fpl$fmul)
    __fpl_fnaninf                            0x08006937   Thumb Code   140  fnaninf.o(x$fpl$fnaninf)
    __fpl_fretinf                            0x080069c3   Thumb Code    10  fretinf.o(x$fpl$fretinf)
    __aeabi_cfrcmple                         0x080069cd   Thumb Code     0  frleqf.o(x$fpl$frleqf)
    _frcmple                                 0x080069cd   Thumb Code    98  frleqf.o(x$fpl$frleqf)
    __aeabi_frsub                            0x08006a2f   Thumb Code     0  faddsub_clz.o(x$fpl$frsb)
    _frsb                                    0x08006a2f   Thumb Code    20  faddsub_clz.o(x$fpl$frsb)
    __aeabi_fsub                             0x08006a45   Thumb Code     0  faddsub_clz.o(x$fpl$fsub)
    _fsub                                    0x08006a45   Thumb Code   234  faddsub_clz.o(x$fpl$fsub)
    __fpl_return_NaN                         0x08006b2f   Thumb Code   100  retnan.o(x$fpl$retnan)
    __ARM_scalbn                             0x08006b93   Thumb Code    92  scalbn.o(x$fpl$scalbn)
    __fpl_cmpreturn                          0x08006bef   Thumb Code    48  trapv.o(x$fpl$trapveneer)
    __I$use$fp                               0x08006c1e   Number         0  usenofp.o(x$fpl$usenofp)
    pidIintData                              0x08006c20   Data         300  pid.o(.constdata)
    __mathlib_zero                           0x08006e68   Data           8  qnan.o(.constdata)
    Region$$Table$$Base                      0x08006f60   Number         0  anon$$obj.o(Region$$Table)
    Region$$Table$$Limit                     0x08006f80   Number         0  anon$$obj.o(Region$$Table)
    SystemCoreClock                          0x20000000   Data           4  system_stm32f10x.o(.data)
    AHBPrescTable                            0x20000004   Data          16  system_stm32f10x.o(.data)
    tickCount                                0x20000014   Data           4  systick.o(.data)
    blinkSpeedCount                          0x20000018   Data           2  led.o(.data)
    blinkPeriodCount                         0x2000001a   Data           2  led.o(.data)
    ledButtomCount                           0x2000001c   Data           2  led.o(.data)
    LedButtomCount                           0x2000001e   Data           1  led.o(.data)
    locateLedBlinkSpeedCount                 0x20000020   Data           2  led.o(.data)
    locateLedBlinkSpeed                      0x20000022   Data           2  led.o(.data)
    accRaw                                   0x20000024   Data           6  mpu6050.o(.data)
    gyroRaw                                  0x2000002a   Data           6  mpu6050.o(.data)
    gyro_30hz_parameter                      0x20000030   Data          24  mpu6050.o(.data)
    acc_5hz_parameter                        0x20000048   Data          24  mpu6050.o(.data)
    flash_flag                               0x20000060   Data           2  flash.o(.data)
    flashStatus                              0x20000062   Data           1  flash.o(.data)
    pair                                     0x20000063   Data           6  pair_freq.o(.data)
    adc_value                                0x2000006c   Data           2  adc.o(.data)
    padc_value                               0x20000070   Data           4  adc.o(.data)
    pidResetFlag                             0x20000074   Data           4  pid.o(.data)
    running_tim_cnt                          0x20000078   Data           4  timer.o(.data)
    controller_cnt                           0x2000007c   Data           3  controller.o(.data)
    throttle                                 0x20000080   Data           4  controller.o(.data)
    _control                                 0x20000084   Data           1  controller.o(.data)
    Motor1                                   0x20000086   Data           2  controller.o(.data)
    Motor2                                   0x20000088   Data           2  controller.o(.data)
    Motor3                                   0x2000008a   Data           2  controller.o(.data)
    Motor4                                   0x2000008c   Data           2  controller.o(.data)
    high_mark_flag                           0x2000008e   Data           1  controller.o(.data)
    fix_mark_flag                            0x2000008f   Data           1  controller.o(.data)
    q0                                       0x20000094   Data           4  imu.o(.data)
    q1                                       0x20000098   Data           4  imu.o(.data)
    q2                                       0x2000009c   Data           4  imu.o(.data)
    q3                                       0x200000a0   Data           4  imu.o(.data)
    errIntX                                  0x200000a4   Data           4  imu.o(.data)
    errIntY                                  0x200000a8   Data           4  imu.o(.data)
    errIntZ                                  0x200000ac   Data           4  imu.o(.data)
    sin_pit                                  0x200000b0   Data           4  imu.o(.data)
    sin_rol                                  0x200000b4   Data           4  imu.o(.data)
    sin_yaw                                  0x200000b8   Data           4  imu.o(.data)
    cos_pit                                  0x200000bc   Data           4  imu.o(.data)
    cos_rol                                  0x200000c0   Data           4  imu.o(.data)
    cos_yaw                                  0x200000c4   Data           4  imu.o(.data)
    accButterworthData                       0x200000e0   Data          12  mpu6050.o(.bss)
    gyroButterworthData                      0x200000ec   Data          12  mpu6050.o(.bss)
    acc_att_lpf                              0x200000f8   Data          12  mpu6050.o(.bss)
    acc_fix_lpf                              0x20000104   Data          12  mpu6050.o(.bss)
    acc_1_lpf                                0x20000110   Data          12  mpu6050.o(.bss)
    acc_butter_lpf                           0x2000011c   Data          12  mpu6050.o(.bss)
    gyro_lpf                                 0x20000128   Data          12  mpu6050.o(.bss)
    gyro_offset                              0x20000134   Data          12  mpu6050.o(.bss)
    Mpu                                      0x20000140   Data          44  mpu6050.o(.bss)
    gyroButterData                           0x2000016c   Data          72  mpu6050.o(.bss)
    acc_butter_data                          0x200001b4   Data          72  mpu6050.o(.bss)
    cal_acc                                  0x200001fc   Data         196  acc_cal.o(.bss)
    acc_cal_samples                          0x200002c0   Data          72  acc_cal.o(.bss)
    cal_gyro                                 0x20000308   Data          52  gyro_cal.o(.bss)
    Rx_packet                                0x2000033c   Data          11  parse_packet.o(.bss)
    txPacket                                 0x20000347   Data          11  parse_packet.o(.bss)
    plane                                    0x20000354   Data          44  parse_packet.o(.bss)
    allPid                                   0x20000380   Data         660  pid.o(.bss)
    run_start                                0x20000614   Data          16  timer.o(.bss)
    run_stop                                 0x20000624   Data          16  timer.o(.bss)
    Mat                                      0x20000634   Data          72  imu.o(.bss)
    att                                      0x2000067c   Data          48  imu.o(.bss)
    att_time                                 0x200006ac   Data          16  imu.o(.bss)
    nav                                      0x200006bc   Data          28  nav.o(.bss)
    __libspace_start                         0x2000070c   Data          96  libspace.o(.bss)
    __temporary_stack_top$libspace           0x2000076c   Data           0  libspace.o(.bss)



==============================================================================

Memory Map of the image

  Image Entry point : 0x080000ed

  Load Region LR_IROM1 (Base: 0x08000000, Size: 0x00007060, Max: 0x00010000, ABSOLUTE)

    Execution Region ER_IROM1 (Exec base: 0x08000000, Load base: 0x08000000, Size: 0x00006f80, Max: 0x00010000, ABSOLUTE)

    Exec Addr    Load Addr    Size         Type   Attr      Idx    E Section Name        Object

    0x08000000   0x08000000   0x000000ec   Data   RO          254    RESET               startup_stm32f10x_md.o
    0x080000ec   0x080000ec   0x00000008   Code   RO         4205  * !!!main             c_w.l(__main.o)
    0x080000f4   0x080000f4   0x00000034   Code   RO         4537    !!!scatter          c_w.l(__scatter.o)
    0x08000128   0x08000128   0x0000001a   Code   RO         4539    !!handler_copy      c_w.l(__scatter_copy.o)
    0x08000142   0x08000142   0x00000002   PAD
    0x08000144   0x08000144   0x0000001c   Code   RO         4541    !!handler_zi        c_w.l(__scatter_zi.o)
    0x08000160   0x08000160   0x00000002   Code   RO         4406    .ARM.Collect$$libinit$$00000000  c_w.l(libinit.o)
    0x08000162   0x08000162   0x00000000   Code   RO         4412    .ARM.Collect$$libinit$$00000002  c_w.l(libinit2.o)
    0x08000162   0x08000162   0x00000000   Code   RO         4414    .ARM.Collect$$libinit$$00000004  c_w.l(libinit2.o)
    0x08000162   0x08000162   0x00000000   Code   RO         4417    .ARM.Collect$$libinit$$0000000A  c_w.l(libinit2.o)
    0x08000162   0x08000162   0x00000000   Code   RO         4419    .ARM.Collect$$libinit$$0000000C  c_w.l(libinit2.o)
    0x08000162   0x08000162   0x00000000   Code   RO         4421    .ARM.Collect$$libinit$$0000000E  c_w.l(libinit2.o)
    0x08000162   0x08000162   0x00000000   Code   RO         4424    .ARM.Collect$$libinit$$00000011  c_w.l(libinit2.o)
    0x08000162   0x08000162   0x00000000   Code   RO         4426    .ARM.Collect$$libinit$$00000013  c_w.l(libinit2.o)
    0x08000162   0x08000162   0x00000000   Code   RO         4428    .ARM.Collect$$libinit$$00000015  c_w.l(libinit2.o)
    0x08000162   0x08000162   0x00000000   Code   RO         4430    .ARM.Collect$$libinit$$00000017  c_w.l(libinit2.o)
    0x08000162   0x08000162   0x00000000   Code   RO         4432    .ARM.Collect$$libinit$$00000019  c_w.l(libinit2.o)
    0x08000162   0x08000162   0x00000000   Code   RO         4434    .ARM.Collect$$libinit$$0000001B  c_w.l(libinit2.o)
    0x08000162   0x08000162   0x00000000   Code   RO         4436    .ARM.Collect$$libinit$$0000001D  c_w.l(libinit2.o)
    0x08000162   0x08000162   0x00000000   Code   RO         4438    .ARM.Collect$$libinit$$0000001F  c_w.l(libinit2.o)
    0x08000162   0x08000162   0x00000000   Code   RO         4440    .ARM.Collect$$libinit$$00000021  c_w.l(libinit2.o)
    0x08000162   0x08000162   0x00000000   Code   RO         4442    .ARM.Collect$$libinit$$00000023  c_w.l(libinit2.o)
    0x08000162   0x08000162   0x00000000   Code   RO         4444    .ARM.Collect$$libinit$$00000025  c_w.l(libinit2.o)
    0x08000162   0x08000162   0x00000000   Code   RO         4448    .ARM.Collect$$libinit$$0000002C  c_w.l(libinit2.o)
    0x08000162   0x08000162   0x00000000   Code   RO         4450    .ARM.Collect$$libinit$$0000002E  c_w.l(libinit2.o)
    0x08000162   0x08000162   0x00000000   Code   RO         4452    .ARM.Collect$$libinit$$00000030  c_w.l(libinit2.o)
    0x08000162   0x08000162   0x00000000   Code   RO         4454    .ARM.Collect$$libinit$$00000032  c_w.l(libinit2.o)
    0x08000162   0x08000162   0x00000002   Code   RO         4455    .ARM.Collect$$libinit$$00000033  c_w.l(libinit2.o)
    0x08000164   0x08000164   0x00000002   Code   RO         4477    .ARM.Collect$$libshutdown$$00000000  c_w.l(libshutdown.o)
    0x08000166   0x08000166   0x00000000   Code   RO         4490    .ARM.Collect$$libshutdown$$00000002  c_w.l(libshutdown2.o)
    0x08000166   0x08000166   0x00000000   Code   RO         4492    .ARM.Collect$$libshutdown$$00000004  c_w.l(libshutdown2.o)
    0x08000166   0x08000166   0x00000000   Code   RO         4495    .ARM.Collect$$libshutdown$$00000007  c_w.l(libshutdown2.o)
    0x08000166   0x08000166   0x00000000   Code   RO         4498    .ARM.Collect$$libshutdown$$0000000A  c_w.l(libshutdown2.o)
    0x08000166   0x08000166   0x00000000   Code   RO         4500    .ARM.Collect$$libshutdown$$0000000C  c_w.l(libshutdown2.o)
    0x08000166   0x08000166   0x00000000   Code   RO         4503    .ARM.Collect$$libshutdown$$0000000F  c_w.l(libshutdown2.o)
    0x08000166   0x08000166   0x00000002   Code   RO         4504    .ARM.Collect$$libshutdown$$00000010  c_w.l(libshutdown2.o)
    0x08000168   0x08000168   0x00000000   Code   RO         4293    .ARM.Collect$$rtentry$$00000000  c_w.l(__rtentry.o)
    0x08000168   0x08000168   0x00000000   Code   RO         4367    .ARM.Collect$$rtentry$$00000002  c_w.l(__rtentry2.o)
    0x08000168   0x08000168   0x00000006   Code   RO         4379    .ARM.Collect$$rtentry$$00000004  c_w.l(__rtentry4.o)
    0x0800016e   0x0800016e   0x00000000   Code   RO         4369    .ARM.Collect$$rtentry$$00000009  c_w.l(__rtentry2.o)
    0x0800016e   0x0800016e   0x00000004   Code   RO         4370    .ARM.Collect$$rtentry$$0000000A  c_w.l(__rtentry2.o)
    0x08000172   0x08000172   0x00000000   Code   RO         4372    .ARM.Collect$$rtentry$$0000000C  c_w.l(__rtentry2.o)
    0x08000172   0x08000172   0x00000008   Code   RO         4373    .ARM.Collect$$rtentry$$0000000D  c_w.l(__rtentry2.o)
    0x0800017a   0x0800017a   0x00000002   Code   RO         4409    .ARM.Collect$$rtexit$$00000000  c_w.l(rtexit.o)
    0x0800017c   0x0800017c   0x00000000   Code   RO         4459    .ARM.Collect$$rtexit$$00000002  c_w.l(rtexit2.o)
    0x0800017c   0x0800017c   0x00000004   Code   RO         4460    .ARM.Collect$$rtexit$$00000003  c_w.l(rtexit2.o)
    0x08000180   0x08000180   0x00000006   Code   RO         4461    .ARM.Collect$$rtexit$$00000004  c_w.l(rtexit2.o)
    0x08000186   0x08000186   0x00000002   PAD
    0x08000188   0x08000188   0x00000040   Code   RO          255    .text               startup_stm32f10x_md.o
    0x080001c8   0x080001c8   0x00000064   Code   RO         4199    .text               c_w.l(rt_memcpy_w.o)
    0x0800022c   0x0800022c   0x0000004e   Code   RO         4201    .text               c_w.l(rt_memclr_w.o)
    0x0800027a   0x0800027a   0x00000006   Code   RO         4203    .text               c_w.l(heapauxi.o)
    0x08000280   0x08000280   0x00000016   Code   RO         4294    .text               c_w.l(_rserrno.o)
    0x08000296   0x08000296   0x00000002   PAD
    0x08000298   0x08000298   0x00000008   Code   RO         4384    .text               c_w.l(rt_errno_addr_intlibspace.o)
    0x080002a0   0x080002a0   0x00000008   Code   RO         4394    .text               c_w.l(libspace.o)
    0x080002a8   0x080002a8   0x0000004a   Code   RO         4397    .text               c_w.l(sys_stackheap_outer.o)
    0x080002f2   0x080002f2   0x00000012   Code   RO         4399    .text               c_w.l(exit.o)
    0x08000304   0x08000304   0x0000000c   Code   RO         4469    .text               c_w.l(sys_exit.o)
    0x08000310   0x08000310   0x00000002   Code   RO         4480    .text               c_w.l(use_no_semi.o)
    0x08000312   0x08000312   0x00000000   Code   RO         4482    .text               c_w.l(indicate_semi.o)
    0x08000312   0x08000312   0x00000016   Code   RO         1272    i.ADC_Cmd           stm32f10x_adc.o
    0x08000328   0x08000328   0x00000016   Code   RO         1273    i.ADC_DMACmd        stm32f10x_adc.o
    0x0800033e   0x0800033e   0x00000014   Code   RO         1280    i.ADC_GetCalibrationStatus  stm32f10x_adc.o
    0x08000352   0x08000352   0x00000002   PAD
    0x08000354   0x08000354   0x00000050   Code   RO         1290    i.ADC_Init          stm32f10x_adc.o
    0x080003a4   0x080003a4   0x000000b8   Code   RO         1294    i.ADC_RegularChannelConfig  stm32f10x_adc.o
    0x0800045c   0x0800045c   0x0000000a   Code   RO         1295    i.ADC_ResetCalibration  stm32f10x_adc.o
    0x08000466   0x08000466   0x00000016   Code   RO         1297    i.ADC_SoftwareStartConvCmd  stm32f10x_adc.o
    0x0800047c   0x0800047c   0x0000000a   Code   RO         1299    i.ADC_StartCalibration  stm32f10x_adc.o
    0x08000486   0x08000486   0x00000002   PAD
    0x08000488   0x08000488   0x000000e8   Code   RO         1153    i.ANODTDataReceivePrepare  usart2.o
    0x08000570   0x08000570   0x00000394   Code   RO         1154    i.ANODataReceiveAnalysis  usart2.o
    0x08000904   0x08000904   0x00000150   Code   RO         1155    i.ANOSendStatus     usart2.o
    0x08000a54   0x08000a54   0x00000048   Code   RO         1156    i.ANO_DT_Send_Check  usart2.o
    0x08000a9c   0x08000a9c   0x0000002c   Code   RO          495    i.AccDataTransToG   mpu6050.o
    0x08000ac8   0x08000ac8   0x00000018   Code   RO          885    i.AdcInit           adc.o
    0x08000ae0   0x08000ae0   0x000000c8   Code   RO          925    i.AllPidInit        pid.o
    0x08000ba8   0x08000ba8   0x00000098   Code   RO         1012    i.AngleController   controller.o
    0x08000c40   0x08000c40   0x00000004   Code   RO          161    i.BusFault_Handler  stm32f10x_it.o
    0x08000c44   0x08000c44   0x00000080   Code   RO          292    i.ButtomLedColorSet  led.o
    0x08000cc4   0x08000cc4   0x00000014   Code   RO          293    i.ButtomLedOff      led.o
    0x08000cd8   0x08000cd8   0x00000006   Code   RO          926    i.ClearIntegral     pid.o
    0x08000cde   0x08000cde   0x00000002   PAD
    0x08000ce0   0x08000ce0   0x00000044   Code   RO         1013    i.ControModel       controller.o
    0x08000d24   0x08000d24   0x000001d4   Code   RO         1014    i.ControllerOutput  controller.o
    0x08000ef8   0x08000ef8   0x00000018   Code   RO         1957    i.DMA_Cmd           stm32f10x_dma.o
    0x08000f10   0x08000f10   0x0000014c   Code   RO         1958    i.DMA_DeInit        stm32f10x_dma.o
    0x0800105c   0x0800105c   0x0000003c   Code   RO         1963    i.DMA_Init          stm32f10x_dma.o
    0x08001098   0x08001098   0x00000004   Code   RO         1964    i.DMA_SetCurrDataCounter  stm32f10x_dma.o
    0x0800109c   0x0800109c   0x0000022c   Code   RO         1158    i.DateTransfer      usart2.o
    0x080012c8   0x080012c8   0x00000002   Code   RO          162    i.DebugMon_Handler  stm32f10x_it.o
    0x080012ca   0x080012ca   0x00000002   PAD
    0x080012cc   0x080012cc   0x0000002c   Code   RO          496    i.DegTransform      mpu6050.o
    0x080012f8   0x080012f8   0x00000058   Code   RO          886    i.DmaConfig         adc.o
    0x08001350   0x08001350   0x0000000c   Code   RO         2081    i.FLASH_ClearFlag   stm32f10x_flash.o
    0x0800135c   0x0800135c   0x0000004c   Code   RO         2086    i.FLASH_ErasePage   stm32f10x_flash.o
    0x080013a8   0x080013a8   0x00000034   Code   RO         2087    i.FLASH_GetBank1Status  stm32f10x_flash.o
    0x080013dc   0x080013dc   0x00000014   Code   RO         2097    i.FLASH_LockBank1   stm32f10x_flash.o
    0x080013f0   0x080013f0   0x0000006c   Code   RO         2101    i.FLASH_ProgramWord  stm32f10x_flash.o
    0x0800145c   0x0800145c   0x00000018   Code   RO         2105    i.FLASH_UnlockBank1  stm32f10x_flash.o
    0x08001474   0x08001474   0x00000026   Code   RO         2108    i.FLASH_WaitForLastOperation  stm32f10x_flash.o
    0x0800149a   0x0800149a   0x00000002   PAD
    0x0800149c   0x0800149c   0x0000004c   Code   RO          376    i.FastSqrt          imath.o
    0x080014e8   0x080014e8   0x00000088   Code   RO          294    i.FrontLedBlinkSet  led.o
    0x08001570   0x08001570   0x00000116   Code   RO         2381    i.GPIO_Init         stm32f10x_gpio.o
    0x08001686   0x08001686   0x00000002   PAD
    0x08001688   0x08001688   0x00000090   Code   RO         2383    i.GPIO_PinRemapConfig  stm32f10x_gpio.o
    0x08001718   0x08001718   0x00000004   Code   RO         2388    i.GPIO_ResetBits    stm32f10x_gpio.o
    0x0800171c   0x0800171c   0x00000004   Code   RO         2389    i.GPIO_SetBits      stm32f10x_gpio.o
    0x08001720   0x08001720   0x000000ec   Code   RO          497    i.GetAccRaw         mpu6050.o
    0x0800180c   0x0800180c   0x00000020   Code   RO          498    i.GetData           mpu6050.o
    0x0800182c   0x0800182c   0x000000d0   Code   RO          499    i.GetGyroRaw        mpu6050.o
    0x080018fc   0x080018fc   0x0000004c   Code   RO         1015    i.GyroController    controller.o
    0x08001948   0x08001948   0x00000004   Code   RO          163    i.HardFault_Handler  stm32f10x_it.o
    0x0800194c   0x0800194c   0x0000005c   Code   RO          418    i.I2cInit           iic.o
    0x080019a8   0x080019a8   0x00000044   Code   RO          419    i.IIC_Read_Byte     iic.o
    0x080019ec   0x080019ec   0x00000034   Code   RO          420    i.IIC_Read_One_Byte  iic.o
    0x08001a20   0x08001a20   0x00000060   Code   RO          422    i.IIC_Send_Byte     iic.o
    0x08001a80   0x08001a80   0x00000054   Code   RO          423    i.IIC_Slave_Ack     iic.o
    0x08001ad4   0x08001ad4   0x00000028   Code   RO          424    i.IIC_Start         iic.o
    0x08001afc   0x08001afc   0x00000038   Code   RO          425    i.IIC_Stop          iic.o
    0x08001b34   0x08001b34   0x00000024   Code   RO          426    i.IIC_Write_One_Byte  iic.o
    0x08001b58   0x08001b58   0x00000002   Code   RO          427    i.IIC_delay         iic.o
    0x08001b5a   0x08001b5a   0x00000002   PAD
    0x08001b5c   0x08001b5c   0x000004fc   Code   RO         1084    i.IMUUpdate         imu.o
    0x08002058   0x08002058   0x00000064   Code   RO          295    i.LedInit           led.o
    0x080020bc   0x080020bc   0x0000001c   Code   RO          296    i.LedStatusOff      led.o
    0x080020d8   0x080020d8   0x00000078   Code   RO          297    i.LeftButtomLedBlinkSet  led.o
    0x08002150   0x08002150   0x000000fc   Code   RO         1085    i.Matrix_ready      imu.o
    0x0800224c   0x0800224c   0x00000004   Code   RO          164    i.MemManage_Handler  stm32f10x_it.o
    0x08002250   0x08002250   0x00000018   Code   RO          377    i.MyAbs             imath.o
    0x08002268   0x08002268   0x00000002   Code   RO          165    i.NMI_Handler       stm32f10x_it.o
    0x0800226a   0x0800226a   0x00000002   PAD
    0x0800226c   0x0800226c   0x00000058   Code   RO          779    i.NRF24L01Init      nrf24l01.o
    0x080022c4   0x080022c4   0x00000070   Code   RO          780    i.NRF24L01ReceiveMode  nrf24l01.o
    0x08002334   0x08002334   0x0000004c   Code   RO          781    i.NRF24L01_Check    nrf24l01.o
    0x08002380   0x08002380   0x00000034   Code   RO          782    i.NRF24L01_RxPacket  nrf24l01.o
    0x080023b4   0x080023b4   0x00000070   Code   RO         1230    i.NVIC_Init         misc.o
    0x08002424   0x08002424   0x00000014   Code   RO         1231    i.NVIC_PriorityGroupConfig  misc.o
    0x08002438   0x08002438   0x00000044   Code   RO         1000    i.NVIC_config       nvic.o
    0x0800247c   0x0800247c   0x0000003c   Code   RO          747    i.NrfACKPacket      parse_packet.o
    0x080024b8   0x080024b8   0x00000002   Code   RO          166    i.PendSV_Handler    stm32f10x_it.o
    0x080024ba   0x080024ba   0x000000a4   Code   RO          927    i.PidController     pid.o
    0x0800255e   0x0800255e   0x00000100   Code   RO          681    i.PidDataReadFromFlash  flash.o
    0x0800265e   0x0800265e   0x0000009a   Code   RO         1159    i.PidDataSend       usart2.o
    0x080026f8   0x080026f8   0x0000015c   Code   RO          682    i.PidDataWriteToFlash  flash.o
    0x08002854   0x08002854   0x00000044   Code   RO          928    i.PidInit           pid.o
    0x08002898   0x08002898   0x000000e4   Code   RO         1062    i.PlaneLockStatus   fc_status.o
    0x0800297c   0x0800297c   0x000000d0   Code   RO          355    i.PwmInit           pwm.o
    0x08002a4c   0x08002a4c   0x0000005c   Code   RO          356    i.PwmOut            pwm.o
    0x08002aa8   0x08002aa8   0x00000018   Code   RO         2795    i.RCC_ADCCLKConfig  stm32f10x_rcc.o
    0x08002ac0   0x08002ac0   0x00000020   Code   RO         2796    i.RCC_AHBPeriphClockCmd  stm32f10x_rcc.o
    0x08002ae0   0x08002ae0   0x00000020   Code   RO         2797    i.RCC_APB1PeriphClockCmd  stm32f10x_rcc.o
    0x08002b00   0x08002b00   0x00000020   Code   RO         2799    i.RCC_APB2PeriphClockCmd  stm32f10x_rcc.o
    0x08002b20   0x08002b20   0x000000d4   Code   RO         2807    i.RCC_GetClocksFreq  stm32f10x_rcc.o
    0x08002bf4   0x08002bf4   0x0000002c   Code   RO          500    i.RadTransform      mpu6050.o
    0x08002c20   0x08002c20   0x0000001c   Code   RO          428    i.SDA_IN            iic.o
    0x08002c3c   0x08002c3c   0x00000024   Code   RO          429    i.SDA_OUT           iic.o
    0x08002c60   0x08002c60   0x00000018   Code   RO         3276    i.SPI_Cmd           stm32f10x_spi.o
    0x08002c78   0x08002c78   0x00000012   Code   RO         3284    i.SPI_I2S_GetFlagStatus  stm32f10x_spi.o
    0x08002c8a   0x08002c8a   0x00000006   Code   RO         3287    i.SPI_I2S_ReceiveData  stm32f10x_spi.o
    0x08002c90   0x08002c90   0x00000004   Code   RO         3288    i.SPI_I2S_SendData  stm32f10x_spi.o
    0x08002c94   0x08002c94   0x0000003c   Code   RO         3289    i.SPI_Init          stm32f10x_spi.o
    0x08002cd0   0x08002cd0   0x00000040   Code   RO          785    i.SPI_Read_Buf      nrf24l01.o
    0x08002d10   0x08002d10   0x0000002c   Code   RO          786    i.SPI_Read_Reg      nrf24l01.o
    0x08002d3c   0x08002d3c   0x00000040   Code   RO          787    i.SPI_Write_Buf     nrf24l01.o
    0x08002d7c   0x08002d7c   0x0000002c   Code   RO          788    i.SPI_Write_Reg     nrf24l01.o
    0x08002da8   0x08002da8   0x0000001a   Code   RO          683    i.STM32_FLASH_Read  flash.o
    0x08002dc2   0x08002dc2   0x00000002   Code   RO          167    i.SVC_Handler       stm32f10x_it.o
    0x08002dc4   0x08002dc4   0x00000008   Code   RO          218    i.SetSysClock       system_stm32f10x.o
    0x08002dcc   0x08002dcc   0x000000e0   Code   RO          219    i.SetSysClockTo72   system_stm32f10x.o
    0x08002eac   0x08002eac   0x000000a8   Code   RO          848    i.SpiInit           spi.o
    0x08002f54   0x08002f54   0x00000038   Code   RO          849    i.Spi_RW_Byte       spi.o
    0x08002f8c   0x08002f8c   0x00000018   Code   RO          259    i.SysTick_Handler   systick.o
    0x08002fa4   0x08002fa4   0x00000060   Code   RO          221    i.SystemInit        system_stm32f10x.o
    0x08003004   0x08003004   0x00000030   Code   RO          260    i.SystickInit       systick.o
    0x08003034   0x08003034   0x000000f4   Code   RO          960    i.TIM3_IRQHandler   timer.o
    0x08003128   0x08003128   0x00000018   Code   RO         3419    i.TIM_ARRPreloadConfig  stm32f10x_tim.o
    0x08003140   0x08003140   0x00000006   Code   RO         3425    i.TIM_ClearFlag     stm32f10x_tim.o
    0x08003146   0x08003146   0x00000018   Code   RO         3431    i.TIM_Cmd           stm32f10x_tim.o
    0x0800315e   0x0800315e   0x0000001e   Code   RO         3433    i.TIM_CtrlPWMOutputs  stm32f10x_tim.o
    0x0800317c   0x0800317c   0x00000012   Code   RO         3456    i.TIM_ITConfig      stm32f10x_tim.o
    0x0800318e   0x0800318e   0x00000002   PAD
    0x08003190   0x08003190   0x00000098   Code   RO         3460    i.TIM_OC1Init       stm32f10x_tim.o
    0x08003228   0x08003228   0x00000012   Code   RO         3463    i.TIM_OC1PreloadConfig  stm32f10x_tim.o
    0x0800323a   0x0800323a   0x00000002   PAD
    0x0800323c   0x0800323c   0x000000a4   Code   RO         3465    i.TIM_OC2Init       stm32f10x_tim.o
    0x080032e0   0x080032e0   0x0000001a   Code   RO         3468    i.TIM_OC2PreloadConfig  stm32f10x_tim.o
    0x080032fa   0x080032fa   0x00000002   PAD
    0x080032fc   0x080032fc   0x000000a0   Code   RO         3470    i.TIM_OC3Init       stm32f10x_tim.o
    0x0800339c   0x0800339c   0x00000012   Code   RO         3473    i.TIM_OC3PreloadConfig  stm32f10x_tim.o
    0x080033ae   0x080033ae   0x00000002   PAD
    0x080033b0   0x080033b0   0x0000007c   Code   RO         3475    i.TIM_OC4Init       stm32f10x_tim.o
    0x0800342c   0x0800342c   0x0000001a   Code   RO         3477    i.TIM_OC4PreloadConfig  stm32f10x_tim.o
    0x08003446   0x08003446   0x00000002   PAD
    0x08003448   0x08003448   0x000000a4   Code   RO         3502    i.TIM_TimeBaseInit  stm32f10x_tim.o
    0x080034ec   0x080034ec   0x0000000e   Code   RO          378    i.ThrottleLimit     imath.o
    0x080034fa   0x080034fa   0x00000002   PAD
    0x080034fc   0x080034fc   0x0000004c   Code   RO          961    i.TimerInit         timer.o
    0x08003548   0x08003548   0x00000064   Code   RO          298    i.TopLedBlink       led.o
    0x080035ac   0x080035ac   0x0000008c   Code   RO          299    i.TopLedColorSet    led.o
    0x08003638   0x08003638   0x0000006c   Code   RO          300    i.TopLedStatus      led.o
    0x080036a4   0x080036a4   0x00000024   Code   RO         1160    i.USART2_IRQHandler  usart2.o
    0x080036c8   0x080036c8   0x00000012   Code   RO         3963    i.USART_ClearFlag   stm32f10x_usart.o
    0x080036da   0x080036da   0x00000018   Code   RO         3967    i.USART_Cmd         stm32f10x_usart.o
    0x080036f2   0x080036f2   0x00000012   Code   RO         3968    i.USART_DMACmd      stm32f10x_usart.o
    0x08003704   0x08003704   0x0000001a   Code   RO         3970    i.USART_GetFlagStatus  stm32f10x_usart.o
    0x0800371e   0x0800371e   0x00000054   Code   RO         3971    i.USART_GetITStatus  stm32f10x_usart.o
    0x08003772   0x08003772   0x0000004a   Code   RO         3973    i.USART_ITConfig    stm32f10x_usart.o
    0x080037bc   0x080037bc   0x000000d8   Code   RO         3974    i.USART_Init        stm32f10x_usart.o
    0x08003894   0x08003894   0x0000000a   Code   RO         3981    i.USART_ReceiveData  stm32f10x_usart.o
    0x0800389e   0x0800389e   0x00000002   PAD
    0x080038a0   0x080038a0   0x0000004c   Code   RO         1016    i.UnusualProtect    controller.o
    0x080038ec   0x080038ec   0x00000004   Code   RO          168    i.UsageFault_Handler  stm32f10x_it.o
    0x080038f0   0x080038f0   0x0000004a   Code   RO         1161    i.Usart2DmaConfig   usart2.o
    0x0800393a   0x0800393a   0x00000002   PAD
    0x0800393c   0x0800393c   0x0000008c   Code   RO         1162    i.Usart2Init        usart2.o
    0x080039c8   0x080039c8   0x00000038   Code   RO         1163    i.Usart2Send        usart2.o
    0x08003a00   0x08003a00   0x00000040   Code   RO         1164    i.UsartDMASendData  usart2.o
    0x08003a40   0x08003a40   0x00000060   Code   RO          887    i.VoltageDetect     adc.o
    0x08003aa0   0x08003aa0   0x00000028   Code   RO         4350    i.__ARM_fpclassify  m_ws.l(fpclassify.o)
    0x08003ac8   0x08003ac8   0x00000388   Code   RO         4355    i.__ieee754_rem_pio2  m_ws.l(rred.o)
    0x08003e50   0x08003e50   0x000000fc   Code   RO         4333    i.__kernel_cos      m_ws.l(cos_i.o)
    0x08003f4c   0x08003f4c   0x000000aa   Code   RO         4352    i.__kernel_poly     m_ws.l(poly.o)
    0x08003ff6   0x08003ff6   0x00000002   PAD
    0x08003ff8   0x08003ff8   0x000000ec   Code   RO         4360    i.__kernel_sin      m_ws.l(sin_i.o)
    0x080040e4   0x080040e4   0x00000006   Code   RO         4337    i.__mathlib_dbl_infnan  m_ws.l(dunder.o)
    0x080040ea   0x080040ea   0x00000004   Code   RO         4338    i.__mathlib_dbl_infnan2  m_ws.l(dunder.o)
    0x080040ee   0x080040ee   0x0000000c   Code   RO         4339    i.__mathlib_dbl_invalid  m_ws.l(dunder.o)
    0x080040fa   0x080040fa   0x00000002   PAD
    0x080040fc   0x080040fc   0x00000010   Code   RO         4342    i.__mathlib_dbl_underflow  m_ws.l(dunder.o)
    0x0800410c   0x0800410c   0x00000024   Code   RO         1017    i._controller_perform  controller.o
    0x08004130   0x08004130   0x0000000e   Code   RO          379    i._set_val          imath.o
    0x0800413e   0x0800413e   0x00000002   PAD
    0x08004140   0x08004140   0x000001ac   Code   RO          589    i.acc_cal_polling   acc_cal.o
    0x080042ec   0x080042ec   0x0000005c   Code   RO          502    i.acc_iir_lpf       mpu6050.o
    0x08004348   0x08004348   0x0000008c   Code   RO          888    i.adc_config        adc.o
    0x080043d4   0x080043d4   0x00000024   Code   RO          889    i.adc_gpio_init     adc.o
    0x080043f8   0x080043f8   0x00000270   Code   RO         4252    i.asin              m_ws.l(asin.o)
    0x08004668   0x08004668   0x00000220   Code   RO         4324    i.atan              m_ws.l(atan.o)
    0x08004888   0x08004888   0x00000180   Code   RO         4262    i.atan2             m_ws.l(atan2.o)
    0x08004a08   0x08004a08   0x00000074   Code   RO          503    i.butterworth_lpf   mpu6050.o
    0x08004a7c   0x08004a7c   0x0000009c   Code   RO         4270    i.cos               m_ws.l(cos.o)
    0x08004b18   0x08004b18   0x00000044   Code   RO          261    i.delay_ms          systick.o
    0x08004b5c   0x08004b5c   0x00000022   Code   RO          380    i.direction_to_zero  imath.o
    0x08004b7e   0x08004b7e   0x00000002   PAD
    0x08004b80   0x08004b80   0x000001b8   Code   RO          686    i.flash_read_cal    flash.o
    0x08004d38   0x08004d38   0x0000003c   Code   RO          504    i.get_iir_factor    mpu6050.o
    0x08004d74   0x08004d74   0x00000010   Code   RO          505    i.get_mpu_id        mpu6050.o
    0x08004d84   0x08004d84   0x00000160   Code   RO         1129    i.get_nav_acc       nav.o
    0x08004ee4   0x08004ee4   0x00000078   Code   RO          657    i.gyro_cal_polling  gyro_cal.o
    0x08004f5c   0x08004f5c   0x000000b0   Code   RO            1    i.main              main.o
    0x0800500c   0x0800500c   0x00000046   Code   RO          506    i.mpu6050_init      mpu6050.o
    0x08005052   0x08005052   0x00000002   PAD
    0x08005054   0x08005054   0x00000114   Code   RO          748    i.nrf_parse_packet  parse_packet.o
    0x08005168   0x08005168   0x00000184   Code   RO          591    i.read_cal_dat      acc_cal.o
    0x080052ec   0x080052ec   0x00000214   Code   RO         1086    i.rotation_matrix   imu.o
    0x08005500   0x08005500   0x0000021c   Code   RO         1087    i.rotation_matrix_T  imu.o
    0x0800571c   0x0800571c   0x00000008   Code   RO          381    i.set_value         imath.o
    0x08005724   0x08005724   0x000000a0   Code   RO         4278    i.sin               m_ws.l(sin.o)
    0x080057c4   0x080057c4   0x0000004c   Code   RO         4286    i.sqrt              m_ws.l(sqrt.o)
    0x08005810   0x08005810   0x00000044   Code   RO          962    i.time_check        timer.o
    0x08005854   0x08005854   0x000000ac   Code   RO          866    i.wait_pairing      pair_freq.o
    0x08005900   0x08005900   0x00000062   Code   RO         4207    x$fpl$d2f           fz_ws.l(d2f.o)
    0x08005962   0x08005962   0x00000002   PAD
    0x08005964   0x08005964   0x00000150   Code   RO         4296    x$fpl$dadd          fz_ws.l(daddsub_clz.o)
    0x08005ab4   0x08005ab4   0x00000010   Code   RO         4386    x$fpl$dcheck1       fz_ws.l(dcheck1.o)
    0x08005ac4   0x08005ac4   0x000002b0   Code   RO         4303    x$fpl$ddiv          fz_ws.l(ddiv.o)
    0x08005d74   0x08005d74   0x0000005e   Code   RO         4390    x$fpl$dfix          fz_ws.l(dfix.o)
    0x08005dd2   0x08005dd2   0x0000002e   Code   RO         4210    x$fpl$dflt          fz_ws.l(dflt_clz.o)
    0x08005e00   0x08005e00   0x00000026   Code   RO         4209    x$fpl$dfltu         fz_ws.l(dflt_clz.o)
    0x08005e26   0x08005e26   0x00000002   PAD
    0x08005e28   0x08005e28   0x00000154   Code   RO         4215    x$fpl$dmul          fz_ws.l(dmul.o)
    0x08005f7c   0x08005f7c   0x0000009c   Code   RO         4308    x$fpl$dnaninf       fz_ws.l(dnaninf.o)
    0x08006018   0x08006018   0x0000000c   Code   RO         4310    x$fpl$dretinf       fz_ws.l(dretinf.o)
    0x08006024   0x08006024   0x00000016   Code   RO         4297    x$fpl$drsb          fz_ws.l(daddsub_clz.o)
    0x0800603a   0x0800603a   0x00000002   PAD
    0x0800603c   0x0800603c   0x000001cc   Code   RO         4312    x$fpl$dsqrt         fz_ws.l(dsqrt_noumaal.o)
    0x08006208   0x08006208   0x000001d4   Code   RO         4298    x$fpl$dsub          fz_ws.l(daddsub_clz.o)
    0x080063dc   0x080063dc   0x00000056   Code   RO         4217    x$fpl$f2d           fz_ws.l(f2d.o)
    0x08006432   0x08006432   0x00000002   PAD
    0x08006434   0x08006434   0x000000c4   Code   RO         4219    x$fpl$fadd          fz_ws.l(faddsub_clz.o)
    0x080064f8   0x080064f8   0x00000018   Code   RO         4314    x$fpl$fcmpinf       fz_ws.l(fcmpi.o)
    0x08006510   0x08006510   0x00000184   Code   RO         4226    x$fpl$fdiv          fz_ws.l(fdiv.o)
    0x08006694   0x08006694   0x00000068   Code   RO         4229    x$fpl$feqf          fz_ws.l(feqf.o)
    0x080066fc   0x080066fc   0x00000036   Code   RO         4231    x$fpl$ffix          fz_ws.l(ffix.o)
    0x08006732   0x08006732   0x00000002   PAD
    0x08006734   0x08006734   0x0000003e   Code   RO         4235    x$fpl$ffixu         fz_ws.l(ffixu.o)
    0x08006772   0x08006772   0x00000002   PAD
    0x08006774   0x08006774   0x00000030   Code   RO         4240    x$fpl$fflt          fz_ws.l(fflt_clz.o)
    0x080067a4   0x080067a4   0x00000026   Code   RO         4239    x$fpl$ffltu         fz_ws.l(fflt_clz.o)
    0x080067ca   0x080067ca   0x00000002   PAD
    0x080067cc   0x080067cc   0x00000068   Code   RO         4245    x$fpl$fleqf         fz_ws.l(fleqf.o)
    0x08006834   0x08006834   0x00000102   Code   RO         4247    x$fpl$fmul          fz_ws.l(fmul.o)
    0x08006936   0x08006936   0x0000008c   Code   RO         4316    x$fpl$fnaninf       fz_ws.l(fnaninf.o)
    0x080069c2   0x080069c2   0x0000000a   Code   RO         4318    x$fpl$fretinf       fz_ws.l(fretinf.o)
    0x080069cc   0x080069cc   0x00000062   Code   RO         4249    x$fpl$frleqf        fz_ws.l(frleqf.o)
    0x08006a2e   0x08006a2e   0x00000014   Code   RO         4220    x$fpl$frsb          fz_ws.l(faddsub_clz.o)
    0x08006a42   0x08006a42   0x00000002   PAD
    0x08006a44   0x08006a44   0x000000ea   Code   RO         4221    x$fpl$fsub          fz_ws.l(faddsub_clz.o)
    0x08006b2e   0x08006b2e   0x00000064   Code   RO         4407    x$fpl$retnan        fz_ws.l(retnan.o)
    0x08006b92   0x08006b92   0x0000005c   Code   RO         4320    x$fpl$scalbn        fz_ws.l(scalbn.o)
    0x08006bee   0x08006bee   0x00000030   Code   RO         4456    x$fpl$trapveneer    fz_ws.l(trapv.o)
    0x08006c1e   0x08006c1e   0x00000000   Code   RO         4322    x$fpl$usenofp       fz_ws.l(usenofp.o)
    0x08006c1e   0x08006c1e   0x00000002   PAD
    0x08006c20   0x08006c20   0x0000012c   Data   RO          930    .constdata          pid.o
    0x08006d4c   0x08006d4c   0x00000004   PAD
    0x08006d50   0x08006d50   0x00000050   Data   RO         4253    .constdata          m_ws.l(asin.o)
    0x08006da0   0x08006da0   0x00000098   Data   RO         4325    .constdata          m_ws.l(atan.o)
    0x08006e38   0x08006e38   0x00000030   Data   RO         4334    .constdata          m_ws.l(cos_i.o)
    0x08006e68   0x08006e68   0x00000008   Data   RO         4354    .constdata          m_ws.l(qnan.o)
    0x08006e70   0x08006e70   0x000000c8   Data   RO         4357    .constdata          m_ws.l(rred.o)
    0x08006f38   0x08006f38   0x00000028   Data   RO         4361    .constdata          m_ws.l(sin_i.o)
    0x08006f60   0x08006f60   0x00000020   Data   RO         4535    Region$$Table       anon$$obj.o


    Execution Region RW_IRAM1 (Exec base: 0x20000000, Load base: 0x08006f80, Size: 0x00000d70, Max: 0x00005000, ABSOLUTE)

    Exec Addr    Load Addr    Size         Type   Attr      Idx    E Section Name        Object

    0x20000000   0x08006f80   0x00000014   Data   RW          222    .data               system_stm32f10x.o
    0x20000014   0x08006f94   0x00000004   Data   RW          263    .data               systick.o
    0x20000018   0x08006f98   0x0000000c   Data   RW          301    .data               led.o
    0x20000024   0x08006fa4   0x0000003c   Data   RW          508    .data               mpu6050.o
    0x20000060   0x08006fe0   0x00000003   Data   RW          690    .data               flash.o
    0x20000063   0x08006fe3   0x00000006   Data   RW          867    .data               pair_freq.o
    0x20000069   0x08006fe9   0x00000003   PAD
    0x2000006c   0x08006fec   0x00000008   Data   RW          890    .data               adc.o
    0x20000074   0x08006ff4   0x00000004   Data   RW          931    .data               pid.o
    0x20000078   0x08006ff8   0x00000004   Data   RW          964    .data               timer.o
    0x2000007c   0x08006ffc   0x00000016   Data   RW         1018    .data               controller.o
    0x20000092   0x08007012   0x00000002   PAD
    0x20000094   0x08007014   0x00000034   Data   RW         1089    .data               imu.o
    0x200000c8   0x08007048   0x00000003   Data   RW         1166    .data               usart2.o
    0x200000cb   0x0800704b   0x00000014   Data   RW         2827    .data               stm32f10x_rcc.o
    0x200000df   0x0800705f   0x00000001   PAD
    0x200000e0        -       0x0000011c   Zero   RW          507    .bss                mpu6050.o
    0x200001fc        -       0x0000010c   Zero   RW          592    .bss                acc_cal.o
    0x20000308        -       0x00000034   Zero   RW          658    .bss                gyro_cal.o
    0x2000033c        -       0x00000044   Zero   RW          749    .bss                parse_packet.o
    0x20000380        -       0x00000294   Zero   RW          929    .bss                pid.o
    0x20000614        -       0x00000020   Zero   RW          963    .bss                timer.o
    0x20000634        -       0x00000088   Zero   RW         1088    .bss                imu.o
    0x200006bc        -       0x0000001c   Zero   RW         1131    .bss                nav.o
    0x200006d8        -       0x00000032   Zero   RW         1165    .bss                usart2.o
    0x2000070a   0x0800705f   0x00000002   PAD
    0x2000070c        -       0x00000060   Zero   RW         4395    .bss                c_w.l(libspace.o)
    0x2000076c   0x0800705f   0x00000004   PAD
    0x20000770        -       0x00000200   Zero   RW          253    HEAP                startup_stm32f10x_md.o
    0x20000970        -       0x00000400   Zero   RW          252    STACK               startup_stm32f10x_md.o


==============================================================================

Image component sizes


      Code (inc. data)   RO Data    RW Data    ZI Data      Debug   Object Name

       816         38          0          0        268       3087   acc_cal.o
       384         40          0          8          0       3194   adc.o
       876        100          0         22          0       4035   controller.o
         0          0          0          0          0         32   core_cm3.o
       228         14          0          0          0        562   fc_status.o
      1070         12          0          3          0       4554   flash.o
       120         12          0          0         52       1210   gyro_cal.o
       590         40          0          0          0       5549   iic.o
       170          4          0          0          0       3606   imath.o
      2600        160          0         52        136       3628   imu.o
       880        102          0         12          0       5351   led.o
       176         14          0          0          0     287872   main.o
       132         22          0          0          0       1547   misc.o
       962         56          0         60        284       8798   mpu6050.o
       352         22          0          0         28       1104   nav.o
       544         44          0          0          0       5164   nrf24l01.o
        68          0          0          0          0        494   nvic.o
       172         18          0          6          0       1114   pair_freq.o
       336         28          0          0         68       2673   parse_packet.o
       438         26        300          4        660       2753   pid.o
       300         14          0          0          0       1263   pwm.o
       224         18          0          0          0       1108   spi.o
        64         26        236          0       1536        804   startup_stm32f10x_md.o
       370         10          0          0          0       6625   stm32f10x_adc.o
       420          8          0          0          0       3931   stm32f10x_dma.o
       330         38          0          0          0       5250   stm32f10x_flash.o
       430          6          0          0          0       3822   stm32f10x_gpio.o
        24          0          0          0          0       3444   stm32f10x_it.o
       332         44          0         20          0       5445   stm32f10x_rcc.o
       112          0          0          0          0       3750   stm32f10x_spi.o
       954         92          0          0          0       8812   stm32f10x_tim.o
       470          6          0          0          0       6605   stm32f10x_usart.o
       328         28          0         20          0       2301   system_stm32f10x.o
       140         22          0          4          0       1519   systick.o
       388         58          0          4         32       2512   timer.o
      2636        108          0          3         50       7889   usart2.o

    ----------------------------------------------------------------------
     18474       1230        572        224       3116     411407   Object Totals
         0          0         32          0          0          0   (incl. Generated)
        38          0          4          6          2          0   (incl. Padding)

    ----------------------------------------------------------------------

      Code (inc. data)   RO Data    RW Data    ZI Data      Debug   Library Member Name

         8          0          0          0          0         68   __main.o
         0          0          0          0          0          0   __rtentry.o
        12          0          0          0          0          0   __rtentry2.o
         6          0          0          0          0          0   __rtentry4.o
        52          8          0          0          0          0   __scatter.o
        26          0          0          0          0          0   __scatter_copy.o
        28          0          0          0          0          0   __scatter_zi.o
        22          0          0          0          0        100   _rserrno.o
        18          0          0          0          0         80   exit.o
         6          0          0          0          0        152   heapauxi.o
         0          0          0          0          0          0   indicate_semi.o
         2          0          0          0          0          0   libinit.o
         2          0          0          0          0          0   libinit2.o
         2          0          0          0          0          0   libshutdown.o
         2          0          0          0          0          0   libshutdown2.o
         8          4          0          0         96         68   libspace.o
         8          4          0          0          0         68   rt_errno_addr_intlibspace.o
        78          0          0          0          0         80   rt_memclr_w.o
       100          0          0          0          0         80   rt_memcpy_w.o
         2          0          0          0          0          0   rtexit.o
        10          0          0          0          0          0   rtexit2.o
        12          4          0          0          0         68   sys_exit.o
        74          0          0          0          0         80   sys_stackheap_outer.o
         2          0          0          0          0         68   use_no_semi.o
        98          4          0          0          0         92   d2f.o
       826         16          0          0          0        348   daddsub_clz.o
        16          4          0          0          0         68   dcheck1.o
       688        140          0          0          0        208   ddiv.o
        94          4          0          0          0         92   dfix.o
        84          0          0          0          0        136   dflt_clz.o
       340         12          0          0          0        104   dmul.o
       156          4          0          0          0         92   dnaninf.o
        12          0          0          0          0         68   dretinf.o
       460         56          0          0          0        120   dsqrt_noumaal.o
        86          4          0          0          0         84   f2d.o
       450          8          0          0          0        236   faddsub_clz.o
        24          0          0          0          0         68   fcmpi.o
       388         76          0          0          0         96   fdiv.o
       104          4          0          0          0         84   feqf.o
        54          4          0          0          0         84   ffix.o
        62          4          0          0          0         84   ffixu.o
        86          0          0          0          0        136   fflt_clz.o
       104          4          0          0          0         84   fleqf.o
       258          4          0          0          0         84   fmul.o
       140          4          0          0          0         84   fnaninf.o
        10          0          0          0          0         68   fretinf.o
        98          0          0          0          0         68   frleqf.o
       100          0          0          0          0         68   retnan.o
        92          0          0          0          0         68   scalbn.o
        48          0          0          0          0         68   trapv.o
         0          0          0          0          0          0   usenofp.o
       624         52         80          0          0        168   asin.o
       544         70        152          0          0        124   atan.o
       384         38          0          0          0        144   atan2.o
       156          8          0          0          0        104   cos.o
       252         22         48          0          0        124   cos_i.o
        38          6          0          0          0        272   dunder.o
        40          0          0          0          0         68   fpclassify.o
       170          0          0          0          0         96   poly.o
         0          0          8          0          0          0   qnan.o
       904         76        200          0          0        140   rred.o
       160         10          0          0          0        108   sin.o
       236         12         40          0          0        128   sin_i.o
        76          0          0          0          0         84   sqrt.o

    ----------------------------------------------------------------------
      8970        666        528          0        100       5264   Library Totals
        28          0          0          0          4          0   (incl. Padding)

    ----------------------------------------------------------------------

      Code (inc. data)   RO Data    RW Data    ZI Data      Debug   Library Name

       480         20          0          0         96        912   c_w.l
      4878        352          0          0          0       2792   fz_ws.l
      3584        294        528          0          0       1560   m_ws.l

    ----------------------------------------------------------------------
      8970        666        528          0        100       5264   Library Totals

    ----------------------------------------------------------------------

==============================================================================


      Code (inc. data)   RO Data    RW Data    ZI Data      Debug   

     27444       1896       1100        224       3216     405383   Grand Totals
     27444       1896       1100        224       3216     405383   ELF Image Totals
     27444       1896       1100        224          0          0   ROM Totals

==============================================================================

    Total RO  Size (Code + RO Data)                28544 (  27.88kB)
    Total RW  Size (RW Data + ZI Data)              3440 (   3.36kB)
    Total ROM Size (Code + RO Data + RW Data)      28768 (  28.09kB)

==============================================================================

