:020000040800F2
:10000000E006002089010008D50A000869070008F9
:10001000D10A0008C50400085D18000800000000AF
:100020000000000000000000000000003114000883
:10003000BB050008000000004D1100081D15000858
:10004000A3010008A3010008A3010008A301000800
:10005000A3010008A3010008A3010008A3010008F0
:10006000A3010008A3010008A3010008C9040008B7
:10007000A3010008A3010008A3010008A3010008D0
:10008000A3010008A3010008A3010008A3010008C0
:10009000A3010008A3010008A3010008A3010008B0
:1000A000A3010008A3010008A3010008A3010008A0
:1000B000A3010008A3010008A3010008A301000890
:1000C000A3010008A3010008A3010008A301000880
:1000D000A3010008A3010008A3010008A301000870
:1000E000A3010008A3010008A301000800F002F822
:1000F00000F03AF80AA090E8000C82448344AAF188
:100100000107DA4501D100F02FF8AFF2090EBAE885
:100110000F0013F0010F18BFFB1A43F0010318473B
:10012000402E0000602E0000103A24BF78C878C12D
:10013000FAD8520724BF30C830C144BF04680C60ED
:10014000704700000023002400250026103A28BF35
:1001500078C1FBD8520728BF30C148BF0B60704739
:100160001FB51FBD10B510BD00F06EF81146FFF7AA
:10017000F7FF01F08BFD00F0A0F803B4FFF7F2FFEA
:1001800003BC01F02DFC00000948804709480047E6
:10019000FEE7FEE7FEE7FEE7FEE7FEE7FEE7FEE737
:1001A000FEE7FEE704480549054A064B7047000094
:1001B00035150008ED000008E0000020E0060020F2
:1001C000E0020020E0020020704700000FB4044964
:1001D00010B503AA029800F009F810BC5DF814FBF2
:1001E0001C0000207047704770477047074B70B580
:1001F0000D467B4400F011F80446284600F020F834
:1002000010B14FF0FF3070BD204670BDFF190000E7
:1002100001694A1C02610878704700B58FB0CDE9CA
:1002200001310021059105497944CDE903101146BA
:10023000684600F02EF80FB000BD0000E5FFFFFF9C
:10024000007B00F080007047754600F03FF8AE4636
:1002500005006946534620F00700854618B020B5D2
:10026000FFF7A0FFBDE820404FF000064FF0000769
:100270004FF000084FF0000B21F00701AC46ACE84E
:10028000C009ACE8C009ACE8C009ACE8C0098D46BB
:1002900070472DE9F04106460024D6E90170F56863
:1002A0008046304603E04146B847641C3046A847C4
:1002B0000028F8D12046BDE8F08110B50446AFF320
:1002C00000802046BDE81040FFF757BF0048704748
:1002D0008000002021B1826842F00102826003E0C8
:1002E000826822F001028260704710B501F0D2FBF3
:1002F00001F078FB00F00CF810BD21B1826842F4E7
:100300008072826003E0826822F4807282607047AB
:1003100000B58BB00121084600F026FF04200390B1
:10032000002002900A90124801904FF480600790DC
:1003300080200590202008900E480090801506909F
:10034000002004904FF48050099069460A4800F05C
:1003500016F9022000F0DAF801220221064800F026
:1003600005F90121044800F0DFF80BB000BD0000E2
:10037000200000204C2401400800024021B1826886
:1003800042F48012826003E0826822F4801282606C
:100390007047014600208A6802F004020AB1012079
:1003A00000E000207047000030B502460020002326
:1003B00050680F4C20400D790C6844EA0524204316
:1003C000506090680B4C2040D1E902542C434D7989
:1003D00044EA450420439060D06A20F470000C7C0D
:1003E000641EE4B2234340EA0350D06230BD0000F3
:1003F000FFFEF0FFFDF7F1FFF0B504460D460020CB
:100400000021092D11DDE068A5F10A0606EB46077B
:10041000072606FA07F18843A5F10A0606EB460609
:1004200003FA06F10843E0600CE0206905EB45079C
:10043000072606FA07F1884305EB450603FA06F19D
:1004400008432061072A0FDA606B561E06EB860709
:100450001F2606FA07F18843561E06EB860605FAA4
:1004600006F10843606322E00D2A0FDA206BD61FE5
:1004700006EB86071F2606FA07F18843D61F06EB10
:10048000860605FA06F10843206310E0E06AA2F14F
:100490000D0606EB86071F2606FA07F18843A2F130
:1004A0000D0606EB860605FA06F10843E062F0BD8C
:1004B000816841F0080181607047816841F0040162
:1004C0008160704700BFFEE710B50024022000F0F5
:1004D00037F8012815D10B4801F0EEFA0A4801F06F
:1004E00025FB094800F0E0FB0446202C03D1022044
:1004F00000F0A8FA02E0042000F072FA022000F0F6
:1005000005F810BD200000206700002000F0805199
:1005100011B10349086001E00249486070470000DA
:10052000040402400000024021B1026842F00102CE
:10053000026004E002684FF6FE731A4002607047E2
:1005400001460020002201F0805313B1054B1A68C8
:1005500001E0054B1A6802EA01030BB1012000E03B
:100560000020704700040240000002401AB10368F6
:100570000B43036002E003688B430360704710B5D0
:100580000022026847F6F0739A430C6A8B68234393
:100590000C6923434C6923438C692343CC6923436F
:1005A0004C6A23438C6A23431A430260CB6843603E
:1005B0000B6883604B68C36010BD704710B5194865
:1005C00000791849C97840EA01101749097888422A
:1005D00009D000F043FC134800791249C97840EA79
:1005E0000110114908700F48C07830B902230F4A32
:1005F0000321084600F0D0FC09E00A48C078012831
:1006000005D102230A4A0321084600F0C5FC05482B
:100610000079012805D10323064A0221062000F0B3
:10062000BBFC10BD5C0000202F000020A0280008AB
:10063000E0280008202900082DE9F04102460025A5
:100640000026002000230024002791F803C00CF0AE
:100650000F0591F803C00CF0100CBCF1000F03D093
:1006600091F802C04CEA050591F800C0BCF1000FFA
:1006700031D0146800202BE04FF0010C0CFA00F38D
:10068000B1F800C00CEA03069E4220D183004FF06F
:100690000F0C0CFA03F7BC4305FA03FC4CEA040404
:1006A00091F803C0BCF1280F06D14FF0010C0CFAF1
:1006B00000FCC2F814C00AE091F803C0BCF1480F76
:1006C00005D14FF0010C0CFA00FCC2F810C0401C20
:1006D0000828D1D31460B1F800C0BCF1FF0F34DD9D
:1006E000546800202EE000F1080C4FF0010808FAD1
:1006F0000CF3B1F800C00CEA03069E4221D183003E
:100700004FF00F0C0CFA03F7BC4305FA03FC4CEA5C
:10071000040491F803C0BCF1280F05D100F1080CC6
:1007200008FA0CF8C2F8148091F803C0BCF1480F25
:1007300007D100F1080C4FF0010808FA0CF8C2F8D4
:100740001080401C0828CED35460BDE8F0810246DA
:10075000002093680B400BB1012000E0002070479F
:10076000416170470161704700BFFEE708B5012194
:10077000082000F019FD4FF40050ADF800001020E3
:100780008DF8030003208DF8020069460F48FFF73B
:1007900053FF4FF48040ADF8000010208DF80300A7
:1007A00003208DF8020069460848FFF745FF0A203C
:1007B00001F0FEF94FF400510448FFF7D3FF4FF466
:1007C00080410248FFF7CEFF08BD0000000C014049
:1007D00070B50446082500F071FD1DE04FF400508F
:1007E0001249086000F08EF804F0800028B14FF440
:1007F00080400E49091F086003E04FF480400B4918
:1008000008606006040E00F07DF84FF400500749C0
:10081000091F086000F076F8281EA5F10101CDB28D
:10082000DCD14FF400500149086070BD140C014048
:1008300010B500F043FD4FF400501449086000F07B
:1008400061F84FF480401149091F086000F026FD4F
:1008500000F058F84FF400500C49091F086000F0F0
:1008600051F80A480C380068C0F3803028B14FF4C2
:10087000005006490860002010BD4FF400500349A5
:10088000086000F03FF80120F6E70000140C01407A
:1008900010B500F013FD4FF4005009490860400006
:1008A000086000F02FF84FF480400549091D0860EA
:1008B00000F028F84FF400500149091D086010BDF0
:1008C000100C014010B500F0F9FC4FF400500C4939
:1008D000086000F017F84FF480400949086000F004
:1008E00011F84FF400500649091F086000F00AF89B
:1008F0004FF480400249091F086000F003F810BD62
:10090000140C01407047000008B50121102000F0D0
:100910004BFC0121082000F047FC4FF48040ADF86B
:10092000000048208DF8030003208DF8020069467E
:100930000848FFF781FE4FF48050ADF800004820D2
:100940008DF8030003208DF8020069460248FFF786
:1009500073FE08BD00100140000C014010B50446B4
:1009600014B101201B4908701A48007808B34FF4ED
:1009700080411948FFF7EBFE28B14FF4805117482A
:10098000FFF7E5FEA8B9052001F012F90020114992
:1009900008704FF480411048FFF7D9FE08B90120D4
:1009A00010BD4FF480510D48FFF7D1FE80B90220F1
:1009B000F6E74FF480410848FFF7C9FE012807D148
:1009C00001030648FFF7C3FE012801D10149087061
:1009D0000020E5E73A00002000100140000C014033
:1009E00010B50446154800880A2810DA1348008814
:1009F000401C12490880084600880A2807D1104880
:100A00000088401C0E49088000200C4908800C48D2
:100A1000008803280EDB0A48008805280ADC0848FD
:100A20000088052802D1002005490880204600F0F2
:100A300009F801E000F042F810BD000018000020A5
:100A40001A00002010B5044600F038F8082C2ED209
:100A5000DFE804F02D04080D12181E258020164929
:100A6000086027E04FF480701349086022E04FF4DB
:100A70000070114908601DE080200F4908604000A7
:100A8000086017E080200C4908608000086011E0D1
:100A90004FF4807008490860400008600AE0802038
:100AA00005490860400008604000086002E000F06E
:100AB00005F800BF00BF10BD140C014080200349A1
:100AC000086040000860400008607047100C01405A
:100AD00000BFFEE7704700001FB510A103C9CDE9B4
:100AE0000201052202A9302000F012F90522694610
:100AF000102000F063F8002406E01DF80400A5288B
:100B000000D003E0601CC4B2052CF6DB00BF052C4E
:100B100002D0012004B010BD0020FBE7A5A5A5A5CB
:100B2000A500000008B50121082000F03DFB4FF4AE
:100B30008060ADF8000010208DF8030001208DF8D2
:100B4000020069461B48FFF777FD0121042000F0F1
:100B50002BFB1020ADF800008DF8030001208DF86C
:100B6000020069461448FFF767FD4FF480611148A1
:100B7000FFF7F8FD10211048FFF7F4FD01210820D0
:100B800000F012FB0120ADF8000048208DF80300B2
:100B900001208DF8020069460648FFF74DFD4FF42D
:100BA00080610448FFF7DCFD10210348FFF7DAFD00
:100BB00008BD0000000C0140000801402DE9F04193
:100BC00007460D46164610210B48FFF7C9FD38466B
:100BD00000F0CCFB8046002405E0FF2000F0C6FBBF
:100BE0002855601CC4B2B442F7DB10210248FFF75D
:100BF000B9FD4046BDE8F0810008014070B50446EB
:100C000010210848FFF7ACFD204600F0AFFBFF20A5
:100C100000F0ACFB054610210248FFF7A3FD284673
:100C200070BD00000008014010B54FF480611C4801
:100C3000FFF796FD0321084600F08AF805221949BE
:100C4000302000F065F8052216492A2000F060F8EF
:100C500006213D2000F07CF801213C2000F078F8CE
:100C60000121212000F074F80121222000F070F809
:100C70000C48401E8179252000F06AF81A212420B2
:100C800000F066F80721262000F062F80E212020EF
:100C900000F05EF84FF480610148FFF763FD10BD7E
:100CA000000C01403D00002070B505464FF4806106
:100CB0001648FFF755FD0B222946A02000F028F822
:100CC0004FF480611148FFF74DFD00BF01210F482F
:100CD000FFF73DFD0028F9D10720FFF78FFF0446FD
:100CE0002146272000F034F800F09EF804F01000B0
:100CF00028B1FF21E12000F02BF8102070BD04F096
:100D0000200008B12020F9E7FF20F7E7000C0140A0
:100D10002DE9F04107460C46154610210B48FFF718
:100D20001FFD384600F022FB8046002605E014F83F
:100D3000010B00F01BFB701CC6B2AE42F7DB1021AA
:100D40000248FFF70FFD4046BDE8F0810008014072
:100D500070B505460C4610210748FFF701FD2846EF
:100D600000F004FB0646204600F000FB102102487C
:100D7000FFF7F8FC304670BD0008014070B5002157
:100D800000230F22C47804B3154C246804F4E064F3
:100D9000C4F5E064210AC1F10403CA40447804FAAE
:100DA00003F184781440214309010E4C0678A155C3
:100DB000047804F01F050124AC4005786D11AD00E6
:100DC00005F1E025C5F8004109E0047804F01F05AD
:100DD0000124AC40044D0678761145F8264070BDDC
:100DE0000CED00E000E400E080E100E00249014396
:100DF000024A1160704700000000FA050CED00E0A7
:100E000008B54FF4A060FFF7F1FF0B208DF800004C
:100E100000208DF8010001208DF802008DF80300FC
:100E20006846FFF7ABFF08BD10B50B2209496120EA
:100E3000FFF7C4FE07480078AA2807D10548807A42
:100E4000AC2803D101200449087002E000200249C7
:100E5000087010BD5C0000202E00002070B500243A
:100E600018E004F1B000002100F08AF800210846E3
:100E700000F086F80021102000F082F8002505E03F
:100E80000121002000F07CF8681CC5B2802DF7DB42
:100E9000601CC4B2082CE4DB70BD10B5FFF766FC23
:100EA000C82000F085FE0021AE2000F069F8002186
:100EB000084600F065F80021102000F061F80021DC
:100EC000402000F05DF80021B02000F059F800212A
:100ED000812000F055F80021082000F051F8002191
:100EE000A12000F04DF80021A62000F049F80021D3
:100EF000A82000F045F800213F2000F041F8002133
:100F0000C82000F03DF80021D32000F039F800217E
:100F1000084600F035F80021D52000F031F8002116
:100F2000802000F02DF80021D82000F029F80021C1
:100F3000052000F025F80021D92000F021F800213B
:100F4000F12000F01DF80021DA2000F019F800214E
:100F5000122000F015F80021DB2000F011F800212C
:100F6000302000F00DF800218D2000F009F800215C
:100F7000142000F005F80021AF2000F001F810BDAA
:100F800070B504460D461DB1E0B200F013FD02E05D
:100F9000E0B200F0F9FC70BD2DE9FE4F04460D46AD
:100FA00092461E4600200290019000907019082879
:100FB00004DBC5F10800C0B2029000E002962746AB
:100FC0003BE007F1B0000021FFF7DAFF00210846FF
:100FD000FFF7D6FF05F110000021FFF7D1FFDDF884
:100FE000008016E0381B00F0FF090BE00AEB481008
:100FF00010F809B001215846FFF7C2FF09F10200BD
:1010000000F0FF09B9F1200FF0DB08F1010000F05A
:10101000FF0802988045E5DB0198401CC0B20190B2
:101020000198022807D17019082804DBA01CC4B25B
:101030000296CDF80080781CC7B2A01CB842C0DC74
:10104000BDE8FE8F10B5364800783649097840EA89
:10105000011035490978884209D0FFF7FFFE304872
:1010600000783049097840EA01102F4908702D486E
:10107000007801280FD12A48007860B903232B4A51
:1010800002210020FFF788FF0923294A00210320BD
:10109000FFF782FF42E02248007801280CD10323A9
:1010A000244A02210020FFF777FF0923224A00216A
:1010B0000320FFF771FF31E01A48007801280CD1B6
:1010C00017480078022808D104231C4A0221002076
:1010D000FFF762FFFFF772FA20E01248007880B94C
:1010E0000F48007802280CD00623154A0121002061
:1010F000FFF752FF1023134A00210320FFF74CFF94
:101100000CE00848007848B905480078022805D165
:1011100004230D4A02210020FFF73EFF10BD00000E
:101120003C0000202E00002030000020C0270008D6
:10113000202B0008402A0008402C0008A02A0008A4
:1011400080290008602D0008202800087047000052
:1011500001460020034A506820F440400843506094
:10116000704700000010024029B1064A526902434C
:10117000044B5A6104E0034A52698243014B5A61AD
:10118000704700000010024029B1064AD2690243AC
:10119000044BDA6104E0034AD2698243014BDA610D
:1011A000704700000010024029B1064A92690243CC
:1011B000044B9A6104E0034A92698243014B9A61AD
:1011C000704700000010024030B5002100220024CA
:1011D00000232D4D6D6805F00C0121B1042905D0C7
:1011E000082923D105E0294D056022E0274D05603F
:1011F0001FE0254D6D6805F47012234D6D6805F4F0
:101200008034022505EB92421CB9214D55430560FF
:101210000BE01D4D6D6805F400351DB11C4D5543A7
:10122000056002E0194D5543056002E0174D056069
:1012300000BF00BF144D6D6805F0F0010909154DA0
:101240006B5C0568DD4045600F4D6D6805F4E0613D
:10125000090A104D6B5C4568DD4085600A4D6D687C
:1012600005F46051C90A0B4D6B5C4568DD40C560F3
:10127000054D6D6805F44041890B074D6B5CC568F1
:10128000B5FBF3F5056130BD0010024000127A0095
:1012900000093D00480000205800002008B54FF428
:1012A0008040ADF8000004208DF803006946024834
:1012B000FFF7C2F908BD0000000C014008B54FF46B
:1012C0008040ADF8000010208DF8030003208DF859
:1012D000020069460148FFF7AFF908BD000C014064
:1012E00000B587B001210420FFF75EFF012108034C
:1012F000FFF75AFF01210846FFF756FFE020ADF83F
:10130000040018208DF8070001208DF8060001A9BF
:101310001448FFF791F94FF48270ADF80A000020ED
:10132000ADF80800ADF80C00ADF80E00ADF81000F7
:101330004FF40070ADF812001020ADF8140000203A
:10134000ADF816000720ADF8180002A9064800F015
:1013500051F80121044800F033F8FF2000F006F8AE
:1013600007B000BD000801400030014070B50546DF
:10137000002405E0601CC4B2C82C01DD002070BD53
:1013800002210E4800F028F80028F3D029460B4827
:1013900000F02EF8002405E0601CC4B2C82C01DD6A
:1013A0000020ECE70121054800F016F80028F3D0F2
:1013B000024800F01AF8C0B2E1E700000030014036
:1013C00021B1028842F04002028004E002884FF618
:1013D000BF731A40028070470246002013890B40F9
:1013E0000BB1012000E0002070470146888970475A
:1013F0008181704710B50022028802F441520B88A7
:101400004C8823438C882343CC8823430C89234373
:101410004C8923438C892343CC8923431A4302807C
:10142000838B4FF2FF74234083830B8A038210BDAA
:10143000704710B500F002F810BD00000CB5002098
:10144000019000903348006840F4803031490860D2
:1014500000BF3048006800F4003000900198401C44
:101460000190009818B90198B0F5A06FF1D1294802
:10147000006800F4003010B10120009001E000206D
:1014800000900098012843D12348006840F01000E4
:10149000214908600846006820F0030008600846FB
:1014A000006840F0020008601A4840681949486026
:1014B0000846406848600846406840F480604860DC
:1014C0000846406820F47C1048600846406840F4B4
:1014D000E81048600846006840F08070086000BF6F
:1014E0000C48006800F000700028F9D009484068F6
:1014F00020F00300074948600846406840F00200B9
:10150000486000BF0348406800F00C000828F9D18B
:101510000CBD00000010024000200240044800689A
:1015200020B103480068401E014908607047000070
:101530001400002010B51348006840F00100114964
:10154000086008464068104908400E49486008464F
:1015500000680E4908400B4908600846006820F4FE
:10156000802008600846406820F4FE0048604FF480
:101570001F008860FFF75DFF4FF0006004490860BE
:1015800010BD0000001002400000FFF8FFFFF6FE53
:1015900008ED00E021B1028842F08002028004E000
:1015A00002884FF67F731A400280704721B102888B
:1015B00042F00102028004E002884FF6FE731A40F6
:1015C0000280704770B5002200230024058C4EF67F
:1015D000FF7635400584038C8488828B48F6FF753E
:1015E0002A404FF6FF452A400D884FF6FF7606EA5F
:1015F00005252A434DF6FF752B400D8906EA053572
:101600002B434D8806EA05352B430B4DA84202D0EB
:101610000A4DA84208D14BF6FF752C408D894FF634
:10162000FF7606EA85152C4384808283CD88A0F856
:101630004050038470BD0000002C01400034014084
:101640000A460021818B4FF2FF7319404FF6FF735A
:1016500003EA0223194381837047000000220288B5
:101660001D4B98420ED01D4B98420BD0B0F1804FCD
:1016700008D01B4B984205D01A4B984202D01A4B07
:10168000984204D14FF68F731A404B881A43174B78
:10169000984207D0164B984204D04FF6FF431A40A9
:1016A000CB881A4302808B8883850B8803850A4B7D
:1016B00098420BD0094B984208D00E4B984205D067
:1016C0000D4B984202D00D4B984201D10B7A038604
:1016D0000123838270470000002C01400034014048
:1016E0000004004000080040000C004000100040D2
:1016F0000014004000400140004401400048014007
:1017000021B1828942F40052828104E082894DF63F
:10171000FF731A408281704702460020B1F5007FB6
:1017200000D100BF13880B400BB1012000E0002066
:101730007047F0B50346002400260025002040F63F
:101740006A17B94200D100BF1846C1F3421401F034
:101750001F06012707FA06F5012C01D10C3004E021
:10176000022C01D1103000E014301AB107682F4369
:10177000076002E00768AF430760F0BD2DE9F0475E
:1017800086B005460E460024A24600BFA1460027AB
:10179000B08900B100BF2F462C8A4CF6FF70044080
:1017A000F08804432C82AC894EF6F3100440B088D4
:1017B00031890843718908430443AC81AC8A4FF6F0
:1017C000FF400440B0890443AC8201A8FFF7FCFC51
:1017D0001F48874202D1DDF810A001E0DDF80CA01F
:1017E000A88900F4004040B10AEBCA0000EB0A10DF
:1017F00031684900B0FBF1F807E00AEBCA0000EBE2
:101800000A1031688900B0FBF1F86420B8FBF0F0F1
:1018100004012009642101FB1089A88900F400401B
:1018200040B1322000EBC900B0FBF1F000F007003E
:10183000044308E0322000EB09106421B0FBF1F012
:1018400000F00F0004432C8106B0BDE8F0870000D3
:1018500000380140C1F308028280704700BFFEE7F4
:1018600010B586B00446012144F20500FFF79CFC48
:101870004FF40070ADF8140018208DF81700032005
:101880008DF8160005A91748FEF7D6FE4FF48060C4
:10189000ADF8140004208DF8170003208DF8160011
:1018A00005A91048FEF7C8FE01940020ADF8080015
:1018B000ADF80A00ADF80C00ADF810000C20ADF842
:1018C0000E0001A90848FFF759FF012240F22551F7
:1018D0000548FFF72EFF01210348FFF711FF06B06F
:1018E00010BD0000000801400038014010B522483A
:1018F0000078D8B921480088B0F5617F16DD012055
:101900001D4908701E48007848701D4841781A48E3
:1019100081701B4881781848C1701948C1781648F1
:101920000171417841711E20134988711348008864
:10193000642820DA1048007801281CD1810211485F
:10194000FEF70EFF05220C49491C3020FFF7E0F995
:1019500005220949491C2A20FFF7DAF9064881794E
:101960002520FFF7F5F94FF480610648FEF7FAFEEF
:1019700002200149087010BD3C0000202800002012
:1019800044000020000C014010B50446FEF780FF23
:101990007820FEF71DFFFEF74BFF0020FEF718FF33
:1019A000FEF746FF2046FEF713FFFEF741FFFEF766
:1019B00089FF10BD10B50446FEF76AFF7820FEF7D8
:1019C00007FFFEF735FF4020FEF702FFFEF730FF6E
:1019D0002046FEF7FDFEFEF72BFFFEF773FF10BD5E
:1019E00000BF704700B585B001214802FFF7DCFB5E
:1019F00000208DF8050003904FF420200290002075
:101A0000009004208DF8100001208DF80400694634
:101A10001F48FEF7C9FC01211D48FEF75BFC0121B0
:101A20001B48FEF76AFC4FF44040FFF791FB06238A
:101A3000012200211648FEF7DFFC062302220121C5
:101A40001348FEF7D9FC0623032202211048FEF7B3
:101A5000D3FC0623042203210D48FEF7CDFC0C48DD
:101A6000FEF726FD00BF0A48FEF793FC0028FAD1D6
:101A70000748FEF722FD00BF0548FEF78AFC002854
:101A8000FAD101210248FEF779FC05B000BD000043
:101A90000024014008B501210420FFF785FB0F2039
:101AA000ADF8000000208DF8030069460148FEF7FC
:101AB000C3FD08BD0008014070B50446608800F011
:101AC00093F90646164900F0A3F9054600F06CF9B3
:101AD00014490880208800F087F90646124900F072
:101AE00097F9054600F060F90E490871E08800F0AA
:101AF0007BF906460C4900F08BF9054600F054F9D5
:101B000008498870A08800F06FF90646064900F081
:101B10007FF9054600F048F90249C87070BD000021
:101B2000910F7A3E28000020740CC83C1D490978AA
:101B3000012916D1A82101701A4949784170194923
:101B4000897881701749C978C1701649097901717E
:101B50001449497941711349897981718B218172C5
:101B60001FE01049097802291BD1A82101700E49F4
:101B7000097841700C49497881700B498978C170A6
:101B80000949C978017108490979417107494978BA
:101B9000817106498978C1710021017241728B21DE
:101BA000817270473C000020280000203200002095
:101BB00000B970474FF47A7141430D4A116000211A
:101BC0004FF0E02291611146096941F00101116174
:101BD00000BF074909680029FBD14FF0E0210969DE
:101BE00021F001014FF0E022116100BFE1E70000A8
:101BF0001400002070B504460D4600BF4021054882
:101C0000FFF78AFD0028F9D0E1B20248FFF722FE73
:101C1000204670BD003801400A4800680A49086043
:101C20000848001F00684860064808380068886057
:101C3000084600684968084303498968084303491E
:101C400008607047F0F7FF1F740000204400002078
:101C500010B50120FEF782FE0B4908700846007897
:101C6000012801D1E120487007480078022802D1FC
:101C7000C820054988700448007818B90020024936
:101C80004870887010BD000032000020FFF752FC41
:101C900000F03AF84FF4E130FFF7E2FD16A0FEF74E
:101CA00095FAFFF7B9FFFFF71BFBFEF73BFF05E0D7
:101CB0000120FEF795FE0A20FFF77AFFFEF70CFFE2
:101CC0000028F5D1FEF7B0FFFEF71EFEFEF70DFB74
:101CD00000F032F8FFF7E1F8FFF7C0F8FFF790F8EF
:101CE0006420FFF765FF05E0FFF700FEFFF7B0FF98
:101CF000FFF7A8F9F8E70000757361727420697343
:101D0000206F6B0D0A000000094800680949B0FB0C
:101D1000F1F0401E4FF0E02148610020886106206C
:101D200008610846006920F0010008617047000062
:101D30000000002040420F0000B587B001210420C0
:101D4000FFF722FA0020ADF816004720ADF810008A
:101D50000020ADF8120044F61F60ADF8140004A98D
:101D60001048FFF77BFC6020ADF800000020ADF8C4
:101D700008000120ADF8020041F28830ADF80600FD
:101D800069460848FFF71EFC01210648FFF702FCE0
:101D900008210448FFF754FC01210248FFF706FC24
:101DA00007B000BD00080040C10DD1F19E0206DB66
:101DB0004FEA002343F0004323FA02F07047004249
:101DC00007D54FEA4001B1F1FE4F02D24FF00000BB
:101DD000704710B500F09DF84992248000207047AC
:101DE0006FEA200070470000B0FA80F310FA03F2A7
:101DF000C3F19D030AD0D90501EB1220530638BF69
:101E0000704700F1010008BF20F00100704700009A
:101E10004FF47F0C1CEAD0121EBF1CEAD11392EAC9
:101E20000C0F93EA0C0F00F0478090EA010F48BFB7
:101E300042F480724FF0004C4CEA00204CEA012141
:101E400002EB0302A0FB0113A2F50002002918BF58
:101E500043F001035B0028BF4FEA330342EB224209
:101E60005FEA132C4CEBC2502EBFBCEB436FB2F5B4
:101E70007C0F70474FEA036CBCF1004F08BF20F0A5
:101E80000100B2F57C0F38BF70470BD582F0FF021E
:101E900012F5803FC8BF704700F1C040D8BF00F0C6
:101EA0000040704700F5000C5FEA4C0C48BF7047DB
:101EB000B0F1C04000F073B890EA010F0CEAD11302
:101EC00048BF42F48072624538BF634504D280EA5D
:101ED000010000F00040704710B500F01AF800BF94
:101EE0008900013E00F007B800F009B85FEA410C34
:101EF0005FEA1C6C08D080EA010000F050B85FEA8D
:101F0000400C5FEA1C6CF6D14FF00040A0F5800059
:101F100070470EF1020E2EF0030E5EF8044B2442C1
:101F200004D44FEA4102B2F17F4F11D84FEA400387
:101F3000B3F17F4F0CD80ED14FEAD07CB2F17F4F76
:101F40000CEB4C0C0CF1020C08BF4CEBD17C04E008
:101F50004FF0080C01E04FEAD17C0CEB4C0324FA63
:101F600003F404F00704B4F1040C06D20EEB840C65
:101F7000BDE810404CF0010C6047DFE80CF00708AA
:101F800002024FF00040A0F5800010BD084642005C
:101F900018BFD2F1807288BF00F0004010BDFF2151
:101FA00041EAD050C005704700000000000000006A
:101FB000002F000000000700070000147F147F14AA
:101FC00000242A7F2A120062640813230036495530
:101FD000225000000503000000001C224100000008
:101FE00041221C000014083E08140008083E08089E
:101FF000000000A0600000080808080800006060F9
:102000000000002010080402003E5149453E000037
:10201000427F4000004261514946002141454B3119
:10202000001814127F10002745454539003C4A49E5
:102030004930000171090503003649494936000657
:102040004949291E000036360000000056360000BF
:10205000000814224100001414141414000041223A
:10206000140800020151090600324959513E007C12
:102070001211127C007F49494936003E41414122FC
:10208000007F4141221C007F49494941007F0909E5
:102090000901003E4149497A007F0808087F000095
:1020A000417F4100002040413F01007F0814224150
:1020B000007F40404040007F020C027F007F040808
:1020C000107F003E4141413E007F09090906003E64
:1020D0004151215E007F091929460046494949318D
:1020E0000001017F0101003F4040403F001F2040B0
:1020F000201F003F4038403F00631408146300076E
:102100000870080700615149454300007F414100C4
:1021100000552A552A55000041417F000004020164
:102120000204004040404040000001020400002042
:1021300054545478007F4844443800384444442080
:1021400000384444487F00385454541800087E092D
:1021500001020018A4A4A47C007F080404780000F5
:10216000447D4000004080847D00007F10284400B2
:102170000000417F4000007C04180478007C0804C3
:10218000047800384444443800FC242424180018FF
:10219000242418FC007C08040408004854545420EB
:1021A00000043F444020003C4040207C001C204074
:1021B000201C003C4030403C004428102844001CB7
:1021C000A0A0A07C004464544C44141414141414AF
:1021D00000000000000000000000000000000000FF
:1021E000000000F800000000000000333000000094
:1021F00000100C06100C060000000000000000009B
:1022000040C07840C0784000043F04043F0404000C
:10221000007088FC08300000001820FF211E00001C
:10222000F0F8F000E018000000211C031E211E0041
:1022300000F00888700000001E21232419272110B7
:1022400010160E000000000000000000000000005A
:10225000000000E018040200000000071820400001
:1022600000020418E00000000040201807000000F1
:10227000404080F0804040000202010F0102020055
:10228000000000F0000000000101011F0101010039
:10229000000000000000000080B07000000000009E
:1022A0000000000000000000000101010101010127
:1022B00000000000000000000030300000000000BE
:1022C0000000000080601804006018060100000093
:1022D00000E010080810E000000F102020100F0090
:1022E000001010F8000000000020203F2020000017
:1022F000007008080888700000302824222130006F
:1023000000300888884830000018202020110E0076
:102310000000C02010F8000000070424243F24001F
:1023200000F80888880808000019212020110E00F4
:1023300000E0108888180000000F112020110E0006
:1023400000380808C83808000000003F00000000FE
:102350000070880808887000001C222121221C00BF
:1023600000E010080810E0000000312222110F00E8
:10237000000000C0C000000000000030300000007D
:1023800000000080000000000000806000000000ED
:102390000000804020100800000102040810200006
:1023A0004040404040404000040404040404040051
:1023B00000081020408000000020100804020100E6
:1023C000007048080808F0000000003036010000E6
:1023D000C030C828E810E0000718272423140B0099
:1023E0000000C038E0000000203C23020227382013
:1023F00008F8888888700000203F202020110E00F7
:10240000C0300808080838000718202020100800ED
:1024100008F808080810E000203F202020100F00D6
:1024200008F88888E8081000203F202023201800A2
:1024300008F88888E8081000203F2000030000000A
:10244000C03008080838000007182020221E0200AB
:1024500008F808000008F808203F210101213F206A
:10246000000808F8080800000020203F2020000095
:1024700000000808F8080800C08080807F00000085
:1024800008F888C028180800203F200126382000BE
:1024900008F8080000000000203F20202020300025
:1024A00008F8F800F8F80800203F003F003F20003F
:1024B00008F830C00008F808203F200007183F0047
:1024C000E01008080810E0000F10202020100F0076
:1024D00008F808080808F000203F21010101000069
:1024E000E01008080810E0000F18242438504F00AE
:1024F00008F8888888887000203F2000030C30206E
:1025000000708808080838000038202121221C00AB
:10251000180808F8080818000000203F20000000F4
:1025200008F808000008F808001F202020201F00DD
:102530000878880000C83808000007380E0100003D
:10254000F80800F80008F800033C0700073C030007
:10255000081868808068180820302C03032C30206D
:102560000838C800C83808000000203F20000000DC
:1025700010080808C8380800203826212020180034
:10258000000000FE020202000000007F4040400008
:10259000000C30C000000000000000010638C00040
:1025A00000020202FE000000004040407F000000E8
:1025B000000004020202040000000000000000000D
:1025C000000000000000000080808080808080800B
:1025D00000020204000000000000000000000000F3
:1025E00000008080808000000019242222223F20E9
:1025F00008F8008080000000003F112020110E002C
:102600000000008080800000000E112020201100BA
:10261000000000808088F800000E112020103F206C
:102620000000808080800000001F222222221300F0
:10263000008080F0888888180020203F202000003B
:102640000000808080808000006B949494936000F0
:1026500008F8008080800000203F210000203F20FB
:1026600000809898000000000020203F20200000FB
:10267000000000809898000000C08080807F0000EB
:1026800008F8000080808000203F24022D302000C8
:10269000000808F8000000000020203F2020000073
:1026A0008080808080808000203F20003F20003F8D
:1026B0008080008080800000203F210000203F209B
:1026C0000000808080800000001F202020201F004C
:1026D000808000808000000080FFA12020110E007B
:1026E0000000008080808000000E112020A0FF806C
:1026F000808080008080800020203F212000010019
:10270000000080808080800000332424242419006D
:10271000008080E0808000000000001F202000007A
:102720008080000000808000001F202020103F20BB
:10273000808080000080808000010E30080601004B
:1027400080800080008080800F300C030C300F00F0
:1027500000808000808080000020312E0E3120001B
:10276000808080000080808080818E70180601004B
:1027700000808080808080000021302C2221300069
:1027800000000000807C020200000000003F40408A
:1027900000000000FF00000000000000FF0000003B
:1027A0000002027C800000000040403F000000006A
:1027B0000006010102020404000000000000000005
:1027C0008020802088108808880488028801FFFF04
:1027D00088018802880488088810802080200000F2
:1027E000000008204810880C0803C80438180000AE
:1027F000900010431080FF7F1000100010000000B8
:1028000040907C8E40407F4F4820481E4080F24FD1
:1028100012201A18D60712101220F24F0280000060
:10282000000180006000F8FF07000000040024F9A8
:102830002449254926492449244924F90400000053
:10284000800080008000BE06A205A204A204A204AB
:10285000A244A284A244BE3C80008000800000000C
:1028600000020002244224E22452244A2446FC436B
:10287000224222422252236222C2000200020000AF
:102880000081408130411E211011100D1003FF0105
:102890001003100D10111021104100810081000063
:1028A000200110012C01E77F242124110080E24F38
:1028B0002C202010BF0F20102820E64F00800000A1
:1028C00010800C404420441E442044404540C67FB4
:1028D0004444444444444444444414400C400000B0
:1028E00020801060EC1F2709F43F2C89E0FF0000D6
:1028F000220A92090E09D2FF22091E0900080000CF
:10290000200110012C01E77F242124110080E24FD7
:102910002C202010BF0F20102820E64F0080000040
:1029200000000000F81F8808880888088808FF7FD2
:102930008888888888888888F89F008000F0000050
:10294000200020802080BEAFAAAAAAAAAAAAAAFF15
:10295000AAAAAAAAAAAABEAF2080208020000000AE
:10296000000180006000F8FF07000000FCFF8440C9
:1029700084208400FE41828E8330824080F80000F3
:102980008020802088108808880488028801FFFF42
:102990008801880288048808881080208020000030
:1029A00010041003D000FFFF900050412044505805
:1029B0004C41434E4C60505820474040404000003E
:1029C00010046004027E8C010080FE470230F20F8A
:1029D0000210FE270000F8470080FF7F0000000083
:1029E000424062C452444A44C67F42245224622474
:1029F000C2200000F80F00400080FF7F00000000B0
:102A000002000200020002000200020002000200B6
:102A10000200FE03400CA0101021084200F000004C
:102A200010041003D000FFFF900010830060FE1F11
:102A3000020002000200FE3F00400040007800005B
:102A4000000008204810880C0803C804381800004B
:102A5000900010431080FF7F100010001000000055
:102A600040907C8E40407F4F4820481E4080F24F6F
:102A700012201A18D60712101220F24F02800000FE
:102A800000000000F00F1004100410041004FFFFF9
:102A90001004100410041004F00F000000000000E7
:102AA000000008204810880C0803C80438180000EB
:102AB000900010431080FF7F1000100010000000F5
:102AC00040907C8E40407F4F4820481E4080F24F0F
:102AD00012201A18D60712101220F24F028000009E
:102AE00010000C81048124412431240F250126018A
:102AF0002401247F24812481048114F10C0000002E
:102B000000800060F81F880088108820881F0880D7
:102B10000840FF21081609180A26C84108F80000D5
:102B20000820081008480846884178410F410841AC
:102B3000087F08410841084108410840084000005A
:102B4000400040804240CC3F004000804A8132BD7E
:102B500022A12AA1F1BF21A131A12DBD0081000038
:102B600000880066FC010400D463548254825492AD
:102B7000D4AB04847F8284C1C502362404CF000014
:102B8000004000400040004000400040FF7F4040C7
:102B90004040404040404040404000400040000035
:102BA000100410441082FF7F100150002000F8FF35
:102BB0004F2248224922FA3F48224822082000009A
:102BC000400040404220CC1F002080408850884C6C
:102BD000FF4388408840FF5F884088408040000075
:102BE000000210018800C4FF3300000040004200D2
:102BF00042404280C27F420042004200400000004A
:102C0000000008204810880C0803C8043818000089
:102C1000900010431080FF7F100010001000000093
:102C200040907C8E40407F4F4820481E4080F24FAD
:102C300012201A18D60712101220F24F028000003C
:102C40000820081008480846884178410F4108418B
:102C5000087F084108410841084108400840000039
:102C6000400040804240CC3F004000804A8132BD5D
:102C700022A12AA1F1BF21A131A12DBD0081000017
:102C800000880066FC010400D4635482548254928C
:102C9000D4AB04847F8284C1C502362404CF0000F3
:102CA000020002000200020002000200FEFF020019
:102CB000020042008200020102060200020000003F
:102CC000100210421081FF7F900040401040904160
:102CD000105E114016401070104ED04110400000A0
:102CE00010000C81048124412431240F2501260188
:102CF0002401247F24812481048114F10C0000002C
:102D000000800060F81F880088108820881F0880D5
:102D10000840FF21081609180A26C84108F80000D3
:102D2000000008204810880C0803C8043818000068
:102D3000900010431080FF7F100010001000000072
:102D400040907C8E40407F4F4820481E4080F24F8C
:102D500012201A18D60712101220F24F028000001B
:102D600040004200CC7F00200010440054FF541566
:102D700054157F1554555495547F4400400000006D
:102D800010041003D000FFFF900050412044505821
:102D90004C41434E4C60505820474040404000005A
:102DA000404044402440A45F944A8C4A844AFF4AED
:102DB000844A8C4A944AA45F244044404040000026
:102DC00002000200020002000200020002000200F3
:102DD0000200FE03400CA0101021084200F0000089
:102DE00010041003D000FFFF900010830060FE1F4E
:102DF000020002000200FE3F004000400078000098
:102E00000081004100217F1D49214941498149FF3D
:102E10004989498949897F890089008100810000A9
:102E200000010201820082FC424422441244FA451D
:102E300006442244224442FC420082000001000079
:102E40008000828082408230FE0F820082008200F9
:102E500082008200FEFF820082008200800000006B
:102E600010041003D000FFFF900010830060FE1FCD
:102E7000020002000200FE3F004000400078000017
:102E800000000000005800380000000000000000B2
:102E90000000000000000000000000000000000032
:102EA00008000820C867482448244814C897089098
:102EB0000840FF21081608180926CA4108F8000032
:102EC000400040804240CC3F004000804A8132BDFB
:102ED00022A12AA1F1BF21A131A12DBD00810000B5
:102EE000100210421081FF7F90002040984048421D
:102EF000284209420E7E28424842A842184000005B
:102F0000800880089EF49294929292929EF1E00042
:102F100080019EF2B292D29492949EF880080000B2
:102F2000104010401450D457545554555455FC7FFC
:102F3000525552555255D357125010401040000070
:102F4000004000200018FC07440044FC4444454471
:102F5000464444444444444444447CFC000000004F
:102F6000802F0008000000205C00000028010008FD
:102F7000DC2F00085C0000208406000044010008EB
:102F800000A24A0400000000000000000102030447
:102F90000607080900000000000000000000000013
:102FA0000000000000000000000000000000000021
:102FB000000000000000000000000100001F2E3D86
:102FC0004C5B05000000000000000000010203044B
:0C2FD000010203040607080902040608B9
:04000005080000ED02
:00000001FF
